{
  "contractName": "BeefyVaultV6",
  "abi": [
    {
      "inputs": [
        {
          "internalType": "contract IStrategy",
          "name": "_strategy",
          "type": "address"
        },
        {
          "internalType": "string",
          "name": "_name",
          "type": "string"
        },
        {
          "internalType": "string",
          "name": "_symbol",
          "type": "string"
        },
        {
          "internalType": "uint256",
          "name": "_approvalDelay",
          "type": "uint256"
        }
      ],
      "stateMutability": "nonpayable",
      "type": "constructor"
    },
    {
      "anonymous": false,
      "inputs": [
        {
          "indexed": true,
          "internalType": "address",
          "name": "owner",
          "type": "address"
        },
        {
          "indexed": true,
          "internalType": "address",
          "name": "spender",
          "type": "address"
        },
        {
          "indexed": false,
          "internalType": "uint256",
          "name": "value",
          "type": "uint256"
        }
      ],
      "name": "Approval",
      "type": "event"
    },
    {
      "anonymous": false,
      "inputs": [
        {
          "indexed": false,
          "internalType": "address",
          "name": "implementation",
          "type": "address"
        }
      ],
      "name": "NewStratCandidate",
      "type": "event"
    },
    {
      "anonymous": false,
      "inputs": [
        {
          "indexed": true,
          "internalType": "address",
          "name": "previousOwner",
          "type": "address"
        },
        {
          "indexed": true,
          "internalType": "address",
          "name": "newOwner",
          "type": "address"
        }
      ],
      "name": "OwnershipTransferred",
      "type": "event"
    },
    {
      "anonymous": false,
      "inputs": [
        {
          "indexed": true,
          "internalType": "address",
          "name": "from",
          "type": "address"
        },
        {
          "indexed": true,
          "internalType": "address",
          "name": "to",
          "type": "address"
        },
        {
          "indexed": false,
          "internalType": "uint256",
          "name": "value",
          "type": "uint256"
        }
      ],
      "name": "Transfer",
      "type": "event"
    },
    {
      "anonymous": false,
      "inputs": [
        {
          "indexed": false,
          "internalType": "address",
          "name": "implementation",
          "type": "address"
        }
      ],
      "name": "UpgradeStrat",
      "type": "event"
    },
    {
      "inputs": [
        {
          "internalType": "address",
          "name": "owner",
          "type": "address"
        },
        {
          "internalType": "address",
          "name": "spender",
          "type": "address"
        }
      ],
      "name": "allowance",
      "outputs": [
        {
          "internalType": "uint256",
          "name": "",
          "type": "uint256"
        }
      ],
      "stateMutability": "view",
      "type": "function"
    },
    {
      "inputs": [],
      "name": "approvalDelay",
      "outputs": [
        {
          "internalType": "uint256",
          "name": "",
          "type": "uint256"
        }
      ],
      "stateMutability": "view",
      "type": "function"
    },
    {
      "inputs": [
        {
          "internalType": "address",
          "name": "spender",
          "type": "address"
        },
        {
          "internalType": "uint256",
          "name": "amount",
          "type": "uint256"
        }
      ],
      "name": "approve",
      "outputs": [
        {
          "internalType": "bool",
          "name": "",
          "type": "bool"
        }
      ],
      "stateMutability": "nonpayable",
      "type": "function"
    },
    {
      "inputs": [
        {
          "internalType": "address",
          "name": "account",
          "type": "address"
        }
      ],
      "name": "balanceOf",
      "outputs": [
        {
          "internalType": "uint256",
          "name": "",
          "type": "uint256"
        }
      ],
      "stateMutability": "view",
      "type": "function"
    },
    {
      "inputs": [],
      "name": "decimals",
      "outputs": [
        {
          "internalType": "uint8",
          "name": "",
          "type": "uint8"
        }
      ],
      "stateMutability": "view",
      "type": "function"
    },
    {
      "inputs": [
        {
          "internalType": "address",
          "name": "spender",
          "type": "address"
        },
        {
          "internalType": "uint256",
          "name": "subtractedValue",
          "type": "uint256"
        }
      ],
      "name": "decreaseAllowance",
      "outputs": [
        {
          "internalType": "bool",
          "name": "",
          "type": "bool"
        }
      ],
      "stateMutability": "nonpayable",
      "type": "function"
    },
    {
      "inputs": [
        {
          "internalType": "address",
          "name": "spender",
          "type": "address"
        },
        {
          "internalType": "uint256",
          "name": "addedValue",
          "type": "uint256"
        }
      ],
      "name": "increaseAllowance",
      "outputs": [
        {
          "internalType": "bool",
          "name": "",
          "type": "bool"
        }
      ],
      "stateMutability": "nonpayable",
      "type": "function"
    },
    {
      "inputs": [],
      "name": "name",
      "outputs": [
        {
          "internalType": "string",
          "name": "",
          "type": "string"
        }
      ],
      "stateMutability": "view",
      "type": "function"
    },
    {
      "inputs": [],
      "name": "owner",
      "outputs": [
        {
          "internalType": "address",
          "name": "",
          "type": "address"
        }
      ],
      "stateMutability": "view",
      "type": "function"
    },
    {
      "inputs": [],
      "name": "renounceOwnership",
      "outputs": [],
      "stateMutability": "nonpayable",
      "type": "function"
    },
    {
      "inputs": [],
      "name": "stratCandidate",
      "outputs": [
        {
          "internalType": "address",
          "name": "implementation",
          "type": "address"
        },
        {
          "internalType": "uint256",
          "name": "proposedTime",
          "type": "uint256"
        }
      ],
      "stateMutability": "view",
      "type": "function"
    },
    {
      "inputs": [],
      "name": "strategy",
      "outputs": [
        {
          "internalType": "contract IStrategy",
          "name": "",
          "type": "address"
        }
      ],
      "stateMutability": "view",
      "type": "function"
    },
    {
      "inputs": [],
      "name": "symbol",
      "outputs": [
        {
          "internalType": "string",
          "name": "",
          "type": "string"
        }
      ],
      "stateMutability": "view",
      "type": "function"
    },
    {
      "inputs": [],
      "name": "totalSupply",
      "outputs": [
        {
          "internalType": "uint256",
          "name": "",
          "type": "uint256"
        }
      ],
      "stateMutability": "view",
      "type": "function"
    },
    {
      "inputs": [
        {
          "internalType": "address",
          "name": "recipient",
          "type": "address"
        },
        {
          "internalType": "uint256",
          "name": "amount",
          "type": "uint256"
        }
      ],
      "name": "transfer",
      "outputs": [
        {
          "internalType": "bool",
          "name": "",
          "type": "bool"
        }
      ],
      "stateMutability": "nonpayable",
      "type": "function"
    },
    {
      "inputs": [
        {
          "internalType": "address",
          "name": "sender",
          "type": "address"
        },
        {
          "internalType": "address",
          "name": "recipient",
          "type": "address"
        },
        {
          "internalType": "uint256",
          "name": "amount",
          "type": "uint256"
        }
      ],
      "name": "transferFrom",
      "outputs": [
        {
          "internalType": "bool",
          "name": "",
          "type": "bool"
        }
      ],
      "stateMutability": "nonpayable",
      "type": "function"
    },
    {
      "inputs": [
        {
          "internalType": "address",
          "name": "newOwner",
          "type": "address"
        }
      ],
      "name": "transferOwnership",
      "outputs": [],
      "stateMutability": "nonpayable",
      "type": "function"
    },
    {
      "inputs": [],
      "name": "want",
      "outputs": [
        {
          "internalType": "contract IERC20",
          "name": "",
          "type": "address"
        }
      ],
      "stateMutability": "view",
      "type": "function"
    },
    {
      "inputs": [],
      "name": "balance",
      "outputs": [
        {
          "internalType": "uint256",
          "name": "",
          "type": "uint256"
        }
      ],
      "stateMutability": "view",
      "type": "function"
    },
    {
      "inputs": [],
      "name": "available",
      "outputs": [
        {
          "internalType": "uint256",
          "name": "",
          "type": "uint256"
        }
      ],
      "stateMutability": "view",
      "type": "function"
    },
    {
      "inputs": [],
      "name": "getPricePerFullShare",
      "outputs": [
        {
          "internalType": "uint256",
          "name": "",
          "type": "uint256"
        }
      ],
      "stateMutability": "view",
      "type": "function"
    },
    {
      "inputs": [],
      "name": "depositAll",
      "outputs": [],
      "stateMutability": "nonpayable",
      "type": "function"
    },
    {
      "inputs": [
        {
          "internalType": "uint256",
          "name": "_amount",
          "type": "uint256"
        }
      ],
      "name": "deposit",
      "outputs": [],
      "stateMutability": "nonpayable",
      "type": "function"
    },
    {
      "inputs": [],
      "name": "earn",
      "outputs": [],
      "stateMutability": "nonpayable",
      "type": "function"
    },
    {
      "inputs": [],
      "name": "withdrawAll",
      "outputs": [],
      "stateMutability": "nonpayable",
      "type": "function"
    },
    {
      "inputs": [
        {
          "internalType": "uint256",
          "name": "_shares",
          "type": "uint256"
        }
      ],
      "name": "withdraw",
      "outputs": [],
      "stateMutability": "nonpayable",
      "type": "function"
    },
    {
      "inputs": [
        {
          "internalType": "address",
          "name": "_implementation",
          "type": "address"
        }
      ],
      "name": "proposeStrat",
      "outputs": [],
      "stateMutability": "nonpayable",
      "type": "function"
    },
    {
      "inputs": [],
      "name": "upgradeStrat",
      "outputs": [],
      "stateMutability": "nonpayable",
      "type": "function"
    },
    {
      "inputs": [
        {
          "internalType": "address",
          "name": "_token",
          "type": "address"
        }
      ],
      "name": "inCaseTokensGetStuck",
      "outputs": [],
      "stateMutability": "nonpayable",
      "type": "function"
    }
  ],
  "bytecode": "0x60a06040523480156200001157600080fd5b506040516200399138038062003991833981810160405260808110156200003757600080fd5b8101908080519060200190929190805160405193929190846401000000008211156200006257600080fd5b838201915060208201858111156200007957600080fd5b82518660018202830111640100000000821117156200009757600080fd5b8083526020830192505050908051906020019080838360005b83811015620000cd578082015181840152602081019050620000b0565b50505050905090810190601f168015620000fb5780820380516001836020036101000a031916815260200191505b50604052602001805160405193929190846401000000008211156200011f57600080fd5b838201915060208201858111156200013657600080fd5b82518660018202830111640100000000821117156200015457600080fd5b8083526020830192505050908051906020019080838360005b838110156200018a5780820151818401526020810190506200016d565b50505050905090810190601f168015620001b85780820380516001836020036101000a031916815260200191505b506040526020018051906020019092919050505082828160039080519060200190620001e692919062000332565b508060049080519060200190620001ff92919062000332565b506012600560006101000a81548160ff021916908360ff16021790555050506000620002306200032a60201b60201c565b905080600560016101000a81548173ffffffffffffffffffffffffffffffffffffffff021916908373ffffffffffffffffffffffffffffffffffffffff1602179055508073ffffffffffffffffffffffffffffffffffffffff16600073ffffffffffffffffffffffffffffffffffffffff167f8be0079c531659141344cd1fd0a4f28419497f9722a3daafe3b4186f6b6457e060405160405180910390a350600160068190555083600960006101000a81548173ffffffffffffffffffffffffffffffffffffffff021916908373ffffffffffffffffffffffffffffffffffffffff160217905550806080818152505050505050620003d8565b600033905090565b828054600181600116156101000203166002900490600052602060002090601f016020900481019282601f106200037557805160ff1916838001178555620003a6565b82800160010185558215620003a6579182015b82811115620003a557825182559160200191906001019062000388565b5b509050620003b59190620003b9565b5090565b5b80821115620003d4576000816000905550600101620003ba565b5090565b608051613599620003f860003980611d5f5280611efe52506135996000f3fe608060405234801561001057600080fd5b50600436106101cf5760003560e01c8063853828b611610104578063b6b55f25116100a2578063def68a9c11610071578063def68a9c146107f6578063e2d1e75c1461083a578063e668524414610858578063f2fde38b14610862576101cf565b8063b6b55f251461073c578063d389800f1461076a578063dd62ed3e14610774578063de5f6268146107ec576101cf565b8063a457c2d7116100de578063a457c2d714610622578063a8c62e7614610686578063a9059cbb146106ba578063b69ef8a81461071e576101cf565b8063853828b6146105615780638da5cb5b1461056b57806395d89b411461059f576101cf565b8063395093511161017157806370a082311161014b57806370a08231146104a6578063715018a6146104fe57806376dfabb81461050857806377c7b8fc14610543576101cf565b806339509351146103e057806348a0d754146104445780635b12ff9b14610462576101cf565b80631f1fcd51116101ad5780631f1fcd51146102d957806323b872dd1461030d5780632e1a7d4d14610391578063313ce567146103bf576101cf565b806306fdde03146101d4578063095ea7b31461025757806318160ddd146102bb575b600080fd5b6101dc6108a6565b6040518080602001828103825283818151815260200191508051906020019080838360005b8381101561021c578082015181840152602081019050610201565b50505050905090810190601f1680156102495780820380516001836020036101000a031916815260200191505b509250505060405180910390f35b6102a36004803603604081101561026d57600080fd5b81019080803573ffffffffffffffffffffffffffffffffffffffff16906020019092919080359060200190929190505050610948565b60405180821515815260200191505060405180910390f35b6102c3610966565b6040518082815260200191505060405180910390f35b6102e1610970565b604051808273ffffffffffffffffffffffffffffffffffffffff16815260200191505060405180910390f35b6103796004803603606081101561032357600080fd5b81019080803573ffffffffffffffffffffffffffffffffffffffff169060200190929190803573ffffffffffffffffffffffffffffffffffffffff16906020019092919080359060200190929190505050610a1a565b60405180821515815260200191505060405180910390f35b6103bd600480360360208110156103a757600080fd5b8101908080359060200190929190505050610af3565b005b6103c7610daa565b604051808260ff16815260200191505060405180910390f35b61042c600480360360408110156103f657600080fd5b81019080803573ffffffffffffffffffffffffffffffffffffffff16906020019092919080359060200190929190505050610dc1565b60405180821515815260200191505060405180910390f35b61044c610e74565b6040518082815260200191505060405180910390f35b6104a46004803603602081101561047857600080fd5b81019080803573ffffffffffffffffffffffffffffffffffffffff169060200190929190505050610f24565b005b6104e8600480360360208110156104bc57600080fd5b81019080803573ffffffffffffffffffffffffffffffffffffffff1690602001909291905050506111a8565b6040518082815260200191505060405180910390f35b6105066111f0565b005b610510611360565b604051808373ffffffffffffffffffffffffffffffffffffffff1681526020018281526020019250505060405180910390f35b61054b611392565b6040518082815260200191505060405180910390f35b6105696113f1565b005b610573611404565b604051808273ffffffffffffffffffffffffffffffffffffffff16815260200191505060405180910390f35b6105a761142e565b6040518080602001828103825283818151815260200191508051906020019080838360005b838110156105e75780820151818401526020810190506105cc565b50505050905090810190601f1680156106145780820380516001836020036101000a031916815260200191505b509250505060405180910390f35b61066e6004803603604081101561063857600080fd5b81019080803573ffffffffffffffffffffffffffffffffffffffff169060200190929190803590602001909291905050506114d0565b60405180821515815260200191505060405180910390f35b61068e61159d565b604051808273ffffffffffffffffffffffffffffffffffffffff16815260200191505060405180910390f35b610706600480360360408110156106d057600080fd5b81019080803573ffffffffffffffffffffffffffffffffffffffff169060200190929190803590602001909291905050506115c3565b60405180821515815260200191505060405180910390f35b6107266115e1565b6040518082815260200191505060405180910390f35b6107686004803603602081101561075257600080fd5b8101908080359060200190929190505050611745565b005b610772611911565b005b6107d66004803603604081101561078a57600080fd5b81019080803573ffffffffffffffffffffffffffffffffffffffff169060200190929190803573ffffffffffffffffffffffffffffffffffffffff1690602001909291905050506119f6565b6040518082815260200191505060405180910390f35b6107f4611a7d565b005b6108386004803603602081101561080c57600080fd5b81019080803573ffffffffffffffffffffffffffffffffffffffff169060200190929190505050611b30565b005b610842611d5d565b6040518082815260200191505060405180910390f35b610860611d81565b005b6108a46004803603602081101561087857600080fd5b81019080803573ffffffffffffffffffffffffffffffffffffffff16906020019092919050505061215c565b005b606060038054600181600116156101000203166002900480601f01602080910402602001604051908101604052809291908181526020018280546001816001161561010002031660029004801561093e5780601f106109135761010080835404028352916020019161093e565b820191906000526020600020905b81548152906001019060200180831161092157829003601f168201915b5050505050905090565b600061095c610955612351565b8484612359565b6001905092915050565b6000600254905090565b6000600960009054906101000a900473ffffffffffffffffffffffffffffffffffffffff1673ffffffffffffffffffffffffffffffffffffffff16631f1fcd516040518163ffffffff1660e01b815260040160206040518083038186803b1580156109da57600080fd5b505afa1580156109ee573d6000803e3d6000fd5b505050506040513d6020811015610a0457600080fd5b8101908080519060200190929190505050905090565b6000610a27848484612550565b610ae884610a33612351565b610ae38560405180606001604052806028815260200161348360289139600160008b73ffffffffffffffffffffffffffffffffffffffff1673ffffffffffffffffffffffffffffffffffffffff1681526020019081526020016000206000610a99612351565b73ffffffffffffffffffffffffffffffffffffffff1673ffffffffffffffffffffffffffffffffffffffff168152602001908152602001600020546128119092919063ffffffff16565b612359565b600190509392505050565b6000610b28610b00610966565b610b1a84610b0c6115e1565b6128cb90919063ffffffff16565b61295190919063ffffffff16565b9050610b3433836129da565b6000610b3e610970565b73ffffffffffffffffffffffffffffffffffffffff166370a08231306040518263ffffffff1660e01b8152600401808273ffffffffffffffffffffffffffffffffffffffff16815260200191505060206040518083038186803b158015610ba457600080fd5b505afa158015610bb8573d6000803e3d6000fd5b505050506040513d6020811015610bce57600080fd5b8101908080519060200190929190505050905081811015610d73576000610bfe8284612b9e90919063ffffffff16565b9050600960009054906101000a900473ffffffffffffffffffffffffffffffffffffffff1673ffffffffffffffffffffffffffffffffffffffff16632e1a7d4d826040518263ffffffff1660e01b815260040180828152602001915050600060405180830381600087803b158015610c7557600080fd5b505af1158015610c89573d6000803e3d6000fd5b505050506000610c97610970565b73ffffffffffffffffffffffffffffffffffffffff166370a08231306040518263ffffffff1660e01b8152600401808273ffffffffffffffffffffffffffffffffffffffff16815260200191505060206040518083038186803b158015610cfd57600080fd5b505afa158015610d11573d6000803e3d6000fd5b505050506040513d6020811015610d2757600080fd5b810190808051906020019092919050505090506000610d4f8483612b9e90919063ffffffff16565b905082811015610d6f57610d6c8185612c2190919063ffffffff16565b94505b5050505b610da53383610d80610970565b73ffffffffffffffffffffffffffffffffffffffff16612ca99092919063ffffffff16565b505050565b6000600560009054906101000a900460ff16905090565b6000610e6a610dce612351565b84610e658560016000610ddf612351565b73ffffffffffffffffffffffffffffffffffffffff1673ffffffffffffffffffffffffffffffffffffffff16815260200190815260200160002060008973ffffffffffffffffffffffffffffffffffffffff1673ffffffffffffffffffffffffffffffffffffffff16815260200190815260200160002054612c2190919063ffffffff16565b612359565b6001905092915050565b6000610e7e610970565b73ffffffffffffffffffffffffffffffffffffffff166370a08231306040518263ffffffff1660e01b8152600401808273ffffffffffffffffffffffffffffffffffffffff16815260200191505060206040518083038186803b158015610ee457600080fd5b505afa158015610ef8573d6000803e3d6000fd5b505050506040513d6020811015610f0e57600080fd5b8101908080519060200190929190505050905090565b610f2c612351565b73ffffffffffffffffffffffffffffffffffffffff16610f4a611404565b73ffffffffffffffffffffffffffffffffffffffff1614610fd3576040517f08c379a00000000000000000000000000000000000000000000000000000000081526004018080602001828103825260208152602001807f4f776e61626c653a2063616c6c6572206973206e6f7420746865206f776e657281525060200191505060405180910390fd5b8073ffffffffffffffffffffffffffffffffffffffff1663fbfa77cf6040518163ffffffff1660e01b815260040160206040518083038186803b15801561101957600080fd5b505afa15801561102d573d6000803e3d6000fd5b505050506040513d602081101561104357600080fd5b810190808051906020019092919050505073ffffffffffffffffffffffffffffffffffffffff163073ffffffffffffffffffffffffffffffffffffffff16146110d7576040517f08c379a00000000000000000000000000000000000000000000000000000000081526004018080602001828103825260218152602001806134416021913960400191505060405180910390fd5b60405180604001604052808273ffffffffffffffffffffffffffffffffffffffff16815260200142815250600760008201518160000160006101000a81548173ffffffffffffffffffffffffffffffffffffffff021916908373ffffffffffffffffffffffffffffffffffffffff160217905550602082015181600101559050507f1aae2ec5647db56da2d513de40528ba3565c6057525637050660c4323bbac7df81604051808273ffffffffffffffffffffffffffffffffffffffff16815260200191505060405180910390a150565b60008060008373ffffffffffffffffffffffffffffffffffffffff1673ffffffffffffffffffffffffffffffffffffffff168152602001908152602001600020549050919050565b6111f8612351565b73ffffffffffffffffffffffffffffffffffffffff16611216611404565b73ffffffffffffffffffffffffffffffffffffffff161461129f576040517f08c379a00000000000000000000000000000000000000000000000000000000081526004018080602001828103825260208152602001807f4f776e61626c653a2063616c6c6572206973206e6f7420746865206f776e657281525060200191505060405180910390fd5b600073ffffffffffffffffffffffffffffffffffffffff16600560019054906101000a900473ffffffffffffffffffffffffffffffffffffffff1673ffffffffffffffffffffffffffffffffffffffff167f8be0079c531659141344cd1fd0a4f28419497f9722a3daafe3b4186f6b6457e060405160405180910390a36000600560016101000a81548173ffffffffffffffffffffffffffffffffffffffff021916908373ffffffffffffffffffffffffffffffffffffffff160217905550565b60078060000160009054906101000a900473ffffffffffffffffffffffffffffffffffffffff16908060010154905082565b60008061139d610966565b146113e2576113dd6113ad610966565b6113cf670de0b6b3a76400006113c16115e1565b6128cb90919063ffffffff16565b61295190919063ffffffff16565b6113ec565b670de0b6b3a76400005b905090565b6114026113fd336111a8565b610af3565b565b6000600560019054906101000a900473ffffffffffffffffffffffffffffffffffffffff16905090565b606060048054600181600116156101000203166002900480601f0160208091040260200160405190810160405280929190818152602001828054600181600116156101000203166002900480156114c65780601f1061149b576101008083540402835291602001916114c6565b820191906000526020600020905b8154815290600101906020018083116114a957829003601f168201915b5050505050905090565b60006115936114dd612351565b8461158e8560405180606001604052806025815260200161353f6025913960016000611507612351565b73ffffffffffffffffffffffffffffffffffffffff1673ffffffffffffffffffffffffffffffffffffffff16815260200190815260200160002060008a73ffffffffffffffffffffffffffffffffffffffff1673ffffffffffffffffffffffffffffffffffffffff168152602001908152602001600020546128119092919063ffffffff16565b612359565b6001905092915050565b600960009054906101000a900473ffffffffffffffffffffffffffffffffffffffff1681565b60006115d76115d0612351565b8484612550565b6001905092915050565b6000611740600960009054906101000a900473ffffffffffffffffffffffffffffffffffffffff1673ffffffffffffffffffffffffffffffffffffffff1663722713f76040518163ffffffff1660e01b815260040160206040518083038186803b15801561164e57600080fd5b505afa158015611662573d6000803e3d6000fd5b505050506040513d602081101561167857600080fd5b8101908080519060200190929190505050611691610970565b73ffffffffffffffffffffffffffffffffffffffff166370a08231306040518263ffffffff1660e01b8152600401808273ffffffffffffffffffffffffffffffffffffffff16815260200191505060206040518083038186803b1580156116f757600080fd5b505afa15801561170b573d6000803e3d6000fd5b505050506040513d602081101561172157600080fd5b8101908080519060200190929190505050612c2190919063ffffffff16565b905090565b600260065414156117be576040517f08c379a000000000000000000000000000000000000000000000000000000000815260040180806020018281038252601f8152602001807f5265656e7472616e637947756172643a207265656e7472616e742063616c6c0081525060200191505060405180910390fd5b6002600681905550600960009054906101000a900473ffffffffffffffffffffffffffffffffffffffff1673ffffffffffffffffffffffffffffffffffffffff1663573fef0a6040518163ffffffff1660e01b8152600401600060405180830381600087803b15801561183057600080fd5b505af1158015611844573d6000803e3d6000fd5b5050505060006118526115e1565b9050611888333084611862610970565b73ffffffffffffffffffffffffffffffffffffffff16612d4b909392919063ffffffff16565b611890611911565b600061189a6115e1565b90506118af8282612b9e90919063ffffffff16565b92506000806118bc610966565b14156118ca578390506118f9565b6118f6836118e86118d9610966565b876128cb90919063ffffffff16565b61295190919063ffffffff16565b90505b6119033382612e0c565b505050600160068190555050565b600061191b610e74565b9050611971600960009054906101000a900473ffffffffffffffffffffffffffffffffffffffff168261194c610970565b73ffffffffffffffffffffffffffffffffffffffff16612ca99092919063ffffffff16565b600960009054906101000a900473ffffffffffffffffffffffffffffffffffffffff1673ffffffffffffffffffffffffffffffffffffffff1663d0e30db06040518163ffffffff1660e01b8152600401600060405180830381600087803b1580156119db57600080fd5b505af11580156119ef573d6000803e3d6000fd5b5050505050565b6000600160008473ffffffffffffffffffffffffffffffffffffffff1673ffffffffffffffffffffffffffffffffffffffff16815260200190815260200160002060008373ffffffffffffffffffffffffffffffffffffffff1673ffffffffffffffffffffffffffffffffffffffff16815260200190815260200160002054905092915050565b611b2e611a88610970565b73ffffffffffffffffffffffffffffffffffffffff166370a08231336040518263ffffffff1660e01b8152600401808273ffffffffffffffffffffffffffffffffffffffff16815260200191505060206040518083038186803b158015611aee57600080fd5b505afa158015611b02573d6000803e3d6000fd5b505050506040513d6020811015611b1857600080fd5b8101908080519060200190929190505050611745565b565b611b38612351565b73ffffffffffffffffffffffffffffffffffffffff16611b56611404565b73ffffffffffffffffffffffffffffffffffffffff1614611bdf576040517f08c379a00000000000000000000000000000000000000000000000000000000081526004018080602001828103825260208152602001807f4f776e61626c653a2063616c6c6572206973206e6f7420746865206f776e657281525060200191505060405180910390fd5b611be7610970565b73ffffffffffffffffffffffffffffffffffffffff168173ffffffffffffffffffffffffffffffffffffffff161415611c88576040517f08c379a00000000000000000000000000000000000000000000000000000000081526004018080602001828103825260068152602001807f21746f6b656e000000000000000000000000000000000000000000000000000081525060200191505060405180910390fd5b60008173ffffffffffffffffffffffffffffffffffffffff166370a08231306040518263ffffffff1660e01b8152600401808273ffffffffffffffffffffffffffffffffffffffff16815260200191505060206040518083038186803b158015611cf157600080fd5b505afa158015611d05573d6000803e3d6000fd5b505050506040513d6020811015611d1b57600080fd5b81019080805190602001909291905050509050611d5933828473ffffffffffffffffffffffffffffffffffffffff16612ca99092919063ffffffff16565b5050565b7f000000000000000000000000000000000000000000000000000000000000000081565b611d89612351565b73ffffffffffffffffffffffffffffffffffffffff16611da7611404565b73ffffffffffffffffffffffffffffffffffffffff1614611e30576040517f08c379a00000000000000000000000000000000000000000000000000000000081526004018080602001828103825260208152602001807f4f776e61626c653a2063616c6c6572206973206e6f7420746865206f776e657281525060200191505060405180910390fd5b600073ffffffffffffffffffffffffffffffffffffffff16600760000160009054906101000a900473ffffffffffffffffffffffffffffffffffffffff1673ffffffffffffffffffffffffffffffffffffffff161415611ef8576040517f08c379a00000000000000000000000000000000000000000000000000000000081526004018080602001828103825260158152602001807f5468657265206973206e6f2063616e646964617465000000000000000000000081525060200191505060405180910390fd5b42611f317f0000000000000000000000000000000000000000000000000000000000000000600760010154612c2190919063ffffffff16565b10611fa4576040517f08c379a00000000000000000000000000000000000000000000000000000000081526004018080602001828103825260148152602001807f44656c617920686173206e6f742070617373656400000000000000000000000081525060200191505060405180910390fd5b7f7f37d440e85aba7fbf641c4bda5ca4ef669a80bffaacde2aa8d9feb1b048c82c600760000160009054906101000a900473ffffffffffffffffffffffffffffffffffffffff16604051808273ffffffffffffffffffffffffffffffffffffffff16815260200191505060405180910390a1600960009054906101000a900473ffffffffffffffffffffffffffffffffffffffff1673ffffffffffffffffffffffffffffffffffffffff1663fb6177876040518163ffffffff1660e01b8152600401600060405180830381600087803b15801561208057600080fd5b505af1158015612094573d6000803e3d6000fd5b50505050600760000160009054906101000a900473ffffffffffffffffffffffffffffffffffffffff16600960006101000a81548173ffffffffffffffffffffffffffffffffffffffff021916908373ffffffffffffffffffffffffffffffffffffffff1602179055506000600760000160006101000a81548173ffffffffffffffffffffffffffffffffffffffff021916908373ffffffffffffffffffffffffffffffffffffffff16021790555064012a05f20060076001018190555061215a611911565b565b612164612351565b73ffffffffffffffffffffffffffffffffffffffff16612182611404565b73ffffffffffffffffffffffffffffffffffffffff161461220b576040517f08c379a00000000000000000000000000000000000000000000000000000000081526004018080602001828103825260208152602001807f4f776e61626c653a2063616c6c6572206973206e6f7420746865206f776e657281525060200191505060405180910390fd5b600073ffffffffffffffffffffffffffffffffffffffff168173ffffffffffffffffffffffffffffffffffffffff161415612291576040517f08c379a00000000000000000000000000000000000000000000000000000000081526004018080602001828103825260268152602001806133ad6026913960400191505060405180910390fd5b8073ffffffffffffffffffffffffffffffffffffffff16600560019054906101000a900473ffffffffffffffffffffffffffffffffffffffff1673ffffffffffffffffffffffffffffffffffffffff167f8be0079c531659141344cd1fd0a4f28419497f9722a3daafe3b4186f6b6457e060405160405180910390a380600560016101000a81548173ffffffffffffffffffffffffffffffffffffffff021916908373ffffffffffffffffffffffffffffffffffffffff16021790555050565b600033905090565b600073ffffffffffffffffffffffffffffffffffffffff168373ffffffffffffffffffffffffffffffffffffffff1614156123df576040517f08c379a00000000000000000000000000000000000000000000000000000000081526004018080602001828103825260248152602001806134f16024913960400191505060405180910390fd5b600073ffffffffffffffffffffffffffffffffffffffff168273ffffffffffffffffffffffffffffffffffffffff161415612465576040517f08c379a00000000000000000000000000000000000000000000000000000000081526004018080602001828103825260228152602001806133d36022913960400191505060405180910390fd5b80600160008573ffffffffffffffffffffffffffffffffffffffff1673ffffffffffffffffffffffffffffffffffffffff16815260200190815260200160002060008473ffffffffffffffffffffffffffffffffffffffff1673ffffffffffffffffffffffffffffffffffffffff168152602001908152602001600020819055508173ffffffffffffffffffffffffffffffffffffffff168373ffffffffffffffffffffffffffffffffffffffff167f8c5be1e5ebec7d5bd14f71427d1e84f3dd0314c0f7b2291e5b200ac8c7c3b925836040518082815260200191505060405180910390a3505050565b600073ffffffffffffffffffffffffffffffffffffffff168373ffffffffffffffffffffffffffffffffffffffff1614156125d6576040517f08c379a00000000000000000000000000000000000000000000000000000000081526004018080602001828103825260258152602001806134cc6025913960400191505060405180910390fd5b600073ffffffffffffffffffffffffffffffffffffffff168273ffffffffffffffffffffffffffffffffffffffff16141561265c576040517f08c379a00000000000000000000000000000000000000000000000000000000081526004018080602001828103825260238152602001806133686023913960400191505060405180910390fd5b612667838383612fd3565b6126d2816040518060600160405280602681526020016133f5602691396000808773ffffffffffffffffffffffffffffffffffffffff1673ffffffffffffffffffffffffffffffffffffffff168152602001908152602001600020546128119092919063ffffffff16565b6000808573ffffffffffffffffffffffffffffffffffffffff1673ffffffffffffffffffffffffffffffffffffffff16815260200190815260200160002081905550612765816000808573ffffffffffffffffffffffffffffffffffffffff1673ffffffffffffffffffffffffffffffffffffffff16815260200190815260200160002054612c2190919063ffffffff16565b6000808473ffffffffffffffffffffffffffffffffffffffff1673ffffffffffffffffffffffffffffffffffffffff168152602001908152602001600020819055508173ffffffffffffffffffffffffffffffffffffffff168373ffffffffffffffffffffffffffffffffffffffff167fddf252ad1be2c89b69c2b068fc378daa952ba7f163c4a11628f55a4df523b3ef836040518082815260200191505060405180910390a3505050565b60008383111582906128be576040517f08c379a00000000000000000000000000000000000000000000000000000000081526004018080602001828103825283818151815260200191508051906020019080838360005b83811015612883578082015181840152602081019050612868565b50505050905090810190601f1680156128b05780820380516001836020036101000a031916815260200191505b509250505060405180910390fd5b5082840390509392505050565b6000808314156128de576000905061294b565b60008284029050828482816128ef57fe5b0414612946576040517f08c379a00000000000000000000000000000000000000000000000000000000081526004018080602001828103825260218152602001806134626021913960400191505060405180910390fd5b809150505b92915050565b60008082116129c8576040517f08c379a000000000000000000000000000000000000000000000000000000000815260040180806020018281038252601a8152602001807f536166654d6174683a206469766973696f6e206279207a65726f00000000000081525060200191505060405180910390fd5b8183816129d157fe5b04905092915050565b600073ffffffffffffffffffffffffffffffffffffffff168273ffffffffffffffffffffffffffffffffffffffff161415612a60576040517f08c379a00000000000000000000000000000000000000000000000000000000081526004018080602001828103825260218152602001806134ab6021913960400191505060405180910390fd5b612a6c82600083612fd3565b612ad78160405180606001604052806022815260200161338b602291396000808673ffffffffffffffffffffffffffffffffffffffff1673ffffffffffffffffffffffffffffffffffffffff168152602001908152602001600020546128119092919063ffffffff16565b6000808473ffffffffffffffffffffffffffffffffffffffff1673ffffffffffffffffffffffffffffffffffffffff16815260200190815260200160002081905550612b2e81600254612b9e90919063ffffffff16565b600281905550600073ffffffffffffffffffffffffffffffffffffffff168273ffffffffffffffffffffffffffffffffffffffff167fddf252ad1be2c89b69c2b068fc378daa952ba7f163c4a11628f55a4df523b3ef836040518082815260200191505060405180910390a35050565b600082821115612c16576040517f08c379a000000000000000000000000000000000000000000000000000000000815260040180806020018281038252601e8152602001807f536166654d6174683a207375627472616374696f6e206f766572666c6f77000081525060200191505060405180910390fd5b818303905092915050565b600080828401905083811015612c9f576040517f08c379a000000000000000000000000000000000000000000000000000000000815260040180806020018281038252601b8152602001807f536166654d6174683a206164646974696f6e206f766572666c6f77000000000081525060200191505060405180910390fd5b8091505092915050565b612d468363a9059cbb60e01b8484604051602401808373ffffffffffffffffffffffffffffffffffffffff16815260200182815260200192505050604051602081830303815290604052907bffffffffffffffffffffffffffffffffffffffffffffffffffffffff19166020820180517bffffffffffffffffffffffffffffffffffffffffffffffffffffffff8381831617835250505050612fd8565b505050565b612e06846323b872dd60e01b858585604051602401808473ffffffffffffffffffffffffffffffffffffffff1681526020018373ffffffffffffffffffffffffffffffffffffffff1681526020018281526020019350505050604051602081830303815290604052907bffffffffffffffffffffffffffffffffffffffffffffffffffffffff19166020820180517bffffffffffffffffffffffffffffffffffffffffffffffffffffffff8381831617835250505050612fd8565b50505050565b600073ffffffffffffffffffffffffffffffffffffffff168273ffffffffffffffffffffffffffffffffffffffff161415612eaf576040517f08c379a000000000000000000000000000000000000000000000000000000000815260040180806020018281038252601f8152602001807f45524332303a206d696e7420746f20746865207a65726f20616464726573730081525060200191505060405180910390fd5b612ebb60008383612fd3565b612ed081600254612c2190919063ffffffff16565b600281905550612f27816000808573ffffffffffffffffffffffffffffffffffffffff1673ffffffffffffffffffffffffffffffffffffffff16815260200190815260200160002054612c2190919063ffffffff16565b6000808473ffffffffffffffffffffffffffffffffffffffff1673ffffffffffffffffffffffffffffffffffffffff168152602001908152602001600020819055508173ffffffffffffffffffffffffffffffffffffffff16600073ffffffffffffffffffffffffffffffffffffffff167fddf252ad1be2c89b69c2b068fc378daa952ba7f163c4a11628f55a4df523b3ef836040518082815260200191505060405180910390a35050565b505050565b606061303a826040518060400160405280602081526020017f5361666545524332303a206c6f772d6c6576656c2063616c6c206661696c65648152508573ffffffffffffffffffffffffffffffffffffffff166130c79092919063ffffffff16565b90506000815111156130c25780806020019051602081101561305b57600080fd5b81019080805190602001909291905050506130c1576040517f08c379a000000000000000000000000000000000000000000000000000000000815260040180806020018281038252602a815260200180613515602a913960400191505060405180910390fd5b5b505050565b60606130d684846000856130df565b90509392505050565b60608247101561313a576040517f08c379a000000000000000000000000000000000000000000000000000000000815260040180806020018281038252602681526020018061341b6026913960400191505060405180910390fd5b61314385613288565b6131b5576040517f08c379a000000000000000000000000000000000000000000000000000000000815260040180806020018281038252601d8152602001807f416464726573733a2063616c6c20746f206e6f6e2d636f6e747261637400000081525060200191505060405180910390fd5b600060608673ffffffffffffffffffffffffffffffffffffffff1685876040518082805190602001908083835b6020831061320557805182526020820191506020810190506020830392506131e2565b6001836020036101000a03801982511681845116808217855250505050505090500191505060006040518083038185875af1925050503d8060008114613267576040519150601f19603f3d011682016040523d82523d6000602084013e61326c565b606091505b509150915061327c82828661329b565b92505050949350505050565b600080823b905060008111915050919050565b606083156132ab57829050613360565b6000835111156132be5782518084602001fd5b816040517f08c379a00000000000000000000000000000000000000000000000000000000081526004018080602001828103825283818151815260200191508051906020019080838360005b8381101561332557808201518184015260208101905061330a565b50505050905090810190601f1680156133525780820380516001836020036101000a031916815260200191505b509250505060405180910390fd5b939250505056fe45524332303a207472616e7366657220746f20746865207a65726f206164647265737345524332303a206275726e20616d6f756e7420657863656564732062616c616e63654f776e61626c653a206e6577206f776e657220697320746865207a65726f206164647265737345524332303a20617070726f766520746f20746865207a65726f206164647265737345524332303a207472616e7366657220616d6f756e7420657863656564732062616c616e6365416464726573733a20696e73756666696369656e742062616c616e636520666f722063616c6c50726f706f73616c206e6f742076616c696420666f722074686973205661756c74536166654d6174683a206d756c7469706c69636174696f6e206f766572666c6f7745524332303a207472616e7366657220616d6f756e74206578636565647320616c6c6f77616e636545524332303a206275726e2066726f6d20746865207a65726f206164647265737345524332303a207472616e736665722066726f6d20746865207a65726f206164647265737345524332303a20617070726f76652066726f6d20746865207a65726f20616464726573735361666545524332303a204552433230206f7065726174696f6e20646964206e6f74207375636365656445524332303a2064656372656173656420616c6c6f77616e63652062656c6f77207a65726fa26469706673582212209047b8088b0403a9411e211ab406eddbe454c9cec0b9a4f8abd7117a4163410464736f6c634300060c0033",
  "immutableReferences": {
    "1084": [
      {
        "length": 32,
        "start": 7519
      },
      {
        "length": 32,
        "start": 7934
      }
    ]
  },
  "source": "pragma solidity ^0.6.12;\r\n\r\nimport \"@openzeppelin/contracts/token/ERC20/ERC20.sol\";\r\nimport \"@openzeppelin/contracts/token/ERC20/SafeERC20.sol\";\r\nimport \"@openzeppelin/contracts/math/SafeMath.sol\";\r\nimport \"@openzeppelin/contracts/access/Ownable.sol\";\r\nimport \"@openzeppelin/contracts/utils/ReentrancyGuard.sol\";\r\n\r\nimport \"../../interfaces/beefy/IStrategy.sol\";\r\n\r\n/**\r\n * @dev Implementation of a vault to deposit funds for yield optimizing.\r\n * This is the contract that receives funds and that users interface with.\r\n * The yield optimizing strategy itself is implemented in a separate 'Strategy.sol' contract.\r\n */\r\ncontract BeefyVaultV6 is ERC20, Ownable, ReentrancyGuard {\r\n    using SafeERC20 for IERC20;\r\n    using SafeMath for uint256;\r\n\r\n    struct StratCandidate {\r\n        address implementation;\r\n        uint proposedTime;\r\n    }\r\n\r\n    // The last proposed strategy to switch to.\r\n    StratCandidate public stratCandidate;\r\n    // The strategy currently in use by the vault.\r\n    IStrategy public strategy;\r\n    // The minimum time it has to pass before a strat candidate can be approved.\r\n    uint256 public immutable approvalDelay;\r\n\r\n    event NewStratCandidate(address implementation);\r\n    event UpgradeStrat(address implementation);\r\n\r\n    /**\r\n     * @dev Sets the value of {token} to the token that the vault will\r\n     * hold as underlying value. It initializes the vault's own 'moo' token.\r\n     * This token is minted when someone does a deposit. It is burned in order\r\n     * to withdraw the corresponding portion of the underlying assets.\r\n     * @param _strategy the address of the strategy.\r\n     * @param _name the name of the vault token.\r\n     * @param _symbol the symbol of the vault token.\r\n     * @param _approvalDelay the delay before a new strat can be approved.\r\n     */\r\n    constructor (\r\n        IStrategy _strategy,\r\n        string memory _name,\r\n        string memory _symbol,\r\n        uint256 _approvalDelay\r\n    ) public ERC20(\r\n        _name,\r\n        _symbol\r\n    ) {\r\n        strategy = _strategy;\r\n        approvalDelay = _approvalDelay;\r\n    }\r\n\r\n    function want() public view returns (IERC20) {\r\n        return IERC20(strategy.want());\r\n    }\r\n\r\n    /**\r\n     * @dev It calculates the total underlying value of {token} held by the system.\r\n     * It takes into account the vault contract balance, the strategy contract balance\r\n     *  and the balance deployed in other contracts as part of the strategy.\r\n     */\r\n    function balance() public view returns (uint) {\r\n        return want().balanceOf(address(this)).add(IStrategy(strategy).balanceOf());\r\n    }\r\n\r\n    /**\r\n     * @dev Custom logic in here for how much the vault allows to be borrowed.\r\n     * We return 100% of tokens for now. Under certain conditions we might\r\n     * want to keep some of the system funds at hand in the vault, instead\r\n     * of putting them to work.\r\n     */\r\n    function available() public view returns (uint256) {\r\n        return want().balanceOf(address(this));\r\n    }\r\n\r\n    /**\r\n     * @dev Function for various UIs to display the current value of one of our yield tokens.\r\n     * Returns an uint256 with 18 decimals of how much underlying asset one vault share represents.\r\n     */\r\n    function getPricePerFullShare() public view returns (uint256) {\r\n        return totalSupply() == 0 ? 1e18 : balance().mul(1e18).div(totalSupply());\r\n    }\r\n\r\n    /**\r\n     * @dev A helper function to call deposit() with all the sender's funds.\r\n     */\r\n    function depositAll() external {\r\n        deposit(want().balanceOf(msg.sender));\r\n    }\r\n\r\n    /**\r\n     * @dev The entrypoint of funds into the system. People deposit with this function\r\n     * into the vault. The vault is then in charge of sending funds into the strategy.\r\n     */\r\n    function deposit(uint _amount) public nonReentrant {\r\n        strategy.beforeDeposit();\r\n\r\n        uint256 _pool = balance();\r\n        want().safeTransferFrom(msg.sender, address(this), _amount);\r\n        earn();\r\n        uint256 _after = balance();\r\n        _amount = _after.sub(_pool); // Additional check for deflationary tokens\r\n        uint256 shares = 0;\r\n        if (totalSupply() == 0) {\r\n            shares = _amount;\r\n        } else {\r\n            shares = (_amount.mul(totalSupply())).div(_pool);\r\n        }\r\n        _mint(msg.sender, shares);\r\n    }\r\n\r\n    /**\r\n     * @dev Function to send funds into the strategy and put them to work. It's primarily called\r\n     * by the vault's deposit() function.\r\n     */\r\n    function earn() public {\r\n        uint _bal = available();\r\n        want().safeTransfer(address(strategy), _bal);\r\n        strategy.deposit();\r\n    }\r\n\r\n    /**\r\n     * @dev A helper function to call withdraw() with all the sender's funds.\r\n     */\r\n    function withdrawAll() external {\r\n        withdraw(balanceOf(msg.sender));\r\n    }\r\n\r\n    /**\r\n     * @dev Function to exit the system. The vault will withdraw the required tokens\r\n     * from the strategy and pay up the token holder. A proportional number of IOU\r\n     * tokens are burned in the process.\r\n     */\r\n    function withdraw(uint256 _shares) public {\r\n        uint256 r = (balance().mul(_shares)).div(totalSupply());\r\n        _burn(msg.sender, _shares);\r\n\r\n        uint b = want().balanceOf(address(this));\r\n        if (b < r) {\r\n            uint _withdraw = r.sub(b);\r\n            strategy.withdraw(_withdraw);\r\n            uint _after = want().balanceOf(address(this));\r\n            uint _diff = _after.sub(b);\r\n            if (_diff < _withdraw) {\r\n                r = b.add(_diff);\r\n            }\r\n        }\r\n\r\n        want().safeTransfer(msg.sender, r);\r\n    }\r\n\r\n    /** \r\n     * @dev Sets the candidate for the new strat to use with this vault.\r\n     * @param _implementation The address of the candidate strategy.  \r\n     */\r\n    function proposeStrat(address _implementation) public onlyOwner {\r\n        require(address(this) == IStrategy(_implementation).vault(), \"Proposal not valid for this Vault\");\r\n        stratCandidate = StratCandidate({\r\n            implementation: _implementation,\r\n            proposedTime: block.timestamp\r\n         });\r\n\r\n        emit NewStratCandidate(_implementation);\r\n    }\r\n\r\n    /** \r\n     * @dev It switches the active strat for the strat candidate. After upgrading, the \r\n     * candidate implementation is set to the 0x00 address, and proposedTime to a time \r\n     * happening in +100 years for safety. \r\n     */\r\n\r\n    function upgradeStrat() public onlyOwner {\r\n        require(stratCandidate.implementation != address(0), \"There is no candidate\");\r\n        require(stratCandidate.proposedTime.add(approvalDelay) < block.timestamp, \"Delay has not passed\");\r\n\r\n        emit UpgradeStrat(stratCandidate.implementation);\r\n\r\n        strategy.retireStrat();\r\n        strategy = IStrategy(stratCandidate.implementation);\r\n        stratCandidate.implementation = address(0);\r\n        stratCandidate.proposedTime = 5000000000;\r\n\r\n        earn();\r\n    }\r\n\r\n    /**\r\n     * @dev Rescues random funds stuck that the strat can't handle.\r\n     * @param _token address of the token to rescue.\r\n     */\r\n    function inCaseTokensGetStuck(address _token) external onlyOwner {\r\n        require(_token != address(want()), \"!token\");\r\n\r\n        uint256 amount = IERC20(_token).balanceOf(address(this));\r\n        IERC20(_token).safeTransfer(msg.sender, amount);\r\n    }\r\n}",
  "sourcePath": "I:/13-GithubWork/Vaults-Protocol/contracts/pools/MASK-BNB/BeefyVaultV6.sol",
  "compiler": {
    "name": "solc",
    "version": "0.6.12+commit.27d51765.Emscripten.clang"
  },
  "schemaVersion": "3.4.1",
  "updatedAt": "2021-07-18T13:57:43.262Z",
  "devdoc": {
    "details": "Implementation of a vault to deposit funds for yield optimizing. This is the contract that receives funds and that users interface with. The yield optimizing strategy itself is implemented in a separate 'Strategy.sol' contract.",
    "kind": "dev",
    "methods": {
      "allowance(address,address)": {
        "details": "See {IERC20-allowance}."
      },
      "approve(address,uint256)": {
        "details": "See {IERC20-approve}. Requirements: - `spender` cannot be the zero address."
      },
      "available()": {
        "details": "Custom logic in here for how much the vault allows to be borrowed. We return 100% of tokens for now. Under certain conditions we might want to keep some of the system funds at hand in the vault, instead of putting them to work."
      },
      "balance()": {
        "details": "It calculates the total underlying value of {token} held by the system. It takes into account the vault contract balance, the strategy contract balance  and the balance deployed in other contracts as part of the strategy."
      },
      "balanceOf(address)": {
        "details": "See {IERC20-balanceOf}."
      },
      "constructor": {
        "details": "Sets the value of {token} to the token that the vault will hold as underlying value. It initializes the vault's own 'moo' token. This token is minted when someone does a deposit. It is burned in order to withdraw the corresponding portion of the underlying assets.",
        "params": {
          "_approvalDelay": "the delay before a new strat can be approved.",
          "_name": "the name of the vault token.",
          "_strategy": "the address of the strategy.",
          "_symbol": "the symbol of the vault token."
        }
      },
      "decimals()": {
        "details": "Returns the number of decimals used to get its user representation. For example, if `decimals` equals `2`, a balance of `505` tokens should be displayed to a user as `5,05` (`505 / 10 ** 2`). Tokens usually opt for a value of 18, imitating the relationship between Ether and Wei. This is the value {ERC20} uses, unless {_setupDecimals} is called. NOTE: This information is only used for _display_ purposes: it in no way affects any of the arithmetic of the contract, including {IERC20-balanceOf} and {IERC20-transfer}."
      },
      "decreaseAllowance(address,uint256)": {
        "details": "Atomically decreases the allowance granted to `spender` by the caller. This is an alternative to {approve} that can be used as a mitigation for problems described in {IERC20-approve}. Emits an {Approval} event indicating the updated allowance. Requirements: - `spender` cannot be the zero address. - `spender` must have allowance for the caller of at least `subtractedValue`."
      },
      "deposit(uint256)": {
        "details": "The entrypoint of funds into the system. People deposit with this function into the vault. The vault is then in charge of sending funds into the strategy."
      },
      "depositAll()": {
        "details": "A helper function to call deposit() with all the sender's funds."
      },
      "earn()": {
        "details": "Function to send funds into the strategy and put them to work. It's primarily called by the vault's deposit() function."
      },
      "getPricePerFullShare()": {
        "details": "Function for various UIs to display the current value of one of our yield tokens. Returns an uint256 with 18 decimals of how much underlying asset one vault share represents."
      },
      "inCaseTokensGetStuck(address)": {
        "details": "Rescues random funds stuck that the strat can't handle.",
        "params": {
          "_token": "address of the token to rescue."
        }
      },
      "increaseAllowance(address,uint256)": {
        "details": "Atomically increases the allowance granted to `spender` by the caller. This is an alternative to {approve} that can be used as a mitigation for problems described in {IERC20-approve}. Emits an {Approval} event indicating the updated allowance. Requirements: - `spender` cannot be the zero address."
      },
      "name()": {
        "details": "Returns the name of the token."
      },
      "owner()": {
        "details": "Returns the address of the current owner."
      },
      "proposeStrat(address)": {
        "details": "Sets the candidate for the new strat to use with this vault.",
        "params": {
          "_implementation": "The address of the candidate strategy.  "
        }
      },
      "renounceOwnership()": {
        "details": "Leaves the contract without owner. It will not be possible to call `onlyOwner` functions anymore. Can only be called by the current owner. NOTE: Renouncing ownership will leave the contract without an owner, thereby removing any functionality that is only available to the owner."
      },
      "symbol()": {
        "details": "Returns the symbol of the token, usually a shorter version of the name."
      },
      "totalSupply()": {
        "details": "See {IERC20-totalSupply}."
      },
      "transfer(address,uint256)": {
        "details": "See {IERC20-transfer}. Requirements: - `recipient` cannot be the zero address. - the caller must have a balance of at least `amount`."
      },
      "transferFrom(address,address,uint256)": {
        "details": "See {IERC20-transferFrom}. Emits an {Approval} event indicating the updated allowance. This is not required by the EIP. See the note at the beginning of {ERC20}. Requirements: - `sender` and `recipient` cannot be the zero address. - `sender` must have a balance of at least `amount`. - the caller must have allowance for ``sender``'s tokens of at least `amount`."
      },
      "transferOwnership(address)": {
        "details": "Transfers ownership of the contract to a new account (`newOwner`). Can only be called by the current owner."
      },
      "upgradeStrat()": {
        "details": "It switches the active strat for the strat candidate. After upgrading, the  candidate implementation is set to the 0x00 address, and proposedTime to a time  happening in +100 years for safety. "
      },
      "withdraw(uint256)": {
        "details": "Function to exit the system. The vault will withdraw the required tokens from the strategy and pay up the token holder. A proportional number of IOU tokens are burned in the process."
      },
      "withdrawAll()": {
        "details": "A helper function to call withdraw() with all the sender's funds."
      }
    },
    "version": 1
  },
  "userdoc": {
    "kind": "user",
    "methods": {},
    "version": 1
  }
}