{
  "contractName": "GasThrottler",
  "abi": [
    {
      "inputs": [],
      "name": "gasprice",
      "outputs": [
        {
          "internalType": "address",
          "name": "",
          "type": "address"
        }
      ],
      "stateMutability": "view",
      "type": "function"
    }
  ],
  "bytecode": "0x6080604052348015600f57600080fd5b5060ad8061001e6000396000f3fe6080604052348015600f57600080fd5b506004361060285760003560e01c80636ec232d314602d575b600080fd5b6033605f565b604051808273ffffffffffffffffffffffffffffffffffffffff16815260200191505060405180910390f35b7316cd932c494ac1b3452d6c8453fb7665ab49ec6b8156fea2646970667358221220be884679d1cb16869d95dd8408fab8b05689422f8f17fc2d0226da86c05423d864736f6c634300060c0033",
  "immutableReferences": {},
  "source": "pragma solidity ^0.6.12;\r\n\r\nimport \"./IGasPrice.sol\";\r\n\r\ncontract GasThrottler {\r\n\r\n    address constant public gasprice = address(0x16cD932c494Ac1B3452d6C8453fB7665aB49EC6b);\r\n\r\n    modifier gasThrottle() {\r\n        require(tx.gasprice <= IGasPrice(gasprice).maxGasPrice(), \"gas is too high!\");\r\n        _;\r\n    }\r\n}",
  "sourcePath": "I:/13-GithubWork/Vaults-Protocol/contracts/utils/GasThrottler.sol",
  "compiler": {
    "name": "solc",
    "version": "0.6.12+commit.27d51765.Emscripten.clang"
  },
  "schemaVersion": "3.4.1",
  "updatedAt": "2021-07-16T14:50:27.290Z",
  "devdoc": {
    "kind": "dev",
    "methods": {},
    "version": 1
  },
  "userdoc": {
    "kind": "user",
    "methods": {},
    "version": 1
  }
}