{
  "contractName": "StrategyCommonChefLP",
  "abi": [
    {
      "inputs": [
        {
          "internalType": "address",
          "name": "_want",
          "type": "address"
        },
        {
          "internalType": "uint256",
          "name": "_poolId",
          "type": "uint256"
        },
        {
          "internalType": "address",
          "name": "_chef",
          "type": "address"
        },
        {
          "internalType": "address",
          "name": "_vault",
          "type": "address"
        },
        {
          "internalType": "address",
          "name": "_unirouter",
          "type": "address"
        },
        {
          "internalType": "address",
          "name": "_keeper",
          "type": "address"
        },
        {
          "internalType": "address",
          "name": "_strategist",
          "type": "address"
        },
        {
          "internalType": "address",
          "name": "_plutusFeeRecipient",
          "type": "address"
        },
        {
          "internalType": "address[]",
          "name": "_toNativeRoute",
          "type": "address[]"
        },
        {
          "internalType": "address[]",
          "name": "_toLp0Route",
          "type": "address[]"
        },
        {
          "internalType": "address[]",
          "name": "_toLp1Route",
          "type": "address[]"
        }
      ],
      "stateMutability": "nonpayable",
      "type": "constructor"
    },
    {
      "anonymous": false,
      "inputs": [
        {
          "indexed": true,
          "internalType": "address",
          "name": "previousOwner",
          "type": "address"
        },
        {
          "indexed": true,
          "internalType": "address",
          "name": "newOwner",
          "type": "address"
        }
      ],
      "name": "OwnershipTransferred",
      "type": "event"
    },
    {
      "anonymous": false,
      "inputs": [
        {
          "indexed": false,
          "internalType": "address",
          "name": "account",
          "type": "address"
        }
      ],
      "name": "Paused",
      "type": "event"
    },
    {
      "anonymous": false,
      "inputs": [
        {
          "indexed": true,
          "internalType": "address",
          "name": "harvester",
          "type": "address"
        }
      ],
      "name": "StratHarvest",
      "type": "event"
    },
    {
      "anonymous": false,
      "inputs": [
        {
          "indexed": false,
          "internalType": "address",
          "name": "account",
          "type": "address"
        }
      ],
      "name": "Unpaused",
      "type": "event"
    },
    {
      "inputs": [],
      "name": "MAX_CALL_FEE",
      "outputs": [
        {
          "internalType": "uint256",
          "name": "",
          "type": "uint256"
        }
      ],
      "stateMutability": "view",
      "type": "function"
    },
    {
      "inputs": [],
      "name": "MAX_FEE",
      "outputs": [
        {
          "internalType": "uint256",
          "name": "",
          "type": "uint256"
        }
      ],
      "stateMutability": "view",
      "type": "function"
    },
    {
      "inputs": [],
      "name": "STRATEGIST_FEE",
      "outputs": [
        {
          "internalType": "uint256",
          "name": "",
          "type": "uint256"
        }
      ],
      "stateMutability": "view",
      "type": "function"
    },
    {
      "inputs": [],
      "name": "WITHDRAWAL_FEE_CAP",
      "outputs": [
        {
          "internalType": "uint256",
          "name": "",
          "type": "uint256"
        }
      ],
      "stateMutability": "view",
      "type": "function"
    },
    {
      "inputs": [],
      "name": "WITHDRAWAL_MAX",
      "outputs": [
        {
          "internalType": "uint256",
          "name": "",
          "type": "uint256"
        }
      ],
      "stateMutability": "view",
      "type": "function"
    },
    {
      "inputs": [],
      "name": "beforeDeposit",
      "outputs": [],
      "stateMutability": "nonpayable",
      "type": "function"
    },
    {
      "inputs": [],
      "name": "callFee",
      "outputs": [
        {
          "internalType": "uint256",
          "name": "",
          "type": "uint256"
        }
      ],
      "stateMutability": "view",
      "type": "function"
    },
    {
      "inputs": [],
      "name": "chef",
      "outputs": [
        {
          "internalType": "address",
          "name": "",
          "type": "address"
        }
      ],
      "stateMutability": "view",
      "type": "function"
    },
    {
      "inputs": [],
      "name": "isNativeRoutes",
      "outputs": [
        {
          "internalType": "bool",
          "name": "",
          "type": "bool"
        }
      ],
      "stateMutability": "view",
      "type": "function"
    },
    {
      "inputs": [],
      "name": "keeper",
      "outputs": [
        {
          "internalType": "address",
          "name": "",
          "type": "address"
        }
      ],
      "stateMutability": "view",
      "type": "function"
    },
    {
      "inputs": [],
      "name": "lpToken0",
      "outputs": [
        {
          "internalType": "address",
          "name": "",
          "type": "address"
        }
      ],
      "stateMutability": "view",
      "type": "function"
    },
    {
      "inputs": [],
      "name": "lpToken1",
      "outputs": [
        {
          "internalType": "address",
          "name": "",
          "type": "address"
        }
      ],
      "stateMutability": "view",
      "type": "function"
    },
    {
      "inputs": [],
      "name": "native",
      "outputs": [
        {
          "internalType": "address",
          "name": "",
          "type": "address"
        }
      ],
      "stateMutability": "view",
      "type": "function"
    },
    {
      "inputs": [],
      "name": "output",
      "outputs": [
        {
          "internalType": "address",
          "name": "",
          "type": "address"
        }
      ],
      "stateMutability": "view",
      "type": "function"
    },
    {
      "inputs": [],
      "name": "owner",
      "outputs": [
        {
          "internalType": "address",
          "name": "",
          "type": "address"
        }
      ],
      "stateMutability": "view",
      "type": "function"
    },
    {
      "inputs": [],
      "name": "paused",
      "outputs": [
        {
          "internalType": "bool",
          "name": "",
          "type": "bool"
        }
      ],
      "stateMutability": "view",
      "type": "function"
    },
    {
      "inputs": [],
      "name": "plutusFee",
      "outputs": [
        {
          "internalType": "uint256",
          "name": "",
          "type": "uint256"
        }
      ],
      "stateMutability": "view",
      "type": "function"
    },
    {
      "inputs": [],
      "name": "plutusFeeRecipient",
      "outputs": [
        {
          "internalType": "address",
          "name": "",
          "type": "address"
        }
      ],
      "stateMutability": "view",
      "type": "function"
    },
    {
      "inputs": [],
      "name": "poolId",
      "outputs": [
        {
          "internalType": "uint256",
          "name": "",
          "type": "uint256"
        }
      ],
      "stateMutability": "view",
      "type": "function"
    },
    {
      "inputs": [],
      "name": "renounceOwnership",
      "outputs": [],
      "stateMutability": "nonpayable",
      "type": "function"
    },
    {
      "inputs": [
        {
          "internalType": "uint256",
          "name": "_fee",
          "type": "uint256"
        }
      ],
      "name": "setCallFee",
      "outputs": [],
      "stateMutability": "nonpayable",
      "type": "function"
    },
    {
      "inputs": [
        {
          "internalType": "address",
          "name": "_keeper",
          "type": "address"
        }
      ],
      "name": "setKeeper",
      "outputs": [],
      "stateMutability": "nonpayable",
      "type": "function"
    },
    {
      "inputs": [
        {
          "internalType": "address",
          "name": "_plutusFeeRecipient",
          "type": "address"
        }
      ],
      "name": "setPlutusFeeRecipient",
      "outputs": [],
      "stateMutability": "nonpayable",
      "type": "function"
    },
    {
      "inputs": [
        {
          "internalType": "address",
          "name": "_strategist",
          "type": "address"
        }
      ],
      "name": "setStrategist",
      "outputs": [],
      "stateMutability": "nonpayable",
      "type": "function"
    },
    {
      "inputs": [
        {
          "internalType": "address",
          "name": "_unirouter",
          "type": "address"
        }
      ],
      "name": "setUnirouter",
      "outputs": [],
      "stateMutability": "nonpayable",
      "type": "function"
    },
    {
      "inputs": [
        {
          "internalType": "address",
          "name": "_vault",
          "type": "address"
        }
      ],
      "name": "setVault",
      "outputs": [],
      "stateMutability": "nonpayable",
      "type": "function"
    },
    {
      "inputs": [
        {
          "internalType": "uint256",
          "name": "_fee",
          "type": "uint256"
        }
      ],
      "name": "setWithdrawalFee",
      "outputs": [],
      "stateMutability": "nonpayable",
      "type": "function"
    },
    {
      "inputs": [],
      "name": "strategist",
      "outputs": [
        {
          "internalType": "address",
          "name": "",
          "type": "address"
        }
      ],
      "stateMutability": "view",
      "type": "function"
    },
    {
      "inputs": [
        {
          "internalType": "uint256",
          "name": "",
          "type": "uint256"
        }
      ],
      "name": "toLp0Route",
      "outputs": [
        {
          "internalType": "address",
          "name": "",
          "type": "address"
        }
      ],
      "stateMutability": "view",
      "type": "function"
    },
    {
      "inputs": [
        {
          "internalType": "uint256",
          "name": "",
          "type": "uint256"
        }
      ],
      "name": "toLp1Route",
      "outputs": [
        {
          "internalType": "address",
          "name": "",
          "type": "address"
        }
      ],
      "stateMutability": "view",
      "type": "function"
    },
    {
      "inputs": [
        {
          "internalType": "uint256",
          "name": "",
          "type": "uint256"
        }
      ],
      "name": "toNativeRoute",
      "outputs": [
        {
          "internalType": "address",
          "name": "",
          "type": "address"
        }
      ],
      "stateMutability": "view",
      "type": "function"
    },
    {
      "inputs": [
        {
          "internalType": "address",
          "name": "newOwner",
          "type": "address"
        }
      ],
      "name": "transferOwnership",
      "outputs": [],
      "stateMutability": "nonpayable",
      "type": "function"
    },
    {
      "inputs": [],
      "name": "unirouter",
      "outputs": [
        {
          "internalType": "address",
          "name": "",
          "type": "address"
        }
      ],
      "stateMutability": "view",
      "type": "function"
    },
    {
      "inputs": [],
      "name": "vault",
      "outputs": [
        {
          "internalType": "address",
          "name": "",
          "type": "address"
        }
      ],
      "stateMutability": "view",
      "type": "function"
    },
    {
      "inputs": [],
      "name": "want",
      "outputs": [
        {
          "internalType": "address",
          "name": "",
          "type": "address"
        }
      ],
      "stateMutability": "view",
      "type": "function"
    },
    {
      "inputs": [],
      "name": "withdrawalFee",
      "outputs": [
        {
          "internalType": "uint256",
          "name": "",
          "type": "uint256"
        }
      ],
      "stateMutability": "view",
      "type": "function"
    },
    {
      "inputs": [],
      "name": "deposit",
      "outputs": [],
      "stateMutability": "nonpayable",
      "type": "function"
    },
    {
      "inputs": [
        {
          "internalType": "uint256",
          "name": "_amount",
          "type": "uint256"
        }
      ],
      "name": "withdraw",
      "outputs": [],
      "stateMutability": "nonpayable",
      "type": "function"
    },
    {
      "inputs": [],
      "name": "harvest",
      "outputs": [],
      "stateMutability": "nonpayable",
      "type": "function"
    },
    {
      "inputs": [],
      "name": "balanceOf",
      "outputs": [
        {
          "internalType": "uint256",
          "name": "",
          "type": "uint256"
        }
      ],
      "stateMutability": "view",
      "type": "function"
    },
    {
      "inputs": [],
      "name": "balanceOfWant",
      "outputs": [
        {
          "internalType": "uint256",
          "name": "",
          "type": "uint256"
        }
      ],
      "stateMutability": "view",
      "type": "function"
    },
    {
      "inputs": [],
      "name": "balanceOfPool",
      "outputs": [
        {
          "internalType": "uint256",
          "name": "",
          "type": "uint256"
        }
      ],
      "stateMutability": "view",
      "type": "function"
    },
    {
      "inputs": [],
      "name": "retireStrat",
      "outputs": [],
      "stateMutability": "nonpayable",
      "type": "function"
    },
    {
      "inputs": [],
      "name": "panic",
      "outputs": [],
      "stateMutability": "nonpayable",
      "type": "function"
    },
    {
      "inputs": [],
      "name": "pause",
      "outputs": [],
      "stateMutability": "nonpayable",
      "type": "function"
    },
    {
      "inputs": [],
      "name": "unpause",
      "outputs": [],
      "stateMutability": "nonpayable",
      "type": "function"
    },
    {
      "inputs": [],
      "name": "routeToNative",
      "outputs": [
        {
          "internalType": "address[]",
          "name": "",
          "type": "address[]"
        }
      ],
      "stateMutability": "view",
      "type": "function"
    },
    {
      "inputs": [],
      "name": "routeToLp0",
      "outputs": [
        {
          "internalType": "address[]",
          "name": "",
          "type": "address[]"
        }
      ],
      "stateMutability": "view",
      "type": "function"
    },
    {
      "inputs": [],
      "name": "routeToLp1",
      "outputs": [
        {
          "internalType": "address[]",
          "name": "",
          "type": "address[]"
        }
      ],
      "stateMutability": "view",
      "type": "function"
    }
  ],
  "bytecode": "0x610180604052600a600655606f60075560075460706103e803036008553480156200002957600080fd5b50604051620063683803806200636883398181016040526101608110156200005057600080fd5b81019080805190602001909291908051906020019092919080519060200190929190805190602001909291908051906020019092919080519060200190929190805190602001909291908051906020019092919080516040519392919084640100000000821115620000c157600080fd5b83820191506020820185811115620000d857600080fd5b8251866020820283011164010000000082111715620000f657600080fd5b8083526020830192505050908051906020019060200280838360005b838110156200012f57808201518184015260208101905062000112565b50505050905001604052602001805160405193929190846401000000008211156200015957600080fd5b838201915060208201858111156200017057600080fd5b82518660208202830111640100000000821117156200018e57600080fd5b8083526020830192505050908051906020019060200280838360005b83811015620001c7578082015181840152602081019050620001aa565b5050505090500160405260200180516040519392919084640100000000821115620001f157600080fd5b838201915060208201858111156200020857600080fd5b82518660208202830111640100000000821117156200022657600080fd5b8083526020830192505050908051906020019060200280838360005b838110156200025f57808201518184015260208101905062000242565b505050509050016040525050508585888a8760006200028362000af360201b60201c565b9050806000806101000a81548173ffffffffffffffffffffffffffffffffffffffff021916908373ffffffffffffffffffffffffffffffffffffffff1602179055508073ffffffffffffffffffffffffffffffffffffffff16600073ffffffffffffffffffffffffffffffffffffffff167f8be0079c531659141344cd1fd0a4f28419497f9722a3daafe3b4186f6b6457e060405160405180910390a35060008060146101000a81548160ff02191690831515021790555084600160006101000a81548173ffffffffffffffffffffffffffffffffffffffff021916908373ffffffffffffffffffffffffffffffffffffffff16021790555083600260006101000a81548173ffffffffffffffffffffffffffffffffffffffff021916908373ffffffffffffffffffffffffffffffffffffffff16021790555082600360006101000a81548173ffffffffffffffffffffffffffffffffffffffff021916908373ffffffffffffffffffffffffffffffffffffffff16021790555081600460006101000a81548173ffffffffffffffffffffffffffffffffffffffff021916908373ffffffffffffffffffffffffffffffffffffffff16021790555080600560006101000a81548173ffffffffffffffffffffffffffffffffffffffff021916908373ffffffffffffffffffffffffffffffffffffffff16021790555050505050508a73ffffffffffffffffffffffffffffffffffffffff1660c08173ffffffffffffffffffffffffffffffffffffffff1660601b815250508961014081815250508873ffffffffffffffffffffffffffffffffffffffff166101208173ffffffffffffffffffffffffffffffffffffffff1660601b815250506000836000815181106200050d57fe5b60200260200101519050600073ffffffffffffffffffffffffffffffffffffffff168173ffffffffffffffffffffffffffffffffffffffff161415620005bb576040517f08c379a00000000000000000000000000000000000000000000000000000000081526004018080602001828103825260078152602001807f216f75747075740000000000000000000000000000000000000000000000000081525060200191505060405180910390fd5b8073ffffffffffffffffffffffffffffffffffffffff1660a08173ffffffffffffffffffffffffffffffffffffffff1660601b815250506000846001865103815181106200060557fe5b60200260200101519050600073ffffffffffffffffffffffffffffffffffffffff168173ffffffffffffffffffffffffffffffffffffffff161415620006b3576040517f08c379a00000000000000000000000000000000000000000000000000000000081526004018080602001828103825260078152602001807f216e61746976650000000000000000000000000000000000000000000000000081525060200191505060405180910390fd5b8073ffffffffffffffffffffffffffffffffffffffff1660808173ffffffffffffffffffffffffffffffffffffffff1660601b8152505084600990805190602001906200070292919062001243565b5060008d73ffffffffffffffffffffffffffffffffffffffff16630dfe16816040518163ffffffff1660e01b815260040160206040518083038186803b1580156200074c57600080fd5b505afa15801562000761573d6000803e3d6000fd5b505050506040513d60208110156200077857600080fd5b81019080805190602001909291905050509050846001865103815181106200079c57fe5b602002602001015173ffffffffffffffffffffffffffffffffffffffff168173ffffffffffffffffffffffffffffffffffffffff161462000845576040517f08c379a00000000000000000000000000000000000000000000000000000000081526004018080602001828103825260078152602001807f21746f6b656e300000000000000000000000000000000000000000000000000081525060200191505060405180910390fd5b84600a90805190602001906200085d92919062001243565b508073ffffffffffffffffffffffffffffffffffffffff1660e08173ffffffffffffffffffffffffffffffffffffffff1660601b8152505060008e73ffffffffffffffffffffffffffffffffffffffff1663d21220a76040518163ffffffff1660e01b815260040160206040518083038186803b158015620008de57600080fd5b505afa158015620008f3573d6000803e3d6000fd5b505050506040513d60208110156200090a57600080fd5b81019080805190602001909291905050509050846001865103815181106200092e57fe5b602002602001015173ffffffffffffffffffffffffffffffffffffffff168173ffffffffffffffffffffffffffffffffffffffff1614620009d7576040517f08c379a00000000000000000000000000000000000000000000000000000000081526004018080602001828103825260078152602001807f21746f6b656e310000000000000000000000000000000000000000000000000081525060200191505060405180910390fd5b84600b9080519060200190620009ef92919062001243565b508073ffffffffffffffffffffffffffffffffffffffff166101008173ffffffffffffffffffffffffffffffffffffffff1660601b815250508273ffffffffffffffffffffffffffffffffffffffff168660008151811062000a4d57fe5b602002602001015173ffffffffffffffffffffffffffffffffffffffff1614801562000ab957508273ffffffffffffffffffffffffffffffffffffffff168560008151811062000a9957fe5b602002602001015173ffffffffffffffffffffffffffffffffffffffff16145b151561016081151560f81b8152505062000ade8f8e868e868662000afb60201b60201c565b5050505050505050505050505050506200130f565b600033905090565b62000b4d857fffffffffffffffffffffffffffffffffffffffffffffffffffffffffffffffff8873ffffffffffffffffffffffffffffffffffffffff1662000cb160201b62002def179092919060201c565b62000b9f837fffffffffffffffffffffffffffffffffffffffffffffffffffffffffffffffff8673ffffffffffffffffffffffffffffffffffffffff1662000cb160201b62002def179092919060201c565b62000bd28360008473ffffffffffffffffffffffffffffffffffffffff1662000cb160201b62002def179092919060201c565b62000c24837fffffffffffffffffffffffffffffffffffffffffffffffffffffffffffffffff8473ffffffffffffffffffffffffffffffffffffffff1662000cb160201b62002def179092919060201c565b62000c578360008373ffffffffffffffffffffffffffffffffffffffff1662000cb160201b62002def179092919060201c565b62000ca9837fffffffffffffffffffffffffffffffffffffffffffffffffffffffffffffffff8373ffffffffffffffffffffffffffffffffffffffff1662000cb160201b62002def179092919060201c565b505050505050565b600081148062000d83575060008373ffffffffffffffffffffffffffffffffffffffff1663dd62ed3e30856040518363ffffffff1660e01b8152600401808373ffffffffffffffffffffffffffffffffffffffff1681526020018273ffffffffffffffffffffffffffffffffffffffff1681526020019250505060206040518083038186803b15801562000d4457600080fd5b505afa15801562000d59573d6000803e3d6000fd5b505050506040513d602081101562000d7057600080fd5b8101908080519060200190929190505050145b62000dda576040517f08c379a0000000000000000000000000000000000000000000000000000000008152600401808060200182810382526036815260200180620063326036913960400191505060405180910390fd5b62000e7f8363095ea7b360e01b8484604051602401808373ffffffffffffffffffffffffffffffffffffffff16815260200182815260200192505050604051602081830303815290604052907bffffffffffffffffffffffffffffffffffffffffffffffffffffffff19166020820180517bffffffffffffffffffffffffffffffffffffffffffffffffffffffff838183161783525050505062000e8460201b60201c565b505050565b606062000eed826040518060400160405280602081526020017f5361666545524332303a206c6f772d6c6576656c2063616c6c206661696c65648152508573ffffffffffffffffffffffffffffffffffffffff1662000f7e60201b62002fb4179092919060201c565b905060008151111562000f795780806020019051602081101562000f1057600080fd5b810190808051906020019092919050505062000f78576040517f08c379a000000000000000000000000000000000000000000000000000000000815260040180806020018281038252602a81526020018062006308602a913960400191505060405180910390fd5b5b505050565b606062000f95848460008562000f9e60201b60201c565b90509392505050565b60608247101562000ffb576040517f08c379a0000000000000000000000000000000000000000000000000000000008152600401808060200182810382526026815260200180620062e26026913960400191505060405180910390fd5b6200100c856200115e60201b60201c565b6200107f576040517f08c379a000000000000000000000000000000000000000000000000000000000815260040180806020018281038252601d8152602001807f416464726573733a2063616c6c20746f206e6f6e2d636f6e747261637400000081525060200191505060405180910390fd5b600060608673ffffffffffffffffffffffffffffffffffffffff1685876040518082805190602001908083835b60208310620010d15780518252602082019150602081019050602083039250620010ac565b6001836020036101000a03801982511681845116808217855250505050505090500191505060006040518083038185875af1925050503d806000811462001135576040519150601f19603f3d011682016040523d82523d6000602084013e6200113a565b606091505b5091509150620011528282866200117160201b60201c565b92505050949350505050565b600080823b905060008111915050919050565b6060831562001183578290506200123c565b600083511115620011975782518084602001fd5b816040517f08c379a00000000000000000000000000000000000000000000000000000000081526004018080602001828103825283818151815260200191508051906020019080838360005b8381101562001200578082015181840152602081019050620011e3565b50505050905090810190601f1680156200122e5780820380516001836020036101000a031916815260200191505b509250505060405180910390fd5b9392505050565b828054828255906000526020600020908101928215620012bf579160200282015b82811115620012be5782518260006101000a81548173ffffffffffffffffffffffffffffffffffffffff021916908373ffffffffffffffffffffffffffffffffffffffff1602179055509160200191906001019062001264565b5b509050620012ce9190620012d2565b5090565b5b808211156200130b57600081816101000a81549073ffffffffffffffffffffffffffffffffffffffff021916905550600101620012d3565b5090565b60805160601c60a05160601c60c05160601c60e05160601c6101005160601c6101205160601c610140516101605160f81c614e7a620014686000398061181f5280612683525080610ca3528061120d52806114d552806117a75280611a4652806126085280612b68525080610c675280610e3a52806111d1528061176b5280611a0a52806125cc5280612b2c5280613318528061451052508061206a528061339e5280613a9a5280613d965280613eb9528061467d525080611b63528061337d528061384f5280613cd05280613e98528061460f525080610e165280611105528061129652806113d8528061148952806122b452806124ff5280612bd95280612c9d52806132f7528061453352508061188e528061279f528061333952806133c85280613fef52806145a1525080610d645280611858528061369352806142c85280614b1b5280614bb55280614c4e5250614e7a6000f3fe608060405234801561001057600080fd5b50600436106102bb5760003560e01c8063748747e611610182578063c1a3d44c116100e9578063f20eaeb8116100a2578063f4c832e01161007c578063f4c832e014610a7a578063fb61778714610ad9578063fb6aa4a814610ae3578063fbfa77cf14610b3b576102bb565b8063f20eaeb8146109ce578063f2fde38b14610a02578063f315ac2e14610a46576102bb565b8063c1a3d44c146108e0578063c7b9d530146108fe578063d0e30db014610942578063d6a29da21461094c578063d92f3d731461096c578063dfbdc437146109b0576102bb565b80638da5cb5b1161013b5780638da5cb5b146107b657806390321e1a146107ea578063abc728d314610808578063ac1e502514610860578063aced16611461088e578063bc063e1a146108c2576102bb565b8063748747e6146106da5780637d38ca651461071e5780638456cb591461073c578063877562b6146107465780638bc7e8c41461077a5780638ca23fad14610798576102bb565b80633f4ba83a11610226578063573fef0a116101df578063573fef0a146106105780635c975abb1461061a5780635ee167c01461063a5780636817031b1461066e578063715018a6146106b2578063722713f7146106bc576102bb565b80633f4ba83a1461051d57806343144d18146105275780634641257d1461057f5780634700d305146105895780634b86f7451461059357806354518b1a146105f2576102bb565b80631fe4a686116102785780631fe4a6861461041d578063257ae0de1461045157806326465826146104855780632ad5a53f146104b35780632e1a7d4d146104d15780633e0dc34e146104ff576102bb565b806310b487d6146102c0578063115880861461030457806311b0b42d146103225780631dca33e9146103565780631f1fcd51146103b55780631fc8bc5d146103e9575b600080fd5b610302600480360360208110156102d657600080fd5b81019080803573ffffffffffffffffffffffffffffffffffffffff169060200190929190505050610b6f565b005b61030c610c62565b6040518082815260200191505060405180910390f35b61032a610d62565b604051808273ffffffffffffffffffffffffffffffffffffffff16815260200191505060405180910390f35b61035e610d86565b6040518080602001828103825283818151815260200191508051906020019060200280838360005b838110156103a1578082015181840152602081019050610386565b505050509050019250505060405180910390f35b6103bd610e14565b604051808273ffffffffffffffffffffffffffffffffffffffff16815260200191505060405180910390f35b6103f1610e38565b604051808273ffffffffffffffffffffffffffffffffffffffff16815260200191505060405180910390f35b610425610e5c565b604051808273ffffffffffffffffffffffffffffffffffffffff16815260200191505060405180910390f35b610459610e82565b604051808273ffffffffffffffffffffffffffffffffffffffff16815260200191505060405180910390f35b6104b16004803603602081101561049b57600080fd5b8101908080359060200190929190505050610ea8565b005b6104bb611039565b6040518082815260200191505060405180910390f35b6104fd600480360360208110156104e757600080fd5b810190808035906020019092919050505061103e565b005b6105076114d3565b6040518082815260200191505060405180910390f35b6105256114f7565b005b6105536004803603602081101561053d57600080fd5b8101908080359060200190929190505050611611565b604051808273ffffffffffffffffffffffffffffffffffffffff16815260200191505060405180910390f35b61058761164d565b005b610591611900565b005b61059b611ab5565b6040518080602001828103825283818151815260200191508051906020019060200280838360005b838110156105de5780820151818401526020810190506105c3565b505050509050019250505060405180910390f35b6105fa611b43565b6040518082815260200191505060405180910390f35b610618611b49565b005b610622611b4b565b60405180821515815260200191505060405180910390f35b610642611b61565b604051808273ffffffffffffffffffffffffffffffffffffffff16815260200191505060405180910390f35b6106b06004803603602081101561068457600080fd5b81019080803573ffffffffffffffffffffffffffffffffffffffff169060200190929190505050611b85565b005b6106ba611c78565b005b6106c4611de5565b6040518082815260200191505060405180910390f35b61071c600480360360208110156106f057600080fd5b81019080803573ffffffffffffffffffffffffffffffffffffffff169060200190929190505050611e0d565b005b610726611f51565b6040518082815260200191505060405180910390f35b610744611f56565b005b61074e612068565b604051808273ffffffffffffffffffffffffffffffffffffffff16815260200191505060405180910390f35b61078261208c565b6040518082815260200191505060405180910390f35b6107a0612092565b6040518082815260200191505060405180910390f35b6107be612098565b604051808273ffffffffffffffffffffffffffffffffffffffff16815260200191505060405180910390f35b6107f26120c1565b6040518082815260200191505060405180910390f35b6108346004803603602081101561081e57600080fd5b81019080803590602001909291905050506120c7565b604051808273ffffffffffffffffffffffffffffffffffffffff16815260200191505060405180910390f35b61088c6004803603602081101561087657600080fd5b8101908080359060200190929190505050612103565b005b610896612284565b604051808273ffffffffffffffffffffffffffffffffffffffff16815260200191505060405180910390f35b6108ca6122aa565b6040518082815260200191505060405180910390f35b6108e86122b0565b6040518082815260200191505060405180910390f35b6109406004803603602081101561091457600080fd5b81019080803573ffffffffffffffffffffffffffffffffffffffff169060200190929190505050612379565b005b61094a612480565b005b610954612681565b60405180821515815260200191505060405180910390f35b6109ae6004803603602081101561098257600080fd5b81019080803573ffffffffffffffffffffffffffffffffffffffff1690602001909291905050506126a5565b005b6109b8612798565b6040518082815260200191505060405180910390f35b6109d661279d565b604051808273ffffffffffffffffffffffffffffffffffffffff16815260200191505060405180910390f35b610a4460048036036020811015610a1857600080fd5b81019080803573ffffffffffffffffffffffffffffffffffffffff1690602001909291905050506127c1565b005b610a4e6129b3565b604051808273ffffffffffffffffffffffffffffffffffffffff16815260200191505060405180910390f35b610a826129d9565b6040518080602001828103825283818151815260200191508051906020019060200280838360005b83811015610ac5578082015181840152602081019050610aaa565b505050509050019250505060405180910390f35b610ae1612a67565b005b610b0f60048036036020811015610af957600080fd5b8101908080359060200190929190505050612d8d565b604051808273ffffffffffffffffffffffffffffffffffffffff16815260200191505060405180910390f35b610b43612dc9565b604051808273ffffffffffffffffffffffffffffffffffffffff16815260200191505060405180910390f35b610b77612fcc565b73ffffffffffffffffffffffffffffffffffffffff16610b95612098565b73ffffffffffffffffffffffffffffffffffffffff1614610c1e576040517f08c379a00000000000000000000000000000000000000000000000000000000081526004018080602001828103825260208152602001807f4f776e61626c653a2063616c6c6572206973206e6f7420746865206f776e657281525060200191505060405180910390fd5b80600560006101000a81548173ffffffffffffffffffffffffffffffffffffffff021916908373ffffffffffffffffffffffffffffffffffffffff16021790555050565b6000807f000000000000000000000000000000000000000000000000000000000000000073ffffffffffffffffffffffffffffffffffffffff166393f1a40b7f0000000000000000000000000000000000000000000000000000000000000000306040518363ffffffff1660e01b8152600401808381526020018273ffffffffffffffffffffffffffffffffffffffff16815260200192505050604080518083038186803b158015610d1357600080fd5b505afa158015610d27573d6000803e3d6000fd5b505050506040513d6040811015610d3d57600080fd5b8101908080519060200190929190805190602001909291905050505090508091505090565b7f000000000000000000000000000000000000000000000000000000000000000081565b60606009805480602002602001604051908101604052809291908181526020018280548015610e0a57602002820191906000526020600020905b8160009054906101000a900473ffffffffffffffffffffffffffffffffffffffff1673ffffffffffffffffffffffffffffffffffffffff1681526020019060010190808311610dc0575b5050505050905090565b7f000000000000000000000000000000000000000000000000000000000000000081565b7f000000000000000000000000000000000000000000000000000000000000000081565b600260009054906101000a900473ffffffffffffffffffffffffffffffffffffffff1681565b600360009054906101000a900473ffffffffffffffffffffffffffffffffffffffff1681565b610eb0612098565b73ffffffffffffffffffffffffffffffffffffffff163373ffffffffffffffffffffffffffffffffffffffff161480610f365750600160009054906101000a900473ffffffffffffffffffffffffffffffffffffffff1673ffffffffffffffffffffffffffffffffffffffff163373ffffffffffffffffffffffffffffffffffffffff16145b610fa8576040517f08c379a00000000000000000000000000000000000000000000000000000000081526004018080602001828103825260088152602001807f216d616e6167657200000000000000000000000000000000000000000000000081525060200191505060405180910390fd5b606f81111561101f576040517f08c379a00000000000000000000000000000000000000000000000000000000081526004018080602001828103825260048152602001807f216361700000000000000000000000000000000000000000000000000000000081525060200191505060405180910390fd5b8060078190555060075460706103e8030360088190555050565b606f81565b600460009054906101000a900473ffffffffffffffffffffffffffffffffffffffff1673ffffffffffffffffffffffffffffffffffffffff163373ffffffffffffffffffffffffffffffffffffffff1614611101576040517f08c379a00000000000000000000000000000000000000000000000000000000081526004018080602001828103825260068152602001807f217661756c74000000000000000000000000000000000000000000000000000081525060200191505060405180910390fd5b60007f000000000000000000000000000000000000000000000000000000000000000073ffffffffffffffffffffffffffffffffffffffff166370a08231306040518263ffffffff1660e01b8152600401808273ffffffffffffffffffffffffffffffffffffffff16815260200191505060206040518083038186803b15801561118a57600080fd5b505afa15801561119e573d6000803e3d6000fd5b505050506040513d60208110156111b457600080fd5b8101908080519060200190929190505050905081811015611359577f000000000000000000000000000000000000000000000000000000000000000073ffffffffffffffffffffffffffffffffffffffff1663441a3e707f000000000000000000000000000000000000000000000000000000000000000061123f8486612fd490919063ffffffff16565b6040518363ffffffff1660e01b81526004018083815260200182815260200192505050600060405180830381600087803b15801561127c57600080fd5b505af1158015611290573d6000803e3d6000fd5b505050507f000000000000000000000000000000000000000000000000000000000000000073ffffffffffffffffffffffffffffffffffffffff166370a08231306040518263ffffffff1660e01b8152600401808273ffffffffffffffffffffffffffffffffffffffff16815260200191505060206040518083038186803b15801561131b57600080fd5b505afa15801561132f573d6000803e3d6000fd5b505050506040513d602081101561134557600080fd5b810190808051906020019092919050505090505b81811115611365578190505b61136d612098565b73ffffffffffffffffffffffffffffffffffffffff163273ffffffffffffffffffffffffffffffffffffffff1614806113aa57506113a9611b4b565b5b156114215761141c600460009054906101000a900473ffffffffffffffffffffffffffffffffffffffff16827f000000000000000000000000000000000000000000000000000000000000000073ffffffffffffffffffffffffffffffffffffffff166130579092919063ffffffff16565b6114cf565b600061144c61271061143e600654856130f990919063ffffffff16565b61317f90919063ffffffff16565b90506114cd600460009054906101000a900473ffffffffffffffffffffffffffffffffffffffff166114878385612fd490919063ffffffff16565b7f000000000000000000000000000000000000000000000000000000000000000073ffffffffffffffffffffffffffffffffffffffff166130579092919063ffffffff16565b505b5050565b7f000000000000000000000000000000000000000000000000000000000000000081565b6114ff612098565b73ffffffffffffffffffffffffffffffffffffffff163373ffffffffffffffffffffffffffffffffffffffff1614806115855750600160009054906101000a900473ffffffffffffffffffffffffffffffffffffffff1673ffffffffffffffffffffffffffffffffffffffff163373ffffffffffffffffffffffffffffffffffffffff16145b6115f7576040517f08c379a00000000000000000000000000000000000000000000000000000000081526004018080602001828103825260088152602001807f216d616e6167657200000000000000000000000000000000000000000000000081525060200191505060405180910390fd5b6115ff613208565b6116076132f2565b61160f612480565b565b600a818154811061161e57fe5b906000526020600020016000915054906101000a900473ffffffffffffffffffffffffffffffffffffffff1681565b611655611b4b565b156116c8576040517f08c379a00000000000000000000000000000000000000000000000000000000081526004018080602001828103825260108152602001807f5061757361626c653a207061757365640000000000000000000000000000000081525060200191505060405180910390fd5b3273ffffffffffffffffffffffffffffffffffffffff163373ffffffffffffffffffffffffffffffffffffffff1614611769576040517f08c379a00000000000000000000000000000000000000000000000000000000081526004018080602001828103825260048152602001807f21454f410000000000000000000000000000000000000000000000000000000081525060200191505060405180910390fd5b7f000000000000000000000000000000000000000000000000000000000000000073ffffffffffffffffffffffffffffffffffffffff1663e2bbb1587f000000000000000000000000000000000000000000000000000000000000000060006040518363ffffffff1660e01b81526004018083815260200182815260200192505050600060405180830381600087803b15801561180557600080fd5b505af1158015611819573d6000803e3d6000fd5b505050507f0000000000000000000000000000000000000000000000000000000000000000156118815761184b6133c4565b611853613684565b61187c7f000000000000000000000000000000000000000000000000000000000000000061377d565b6118b3565b611889613fe0565b6118b27f000000000000000000000000000000000000000000000000000000000000000061377d565b5b6118bb612480565b3373ffffffffffffffffffffffffffffffffffffffff167f577a37fdb49a88d66684922c6f913df5239b4f214b2b97c53ef8e3bbb2034cb560405160405180910390a2565b611908612098565b73ffffffffffffffffffffffffffffffffffffffff163373ffffffffffffffffffffffffffffffffffffffff16148061198e5750600160009054906101000a900473ffffffffffffffffffffffffffffffffffffffff1673ffffffffffffffffffffffffffffffffffffffff163373ffffffffffffffffffffffffffffffffffffffff16145b611a00576040517f08c379a00000000000000000000000000000000000000000000000000000000081526004018080602001828103825260088152602001807f216d616e6167657200000000000000000000000000000000000000000000000081525060200191505060405180910390fd5b611a08611f56565b7f000000000000000000000000000000000000000000000000000000000000000073ffffffffffffffffffffffffffffffffffffffff16635312ea8e7f00000000000000000000000000000000000000000000000000000000000000006040518263ffffffff1660e01b815260040180828152602001915050600060405180830381600087803b158015611a9b57600080fd5b505af1158015611aaf573d6000803e3d6000fd5b50505050565b6060600b805480602002602001604051908101604052809291908181526020018280548015611b3957602002820191906000526020600020905b8160009054906101000a900473ffffffffffffffffffffffffffffffffffffffff1673ffffffffffffffffffffffffffffffffffffffff1681526020019060010190808311611aef575b5050505050905090565b61271081565b565b60008060149054906101000a900460ff16905090565b7f000000000000000000000000000000000000000000000000000000000000000081565b611b8d612fcc565b73ffffffffffffffffffffffffffffffffffffffff16611bab612098565b73ffffffffffffffffffffffffffffffffffffffff1614611c34576040517f08c379a00000000000000000000000000000000000000000000000000000000081526004018080602001828103825260208152602001807f4f776e61626c653a2063616c6c6572206973206e6f7420746865206f776e657281525060200191505060405180910390fd5b80600460006101000a81548173ffffffffffffffffffffffffffffffffffffffff021916908373ffffffffffffffffffffffffffffffffffffffff16021790555050565b611c80612fcc565b73ffffffffffffffffffffffffffffffffffffffff16611c9e612098565b73ffffffffffffffffffffffffffffffffffffffff1614611d27576040517f08c379a00000000000000000000000000000000000000000000000000000000081526004018080602001828103825260208152602001807f4f776e61626c653a2063616c6c6572206973206e6f7420746865206f776e657281525060200191505060405180910390fd5b600073ffffffffffffffffffffffffffffffffffffffff1660008054906101000a900473ffffffffffffffffffffffffffffffffffffffff1673ffffffffffffffffffffffffffffffffffffffff167f8be0079c531659141344cd1fd0a4f28419497f9722a3daafe3b4186f6b6457e060405160405180910390a360008060006101000a81548173ffffffffffffffffffffffffffffffffffffffff021916908373ffffffffffffffffffffffffffffffffffffffff160217905550565b6000611e08611df2610c62565b611dfa6122b0565b61439790919063ffffffff16565b905090565b611e15612098565b73ffffffffffffffffffffffffffffffffffffffff163373ffffffffffffffffffffffffffffffffffffffff161480611e9b5750600160009054906101000a900473ffffffffffffffffffffffffffffffffffffffff1673ffffffffffffffffffffffffffffffffffffffff163373ffffffffffffffffffffffffffffffffffffffff16145b611f0d576040517f08c379a00000000000000000000000000000000000000000000000000000000081526004018080602001828103825260088152602001807f216d616e6167657200000000000000000000000000000000000000000000000081525060200191505060405180910390fd5b80600160006101000a81548173ffffffffffffffffffffffffffffffffffffffff021916908373ffffffffffffffffffffffffffffffffffffffff16021790555050565b607081565b611f5e612098565b73ffffffffffffffffffffffffffffffffffffffff163373ffffffffffffffffffffffffffffffffffffffff161480611fe45750600160009054906101000a900473ffffffffffffffffffffffffffffffffffffffff1673ffffffffffffffffffffffffffffffffffffffff163373ffffffffffffffffffffffffffffffffffffffff16145b612056576040517f08c379a00000000000000000000000000000000000000000000000000000000081526004018080602001828103825260088152602001807f216d616e6167657200000000000000000000000000000000000000000000000081525060200191505060405180910390fd5b61205e61441f565b61206661450b565b565b7f000000000000000000000000000000000000000000000000000000000000000081565b60065481565b60085481565b60008060009054906101000a900473ffffffffffffffffffffffffffffffffffffffff16905090565b60075481565b600981815481106120d457fe5b906000526020600020016000915054906101000a900473ffffffffffffffffffffffffffffffffffffffff1681565b61210b612098565b73ffffffffffffffffffffffffffffffffffffffff163373ffffffffffffffffffffffffffffffffffffffff1614806121915750600160009054906101000a900473ffffffffffffffffffffffffffffffffffffffff1673ffffffffffffffffffffffffffffffffffffffff163373ffffffffffffffffffffffffffffffffffffffff16145b612203576040517f08c379a00000000000000000000000000000000000000000000000000000000081526004018080602001828103825260088152602001807f216d616e6167657200000000000000000000000000000000000000000000000081525060200191505060405180910390fd5b603281111561227a576040517f08c379a00000000000000000000000000000000000000000000000000000000081526004018080602001828103825260048152602001807f216361700000000000000000000000000000000000000000000000000000000081525060200191505060405180910390fd5b8060068190555050565b600160009054906101000a900473ffffffffffffffffffffffffffffffffffffffff1681565b6103e881565b60007f000000000000000000000000000000000000000000000000000000000000000073ffffffffffffffffffffffffffffffffffffffff166370a08231306040518263ffffffff1660e01b8152600401808273ffffffffffffffffffffffffffffffffffffffff16815260200191505060206040518083038186803b15801561233957600080fd5b505afa15801561234d573d6000803e3d6000fd5b505050506040513d602081101561236357600080fd5b8101908080519060200190929190505050905090565b600260009054906101000a900473ffffffffffffffffffffffffffffffffffffffff1673ffffffffffffffffffffffffffffffffffffffff163373ffffffffffffffffffffffffffffffffffffffff161461243c576040517f08c379a000000000000000000000000000000000000000000000000000000000815260040180806020018281038252600b8152602001807f217374726174656769737400000000000000000000000000000000000000000081525060200191505060405180910390fd5b80600260006101000a81548173ffffffffffffffffffffffffffffffffffffffff021916908373ffffffffffffffffffffffffffffffffffffffff16021790555050565b612488611b4b565b156124fb576040517f08c379a00000000000000000000000000000000000000000000000000000000081526004018080602001828103825260108152602001807f5061757361626c653a207061757365640000000000000000000000000000000081525060200191505060405180910390fd5b60007f000000000000000000000000000000000000000000000000000000000000000073ffffffffffffffffffffffffffffffffffffffff166370a08231306040518263ffffffff1660e01b8152600401808273ffffffffffffffffffffffffffffffffffffffff16815260200191505060206040518083038186803b15801561258457600080fd5b505afa158015612598573d6000803e3d6000fd5b505050506040513d60208110156125ae57600080fd5b81019080805190602001909291905050509050600081111561267e577f000000000000000000000000000000000000000000000000000000000000000073ffffffffffffffffffffffffffffffffffffffff1663e2bbb1587f0000000000000000000000000000000000000000000000000000000000000000836040518363ffffffff1660e01b81526004018083815260200182815260200192505050600060405180830381600087803b15801561266557600080fd5b505af1158015612679573d6000803e3d6000fd5b505050505b50565b7f000000000000000000000000000000000000000000000000000000000000000081565b6126ad612fcc565b73ffffffffffffffffffffffffffffffffffffffff166126cb612098565b73ffffffffffffffffffffffffffffffffffffffff1614612754576040517f08c379a00000000000000000000000000000000000000000000000000000000081526004018080602001828103825260208152602001807f4f776e61626c653a2063616c6c6572206973206e6f7420746865206f776e657281525060200191505060405180910390fd5b80600360006101000a81548173ffffffffffffffffffffffffffffffffffffffff021916908373ffffffffffffffffffffffffffffffffffffffff16021790555050565b603281565b7f000000000000000000000000000000000000000000000000000000000000000081565b6127c9612fcc565b73ffffffffffffffffffffffffffffffffffffffff166127e7612098565b73ffffffffffffffffffffffffffffffffffffffff1614612870576040517f08c379a00000000000000000000000000000000000000000000000000000000081526004018080602001828103825260208152602001807f4f776e61626c653a2063616c6c6572206973206e6f7420746865206f776e657281525060200191505060405180910390fd5b600073ffffffffffffffffffffffffffffffffffffffff168173ffffffffffffffffffffffffffffffffffffffff1614156128f6576040517f08c379a0000000000000000000000000000000000000000000000000000000008152600401808060200182810382526026815260200180614d786026913960400191505060405180910390fd5b8073ffffffffffffffffffffffffffffffffffffffff1660008054906101000a900473ffffffffffffffffffffffffffffffffffffffff1673ffffffffffffffffffffffffffffffffffffffff167f8be0079c531659141344cd1fd0a4f28419497f9722a3daafe3b4186f6b6457e060405160405180910390a3806000806101000a81548173ffffffffffffffffffffffffffffffffffffffff021916908373ffffffffffffffffffffffffffffffffffffffff16021790555050565b600560009054906101000a900473ffffffffffffffffffffffffffffffffffffffff1681565b6060600a805480602002602001604051908101604052809291908181526020018280548015612a5d57602002820191906000526020600020905b8160009054906101000a900473ffffffffffffffffffffffffffffffffffffffff1673ffffffffffffffffffffffffffffffffffffffff1681526020019060010190808311612a13575b5050505050905090565b600460009054906101000a900473ffffffffffffffffffffffffffffffffffffffff1673ffffffffffffffffffffffffffffffffffffffff163373ffffffffffffffffffffffffffffffffffffffff1614612b2a576040517f08c379a00000000000000000000000000000000000000000000000000000000081526004018080602001828103825260068152602001807f217661756c74000000000000000000000000000000000000000000000000000081525060200191505060405180910390fd5b7f000000000000000000000000000000000000000000000000000000000000000073ffffffffffffffffffffffffffffffffffffffff16635312ea8e7f00000000000000000000000000000000000000000000000000000000000000006040518263ffffffff1660e01b815260040180828152602001915050600060405180830381600087803b158015612bbd57600080fd5b505af1158015612bd1573d6000803e3d6000fd5b5050505060007f000000000000000000000000000000000000000000000000000000000000000073ffffffffffffffffffffffffffffffffffffffff166370a08231306040518263ffffffff1660e01b8152600401808273ffffffffffffffffffffffffffffffffffffffff16815260200191505060206040518083038186803b158015612c5e57600080fd5b505afa158015612c72573d6000803e3d6000fd5b505050506040513d6020811015612c8857600080fd5b810190808051906020019092919050505090507f000000000000000000000000000000000000000000000000000000000000000073ffffffffffffffffffffffffffffffffffffffff1663a9059cbb600460009054906101000a900473ffffffffffffffffffffffffffffffffffffffff16836040518363ffffffff1660e01b8152600401808373ffffffffffffffffffffffffffffffffffffffff16815260200182815260200192505050602060405180830381600087803b158015612d4e57600080fd5b505af1158015612d62573d6000803e3d6000fd5b505050506040513d6020811015612d7857600080fd5b81019080805190602001909291905050505050565b600b8181548110612d9a57fe5b906000526020600020016000915054906101000a900473ffffffffffffffffffffffffffffffffffffffff1681565b600460009054906101000a900473ffffffffffffffffffffffffffffffffffffffff1681565b6000811480612ebd575060008373ffffffffffffffffffffffffffffffffffffffff1663dd62ed3e30856040518363ffffffff1660e01b8152600401808373ffffffffffffffffffffffffffffffffffffffff1681526020018273ffffffffffffffffffffffffffffffffffffffff1681526020019250505060206040518083038186803b158015612e8057600080fd5b505afa158015612e94573d6000803e3d6000fd5b505050506040513d6020811015612eaa57600080fd5b8101908080519060200190929190505050145b612f12576040517f08c379a0000000000000000000000000000000000000000000000000000000008152600401808060200182810382526036815260200180614e0f6036913960400191505060405180910390fd5b612faf8363095ea7b360e01b8484604051602401808373ffffffffffffffffffffffffffffffffffffffff16815260200182815260200192505050604051602081830303815290604052907bffffffffffffffffffffffffffffffffffffffffffffffffffffffff19166020820180517bffffffffffffffffffffffffffffffffffffffffffffffffffffffff83818316178352505050506146c3565b505050565b6060612fc384846000856147b2565b90509392505050565b600033905090565b60008282111561304c576040517f08c379a000000000000000000000000000000000000000000000000000000000815260040180806020018281038252601e8152602001807f536166654d6174683a207375627472616374696f6e206f766572666c6f77000081525060200191505060405180910390fd5b818303905092915050565b6130f48363a9059cbb60e01b8484604051602401808373ffffffffffffffffffffffffffffffffffffffff16815260200182815260200192505050604051602081830303815290604052907bffffffffffffffffffffffffffffffffffffffffffffffffffffffff19166020820180517bffffffffffffffffffffffffffffffffffffffffffffffffffffffff83818316178352505050506146c3565b505050565b60008083141561310c5760009050613179565b600082840290508284828161311d57fe5b0414613174576040517f08c379a0000000000000000000000000000000000000000000000000000000008152600401808060200182810382526021815260200180614dc46021913960400191505060405180910390fd5b809150505b92915050565b60008082116131f6576040517f08c379a000000000000000000000000000000000000000000000000000000000815260040180806020018281038252601a8152602001807f536166654d6174683a206469766973696f6e206279207a65726f00000000000081525060200191505060405180910390fd5b8183816131ff57fe5b04905092915050565b613210611b4b565b613282576040517f08c379a00000000000000000000000000000000000000000000000000000000081526004018080602001828103825260148152602001807f5061757361626c653a206e6f742070617573656400000000000000000000000081525060200191505060405180910390fd5b60008060146101000a81548160ff0219169083151502179055507f5db9ee0a495bf2e6ff9c91a7834c1ba4fdd244a5e8aa4e537bd38aeae4b073aa6132c5612fcc565b604051808273ffffffffffffffffffffffffffffffffffffffff16815260200191505060405180910390a1565b6133c27f00000000000000000000000000000000000000000000000000000000000000007f00000000000000000000000000000000000000000000000000000000000000007f0000000000000000000000000000000000000000000000000000000000000000600360009054906101000a900473ffffffffffffffffffffffffffffffffffffffff167f00000000000000000000000000000000000000000000000000000000000000007f000000000000000000000000000000000000000000000000000000000000000061495b565b565b60007f000000000000000000000000000000000000000000000000000000000000000073ffffffffffffffffffffffffffffffffffffffff166370a08231306040518263ffffffff1660e01b8152600401808273ffffffffffffffffffffffffffffffffffffffff16815260200191505060206040518083038186803b15801561344d57600080fd5b505afa158015613461573d6000803e3d6000fd5b505050506040513d602081101561347757600080fd5b81019080805190602001909291905050509050600360009054906101000a900473ffffffffffffffffffffffffffffffffffffffff1673ffffffffffffffffffffffffffffffffffffffff166338ed1739826000600930426040518663ffffffff1660e01b815260040180868152602001858152602001806020018473ffffffffffffffffffffffffffffffffffffffff168152602001838152602001828103825285818154815260200191508054801561358757602002820191906000526020600020905b8160009054906101000a900473ffffffffffffffffffffffffffffffffffffffff1673ffffffffffffffffffffffffffffffffffffffff168152602001906001019080831161353d575b50509650505050505050600060405180830381600087803b1580156135ab57600080fd5b505af11580156135bf573d6000803e3d6000fd5b505050506040513d6000823e3d601f19601f8201168201806040525060208110156135e957600080fd5b810190808051604051939291908464010000000082111561360957600080fd5b8382019150602082018581111561361f57600080fd5b825186602082028301116401000000008211171561363c57600080fd5b8083526020830192505050908051906020019060200280838360005b83811015613673578082015181840152602081019050613658565b505050509050016040525050505050565b600061376f6103e8613761602d7f000000000000000000000000000000000000000000000000000000000000000073ffffffffffffffffffffffffffffffffffffffff166370a08231306040518263ffffffff1660e01b8152600401808273ffffffffffffffffffffffffffffffffffffffff16815260200191505060206040518083038186803b15801561371857600080fd5b505afa15801561372c573d6000803e3d6000fd5b505050506040513d602081101561374257600080fd5b81019080805190602001909291905050506130f990919063ffffffff16565b61317f90919063ffffffff16565b905061377a81614ae7565b50565b600061383460028373ffffffffffffffffffffffffffffffffffffffff166370a08231306040518263ffffffff1660e01b8152600401808273ffffffffffffffffffffffffffffffffffffffff16815260200191505060206040518083038186803b1580156137eb57600080fd5b505afa1580156137ff573d6000803e3d6000fd5b505050506040513d602081101561381557600080fd5b810190808051906020019092919050505061317f90919063ffffffff16565b90508173ffffffffffffffffffffffffffffffffffffffff167f000000000000000000000000000000000000000000000000000000000000000073ffffffffffffffffffffffffffffffffffffffff1614613a8157600360009054906101000a900473ffffffffffffffffffffffffffffffffffffffff1673ffffffffffffffffffffffffffffffffffffffff166338ed1739826000600a30426040518663ffffffff1660e01b815260040180868152602001858152602001806020018473ffffffffffffffffffffffffffffffffffffffff168152602001838152602001828103825285818154815260200191508054801561398657602002820191906000526020600020905b8160009054906101000a900473ffffffffffffffffffffffffffffffffffffffff1673ffffffffffffffffffffffffffffffffffffffff168152602001906001019080831161393c575b50509650505050505050600060405180830381600087803b1580156139aa57600080fd5b505af11580156139be573d6000803e3d6000fd5b505050506040513d6000823e3d601f19601f8201168201806040525060208110156139e857600080fd5b8101908080516040519392919084640100000000821115613a0857600080fd5b83820191506020820185811115613a1e57600080fd5b8251866020820283011164010000000082111715613a3b57600080fd5b8083526020830192505050908051906020019060200280838360005b83811015613a72578082015181840152602081019050613a57565b50505050905001604052505050505b8173ffffffffffffffffffffffffffffffffffffffff167f000000000000000000000000000000000000000000000000000000000000000073ffffffffffffffffffffffffffffffffffffffff1614613ccc57600360009054906101000a900473ffffffffffffffffffffffffffffffffffffffff1673ffffffffffffffffffffffffffffffffffffffff166338ed1739826000600b30426040518663ffffffff1660e01b815260040180868152602001858152602001806020018473ffffffffffffffffffffffffffffffffffffffff1681526020018381526020018281038252858181548152602001915080548015613bd157602002820191906000526020600020905b8160009054906101000a900473ffffffffffffffffffffffffffffffffffffffff1673ffffffffffffffffffffffffffffffffffffffff1681526020019060010190808311613b87575b50509650505050505050600060405180830381600087803b158015613bf557600080fd5b505af1158015613c09573d6000803e3d6000fd5b505050506040513d6000823e3d601f19601f820116820180604052506020811015613c3357600080fd5b8101908080516040519392919084640100000000821115613c5357600080fd5b83820191506020820185811115613c6957600080fd5b8251866020820283011164010000000082111715613c8657600080fd5b8083526020830192505050908051906020019060200280838360005b83811015613cbd578082015181840152602081019050613ca2565b50505050905001604052505050505b60007f000000000000000000000000000000000000000000000000000000000000000073ffffffffffffffffffffffffffffffffffffffff166370a08231306040518263ffffffff1660e01b8152600401808273ffffffffffffffffffffffffffffffffffffffff16815260200191505060206040518083038186803b158015613d5557600080fd5b505afa158015613d69573d6000803e3d6000fd5b505050506040513d6020811015613d7f57600080fd5b8101908080519060200190929190505050905060007f000000000000000000000000000000000000000000000000000000000000000073ffffffffffffffffffffffffffffffffffffffff166370a08231306040518263ffffffff1660e01b8152600401808273ffffffffffffffffffffffffffffffffffffffff16815260200191505060206040518083038186803b158015613e1b57600080fd5b505afa158015613e2f573d6000803e3d6000fd5b505050506040513d6020811015613e4557600080fd5b81019080805190602001909291905050509050600360009054906101000a900473ffffffffffffffffffffffffffffffffffffffff1673ffffffffffffffffffffffffffffffffffffffff1663e8e337007f00000000000000000000000000000000000000000000000000000000000000007f0000000000000000000000000000000000000000000000000000000000000000858560018030426040518963ffffffff1660e01b8152600401808973ffffffffffffffffffffffffffffffffffffffff1681526020018873ffffffffffffffffffffffffffffffffffffffff1681526020018781526020018681526020018581526020018481526020018373ffffffffffffffffffffffffffffffffffffffff16815260200182815260200198505050505050505050606060405180830381600087803b158015613f8857600080fd5b505af1158015613f9c573d6000803e3d6000fd5b505050506040513d6060811015613fb257600080fd5b8101908080519060200190929190805190602001909291908051906020019092919050505050505050505050565b60006140cb6103e86140bd602d7f000000000000000000000000000000000000000000000000000000000000000073ffffffffffffffffffffffffffffffffffffffff166370a08231306040518263ffffffff1660e01b8152600401808273ffffffffffffffffffffffffffffffffffffffff16815260200191505060206040518083038186803b15801561407457600080fd5b505afa158015614088573d6000803e3d6000fd5b505050506040513d602081101561409e57600080fd5b81019080805190602001909291905050506130f990919063ffffffff16565b61317f90919063ffffffff16565b9050600360009054906101000a900473ffffffffffffffffffffffffffffffffffffffff1673ffffffffffffffffffffffffffffffffffffffff166338ed1739826000600930426040518663ffffffff1660e01b815260040180868152602001858152602001806020018473ffffffffffffffffffffffffffffffffffffffff16815260200183815260200182810382528581815481526020019150805480156141ca57602002820191906000526020600020905b8160009054906101000a900473ffffffffffffffffffffffffffffffffffffffff1673ffffffffffffffffffffffffffffffffffffffff1681526020019060010190808311614180575b50509650505050505050600060405180830381600087803b1580156141ee57600080fd5b505af1158015614202573d6000803e3d6000fd5b505050506040513d6000823e3d601f19601f82011682018060405250602081101561422c57600080fd5b810190808051604051939291908464010000000082111561424c57600080fd5b8382019150602082018581111561426257600080fd5b825186602082028301116401000000008211171561427f57600080fd5b8083526020830192505050908051906020019060200280838360005b838110156142b657808201518184015260208101905061429b565b505050509050016040525050505060007f000000000000000000000000000000000000000000000000000000000000000073ffffffffffffffffffffffffffffffffffffffff166370a08231306040518263ffffffff1660e01b8152600401808273ffffffffffffffffffffffffffffffffffffffff16815260200191505060206040518083038186803b15801561434d57600080fd5b505afa158015614361573d6000803e3d6000fd5b505050506040513d602081101561437757600080fd5b8101908080519060200190929190505050905061439381614ae7565b5050565b600080828401905083811015614415576040517f08c379a000000000000000000000000000000000000000000000000000000000815260040180806020018281038252601b8152602001807f536166654d6174683a206164646974696f6e206f766572666c6f77000000000081525060200191505060405180910390fd5b8091505092915050565b614427611b4b565b1561449a576040517f08c379a00000000000000000000000000000000000000000000000000000000081526004018080602001828103825260108152602001807f5061757361626c653a207061757365640000000000000000000000000000000081525060200191505060405180910390fd5b6001600060146101000a81548160ff0219169083151502179055507f62e78cea01bee320cd4e420270b5ea74000d11b0c9f74754ebdbfc544b05a2586144de612fcc565b604051808273ffffffffffffffffffffffffffffffffffffffff16815260200191505060405180910390a1565b6145777f000000000000000000000000000000000000000000000000000000000000000060007f000000000000000000000000000000000000000000000000000000000000000073ffffffffffffffffffffffffffffffffffffffff16612def9092919063ffffffff16565b6145e5600360009054906101000a900473ffffffffffffffffffffffffffffffffffffffff1660007f000000000000000000000000000000000000000000000000000000000000000073ffffffffffffffffffffffffffffffffffffffff16612def9092919063ffffffff16565b614653600360009054906101000a900473ffffffffffffffffffffffffffffffffffffffff1660007f000000000000000000000000000000000000000000000000000000000000000073ffffffffffffffffffffffffffffffffffffffff16612def9092919063ffffffff16565b6146c1600360009054906101000a900473ffffffffffffffffffffffffffffffffffffffff1660007f000000000000000000000000000000000000000000000000000000000000000073ffffffffffffffffffffffffffffffffffffffff16612def9092919063ffffffff16565b565b6060614725826040518060400160405280602081526020017f5361666545524332303a206c6f772d6c6576656c2063616c6c206661696c65648152508573ffffffffffffffffffffffffffffffffffffffff16612fb49092919063ffffffff16565b90506000815111156147ad5780806020019051602081101561474657600080fd5b81019080805190602001909291905050506147ac576040517f08c379a000000000000000000000000000000000000000000000000000000000815260040180806020018281038252602a815260200180614de5602a913960400191505060405180910390fd5b5b505050565b60608247101561480d576040517f08c379a0000000000000000000000000000000000000000000000000000000008152600401808060200182810382526026815260200180614d9e6026913960400191505060405180910390fd5b61481685614c98565b614888576040517f08c379a000000000000000000000000000000000000000000000000000000000815260040180806020018281038252601d8152602001807f416464726573733a2063616c6c20746f206e6f6e2d636f6e747261637400000081525060200191505060405180910390fd5b600060608673ffffffffffffffffffffffffffffffffffffffff1685876040518082805190602001908083835b602083106148d857805182526020820191506020810190506020830392506148b5565b6001836020036101000a03801982511681845116808217855250505050505090500191505060006040518083038185875af1925050503d806000811461493a576040519150601f19603f3d011682016040523d82523d6000602084013e61493f565b606091505b509150915061494f828286614cab565b92505050949350505050565b6149a6857fffffffffffffffffffffffffffffffffffffffffffffffffffffffffffffffff8873ffffffffffffffffffffffffffffffffffffffff16612def9092919063ffffffff16565b6149f1837fffffffffffffffffffffffffffffffffffffffffffffffffffffffffffffffff8673ffffffffffffffffffffffffffffffffffffffff16612def9092919063ffffffff16565b614a1d8360008473ffffffffffffffffffffffffffffffffffffffff16612def9092919063ffffffff16565b614a68837fffffffffffffffffffffffffffffffffffffffffffffffffffffffffffffffff8473ffffffffffffffffffffffffffffffffffffffff16612def9092919063ffffffff16565b614a948360008373ffffffffffffffffffffffffffffffffffffffff16612def9092919063ffffffff16565b614adf837fffffffffffffffffffffffffffffffffffffffffffffffffffffffffffffffff8373ffffffffffffffffffffffffffffffffffffffff16612def9092919063ffffffff16565b505050505050565b6000614b126103e8614b04600754856130f990919063ffffffff16565b61317f90919063ffffffff16565b9050614b5f33827f000000000000000000000000000000000000000000000000000000000000000073ffffffffffffffffffffffffffffffffffffffff166130579092919063ffffffff16565b6000614b8a6103e8614b7c600854866130f990919063ffffffff16565b61317f90919063ffffffff16565b9050614bf9600560009054906101000a900473ffffffffffffffffffffffffffffffffffffffff16827f000000000000000000000000000000000000000000000000000000000000000073ffffffffffffffffffffffffffffffffffffffff166130579092919063ffffffff16565b6000614c236103e8614c156070876130f990919063ffffffff16565b61317f90919063ffffffff16565b9050614c92600260009054906101000a900473ffffffffffffffffffffffffffffffffffffffff16827f000000000000000000000000000000000000000000000000000000000000000073ffffffffffffffffffffffffffffffffffffffff166130579092919063ffffffff16565b50505050565b600080823b905060008111915050919050565b60608315614cbb57829050614d70565b600083511115614cce5782518084602001fd5b816040517f08c379a00000000000000000000000000000000000000000000000000000000081526004018080602001828103825283818151815260200191508051906020019080838360005b83811015614d35578082015181840152602081019050614d1a565b50505050905090810190601f168015614d625780820380516001836020036101000a031916815260200191505b509250505060405180910390fd5b939250505056fe4f776e61626c653a206e6577206f776e657220697320746865207a65726f2061646472657373416464726573733a20696e73756666696369656e742062616c616e636520666f722063616c6c536166654d6174683a206d756c7469706c69636174696f6e206f766572666c6f775361666545524332303a204552433230206f7065726174696f6e20646964206e6f7420737563636565645361666545524332303a20617070726f76652066726f6d206e6f6e2d7a65726f20746f206e6f6e2d7a65726f20616c6c6f77616e6365a2646970667358221220549da04cb9cd6a494a5ba59674d5709166470c068849ac6c3abffd584e1b65f064736f6c634300060c0033416464726573733a20696e73756666696369656e742062616c616e636520666f722063616c6c5361666545524332303a204552433230206f7065726174696f6e20646964206e6f7420737563636565645361666545524332303a20617070726f76652066726f6d206e6f6e2d7a65726f20746f206e6f6e2d7a65726f20616c6c6f77616e6365",
  "immutableReferences": {
    "2482": [
      {
        "length": 32,
        "start": 3428
      },
      {
        "length": 32,
        "start": 6232
      },
      {
        "length": 32,
        "start": 13971
      },
      {
        "length": 32,
        "start": 17096
      },
      {
        "length": 32,
        "start": 19227
      },
      {
        "length": 32,
        "start": 19381
      },
      {
        "length": 32,
        "start": 19534
      }
    ],
    "2484": [
      {
        "length": 32,
        "start": 6286
      },
      {
        "length": 32,
        "start": 10143
      },
      {
        "length": 32,
        "start": 13113
      },
      {
        "length": 32,
        "start": 13256
      },
      {
        "length": 32,
        "start": 16367
      },
      {
        "length": 32,
        "start": 17825
      }
    ],
    "2486": [
      {
        "length": 32,
        "start": 3606
      },
      {
        "length": 32,
        "start": 4357
      },
      {
        "length": 32,
        "start": 4758
      },
      {
        "length": 32,
        "start": 5080
      },
      {
        "length": 32,
        "start": 5257
      },
      {
        "length": 32,
        "start": 8884
      },
      {
        "length": 32,
        "start": 9471
      },
      {
        "length": 32,
        "start": 11225
      },
      {
        "length": 32,
        "start": 11421
      },
      {
        "length": 32,
        "start": 13047
      },
      {
        "length": 32,
        "start": 17715
      }
    ],
    "2488": [
      {
        "length": 32,
        "start": 7011
      },
      {
        "length": 32,
        "start": 13181
      },
      {
        "length": 32,
        "start": 14415
      },
      {
        "length": 32,
        "start": 15568
      },
      {
        "length": 32,
        "start": 16024
      },
      {
        "length": 32,
        "start": 17935
      }
    ],
    "2490": [
      {
        "length": 32,
        "start": 8298
      },
      {
        "length": 32,
        "start": 13214
      },
      {
        "length": 32,
        "start": 15002
      },
      {
        "length": 32,
        "start": 15766
      },
      {
        "length": 32,
        "start": 16057
      },
      {
        "length": 32,
        "start": 18045
      }
    ],
    "2492": [
      {
        "length": 32,
        "start": 3175
      },
      {
        "length": 32,
        "start": 3642
      },
      {
        "length": 32,
        "start": 4561
      },
      {
        "length": 32,
        "start": 5995
      },
      {
        "length": 32,
        "start": 6666
      },
      {
        "length": 32,
        "start": 9676
      },
      {
        "length": 32,
        "start": 11052
      },
      {
        "length": 32,
        "start": 13080
      },
      {
        "length": 32,
        "start": 17680
      }
    ],
    "2494": [
      {
        "length": 32,
        "start": 3235
      },
      {
        "length": 32,
        "start": 4621
      },
      {
        "length": 32,
        "start": 5333
      },
      {
        "length": 32,
        "start": 6055
      },
      {
        "length": 32,
        "start": 6726
      },
      {
        "length": 32,
        "start": 9736
      },
      {
        "length": 32,
        "start": 11112
      }
    ],
    "2505": [
      {
        "length": 32,
        "start": 6175
      },
      {
        "length": 32,
        "start": 9859
      }
    ]
  },
  "source": "pragma solidity ^0.6.12;\r\n\r\nimport \"@openzeppelin/contracts/token/ERC20/ERC20.sol\";\r\nimport \"@openzeppelin/contracts/token/ERC20/SafeERC20.sol\";\r\nimport \"@openzeppelin/contracts/math/SafeMath.sol\";\r\n\r\nimport \"../../../interfaces/common/IUniswapRouterETH.sol\";\r\nimport \"../../../interfaces/common/IUniswapV2Pair.sol\";\r\nimport \"../../../interfaces/pancake/IMasterChef.sol\";\r\nimport \"./StratManager.sol\";\r\nimport \"./FeeManager.sol\";\r\n\r\ncontract StrategyCommonChefLP is StratManager, FeeManager {\r\n    using SafeERC20 for IERC20;\r\n    using SafeMath for uint256;\r\n\r\n    // Tokens used\r\n    address immutable public native;\r\n    address immutable public output;\r\n    address immutable public want;\r\n    address immutable public lpToken0;\r\n    address immutable public lpToken1;\r\n\r\n    // Third party contracts\r\n    address immutable public chef;\r\n    uint256 immutable public poolId;\r\n\r\n    // Routes\r\n    address[] public toNativeRoute;\r\n    address[] public toLp0Route;\r\n    address[] public toLp1Route;\r\n    bool immutable public isNativeRoutes;\r\n\r\n    /**\r\n     * @dev Event that is fired each time someone harvests the strat.\r\n     */\r\n    event StratHarvest(address indexed harvester);\r\n\r\n    constructor(\r\n        address _want,\r\n        uint256 _poolId,\r\n        address _chef,\r\n        address _vault,\r\n        address _unirouter,\r\n        address _keeper,\r\n        address _strategist,\r\n        address _plutusFeeRecipient,\r\n        address[] memory _toNativeRoute,\r\n        address[] memory _toLp0Route,\r\n        address[] memory _toLp1Route\r\n    ) StratManager(_keeper, _strategist, _unirouter, _vault, _plutusFeeRecipient) public {\r\n        want = _want;\r\n        poolId = _poolId;\r\n        chef = _chef;\r\n\r\n        address _output = _toNativeRoute[0];\r\n        require(_output != address(0), \"!output\");\r\n        output = _output;\r\n\r\n        address _native = _toNativeRoute[_toNativeRoute.length - 1];\r\n        require(_native != address(0), \"!native\");\r\n        native = _native;\r\n        toNativeRoute = _toNativeRoute;\r\n\r\n        // setup lp routing\r\n        address _lpToken0 = IUniswapV2Pair(_want).token0();\r\n        require(_lpToken0 == _toLp0Route[_toLp0Route.length - 1], \"!token0\");\r\n        toLp0Route = _toLp0Route;\r\n        lpToken0 = _lpToken0;\r\n\r\n        address _lpToken1 = IUniswapV2Pair(_want).token1();\r\n        require(_lpToken1 == _toLp1Route[_toLp1Route.length - 1], \"!token1\");\r\n        toLp1Route = _toLp1Route;\r\n        lpToken1 = _lpToken1;\r\n\r\n        isNativeRoutes = (_toLp0Route[0] == _native && _toLp1Route[0] == _native);\r\n\r\n        _giveAllowancesArguments(_want, _chef, _output, _unirouter, _lpToken0, _lpToken1);\r\n    }\r\n\r\n    // puts the funds to work\r\n    function deposit() public whenNotPaused {\r\n        uint256 wantBal = IERC20(want).balanceOf(address(this));\r\n\r\n        if (wantBal > 0) {\r\n            IMasterChef(chef).deposit(poolId, wantBal);\r\n        }\r\n    }\r\n\r\n    function withdraw(uint256 _amount) external {\r\n        require(msg.sender == vault, \"!vault\");\r\n\r\n        uint256 wantBal = IERC20(want).balanceOf(address(this));\r\n\r\n        if (wantBal < _amount) {\r\n            IMasterChef(chef).withdraw(poolId, _amount.sub(wantBal));\r\n            wantBal = IERC20(want).balanceOf(address(this));\r\n        }\r\n\r\n        if (wantBal > _amount) {\r\n            wantBal = _amount;\r\n        }\r\n\r\n        if (tx.origin == owner() || paused()) {\r\n            IERC20(want).safeTransfer(vault, wantBal);\r\n        } else {\r\n            uint256 withdrawalFeeAmount = wantBal.mul(withdrawalFee).div(WITHDRAWAL_MAX);\r\n            IERC20(want).safeTransfer(vault, wantBal.sub(withdrawalFeeAmount));\r\n        }\r\n    }\r\n\r\n    // compounds earnings and charges performance fee\r\n    function harvest() public virtual whenNotPaused onlyEOA {\r\n        IMasterChef(chef).deposit(poolId, 0);\r\n\r\n        if (isNativeRoutes) {\r\n            swapAllToNative();\r\n            chargeFeesNative();\r\n            addLiquidityFrom(native);\r\n        } else {\r\n            chargeFees();\r\n            addLiquidityFrom(output);\r\n        }\r\n\r\n        deposit();\r\n\r\n        emit StratHarvest(msg.sender);\r\n    }\r\n\r\n    // performance fees\r\n    function swapAllToNative() internal {\r\n        uint256 toNative = IERC20(output).balanceOf(address(this));\r\n        IUniswapRouterETH(unirouter).swapExactTokensForTokens(toNative, 0, toNativeRoute, address(this), now);\r\n    }\r\n\r\n    function chargeFees() internal {\r\n        uint256 toNative = IERC20(output).balanceOf(address(this)).mul(45).div(1000);\r\n        IUniswapRouterETH(unirouter).swapExactTokensForTokens(toNative, 0, toNativeRoute, address(this), now);\r\n\r\n        uint256 nativeBal = IERC20(native).balanceOf(address(this));\r\n        transferFees(nativeBal);\r\n    }\r\n\r\n    function chargeFeesNative() internal {\r\n        uint256 nativeFees = IERC20(native).balanceOf(address(this)).mul(45).div(1000);\r\n        transferFees(nativeFees);\r\n    }\r\n\r\n    function transferFees(uint256 amount) internal {\r\n        uint256 callFeeAmount = amount.mul(callFee).div(MAX_FEE);\r\n        IERC20(native).safeTransfer(msg.sender, callFeeAmount);\r\n\r\n        uint256 plutusFeeAmount = amount.mul(plutusFee).div(MAX_FEE);\r\n        IERC20(native).safeTransfer(plutusFeeRecipient, plutusFeeAmount);\r\n\r\n        uint256 strategistFee = amount.mul(STRATEGIST_FEE).div(MAX_FEE);\r\n        IERC20(native).safeTransfer(strategist, strategistFee);\r\n    }\r\n\r\n    // Adds liquidity to AMM and gets more LP tokens.\r\n    function addLiquidityFrom(address yield) internal {\r\n        uint256 yieldHalf = IERC20(yield).balanceOf(address(this)).div(2);\r\n\r\n        if (lpToken0 != yield) {\r\n            IUniswapRouterETH(unirouter).swapExactTokensForTokens(yieldHalf, 0, toLp0Route, address(this), now);\r\n        }\r\n\r\n        if (lpToken1 != yield) {\r\n            IUniswapRouterETH(unirouter).swapExactTokensForTokens(yieldHalf, 0, toLp1Route, address(this), now);\r\n        }\r\n\r\n        uint256 lp0Bal = IERC20(lpToken0).balanceOf(address(this));\r\n        uint256 lp1Bal = IERC20(lpToken1).balanceOf(address(this));\r\n        IUniswapRouterETH(unirouter).addLiquidity(lpToken0, lpToken1, lp0Bal, lp1Bal, 1, 1, address(this), now);\r\n    }\r\n\r\n    // calculate the total underlaying 'want' held by the strat.\r\n    function balanceOf() public view returns (uint256) {\r\n        return balanceOfWant().add(balanceOfPool());\r\n    }\r\n\r\n    // it calculates how much 'want' this contract holds.\r\n    function balanceOfWant() public view returns (uint256) {\r\n        return IERC20(want).balanceOf(address(this));\r\n    }\r\n\r\n    // it calculates how much 'want' the strategy has working in the farm.\r\n    function balanceOfPool() public view returns (uint256) {\r\n        (uint256 _amount, ) = IMasterChef(chef).userInfo(poolId, address(this));\r\n        return _amount;\r\n    }\r\n\r\n    // called as part of strat migration. Sends all the available funds back to the vault.\r\n    function retireStrat() external {\r\n        require(msg.sender == vault, \"!vault\");\r\n\r\n        IMasterChef(chef).emergencyWithdraw(poolId);\r\n\r\n        uint256 wantBal = IERC20(want).balanceOf(address(this));\r\n        IERC20(want).transfer(vault, wantBal);\r\n    }\r\n\r\n    // pauses deposits and withdraws all funds from third party systems.\r\n    function panic() public onlyManager {\r\n        pause();\r\n        IMasterChef(chef).emergencyWithdraw(poolId);\r\n    }\r\n\r\n    function pause() public onlyManager {\r\n        _pause();\r\n\r\n        _removeAllowances();\r\n    }\r\n\r\n    function unpause() external onlyManager {\r\n        _unpause();\r\n\r\n        _giveAllowances();\r\n\r\n        deposit();\r\n    }\r\n\r\n    function _giveAllowances() internal {\r\n        _giveAllowancesArguments(want, chef, output, unirouter, lpToken0, lpToken1);\r\n    }\r\n\r\n    function _giveAllowancesArguments(\r\n        address _want,\r\n        address _chef,\r\n        address _output,\r\n        address _unirouter,\r\n        address _lpToken0,\r\n        address _lpToken1\r\n    ) internal {\r\n        IERC20(_want).safeApprove(_chef, uint256(-1));\r\n        IERC20(_output).safeApprove(_unirouter, uint256(-1));\r\n\r\n        IERC20(_lpToken0).safeApprove(_unirouter, 0);\r\n        IERC20(_lpToken0).safeApprove(_unirouter, uint256(-1));\r\n\r\n        IERC20(_lpToken1).safeApprove(_unirouter, 0);\r\n        IERC20(_lpToken1).safeApprove(_unirouter, uint256(-1));\r\n    }\r\n\r\n    function _removeAllowances() internal {\r\n        IERC20(want).safeApprove(chef, 0);\r\n        IERC20(output).safeApprove(unirouter, 0);\r\n        IERC20(lpToken0).safeApprove(unirouter, 0);\r\n        IERC20(lpToken1).safeApprove(unirouter, 0);\r\n    }\r\n\r\n    function routeToNative() external view returns(address[] memory) {\r\n        return toNativeRoute;\r\n    }\r\n\r\n    function routeToLp0() external view returns(address[] memory) {\r\n        return toLp0Route;\r\n    }\r\n\r\n    function routeToLp1() external view returns(address[] memory) {\r\n        return toLp1Route;\r\n    }\r\n}",
  "sourcePath": "I:\\13-GithubWork\\Plutus-Staking\\contracts\\pools\\ALU-BNB\\Common\\StrategyCommonChefLP.sol",
  "compiler": {
    "name": "solc",
    "version": "0.6.12+commit.27d51765.Emscripten.clang"
  },
  "schemaVersion": "3.4.1",
  "updatedAt": "2021-07-19T02:08:08.763Z",
  "devdoc": {
    "events": {
      "StratHarvest(address)": {
        "details": "Event that is fired each time someone harvests the strat."
      }
    },
    "kind": "dev",
    "methods": {
      "beforeDeposit()": {
        "details": "Function to synchronize balances before new user deposit. Can be overridden in the strategy."
      },
      "owner()": {
        "details": "Returns the address of the current owner."
      },
      "paused()": {
        "details": "Returns true if the contract is paused, and false otherwise."
      },
      "renounceOwnership()": {
        "details": "Leaves the contract without owner. It will not be possible to call `onlyOwner` functions anymore. Can only be called by the current owner. NOTE: Renouncing ownership will leave the contract without an owner, thereby removing any functionality that is only available to the owner."
      },
      "setKeeper(address)": {
        "details": "Updates address of the strat keeper.",
        "params": {
          "_keeper": "new keeper address."
        }
      },
      "setPlutusFeeRecipient(address)": {
        "details": "Updates plutus fee recipient.",
        "params": {
          "_plutusFeeRecipient": "new plutus fee recipient address."
        }
      },
      "setStrategist(address)": {
        "details": "Updates address where strategist fee earnings will go.",
        "params": {
          "_strategist": "new strategist address."
        }
      },
      "setUnirouter(address)": {
        "details": "Updates router that will be used for swaps.",
        "params": {
          "_unirouter": "new unirouter address."
        }
      },
      "setVault(address)": {
        "details": "Updates parent vault.",
        "params": {
          "_vault": "new vault address."
        }
      },
      "transferOwnership(address)": {
        "details": "Transfers ownership of the contract to a new account (`newOwner`). Can only be called by the current owner."
      }
    },
    "version": 1
  },
  "userdoc": {
    "kind": "user",
    "methods": {},
    "version": 1
  }
}