{
  "contractName": "StrategyCakeChefLP",
  "abi": [
    {
      "inputs": [
        {
          "internalType": "address",
          "name": "_want",
          "type": "address"
        },
        {
          "internalType": "uint256",
          "name": "_poolId",
          "type": "uint256"
        },
        {
          "internalType": "address",
          "name": "_vault",
          "type": "address"
        },
        {
          "internalType": "address",
          "name": "_unirouter",
          "type": "address"
        },
        {
          "internalType": "address",
          "name": "_keeper",
          "type": "address"
        },
        {
          "internalType": "address",
          "name": "_strategist",
          "type": "address"
        },
        {
          "internalType": "address",
          "name": "_plutusFeeRecipient",
          "type": "address"
        },
        {
          "internalType": "address[]",
          "name": "_outputToNativeRoute",
          "type": "address[]"
        },
        {
          "internalType": "address[]",
          "name": "_outputToLp0Route",
          "type": "address[]"
        },
        {
          "internalType": "address[]",
          "name": "_outputToLp1Route",
          "type": "address[]"
        }
      ],
      "stateMutability": "nonpayable",
      "type": "constructor"
    },
    {
      "anonymous": false,
      "inputs": [
        {
          "indexed": true,
          "internalType": "address",
          "name": "previousOwner",
          "type": "address"
        },
        {
          "indexed": true,
          "internalType": "address",
          "name": "newOwner",
          "type": "address"
        }
      ],
      "name": "OwnershipTransferred",
      "type": "event"
    },
    {
      "anonymous": false,
      "inputs": [
        {
          "indexed": false,
          "internalType": "address",
          "name": "account",
          "type": "address"
        }
      ],
      "name": "Paused",
      "type": "event"
    },
    {
      "anonymous": false,
      "inputs": [
        {
          "indexed": true,
          "internalType": "address",
          "name": "harvester",
          "type": "address"
        }
      ],
      "name": "StratHarvest",
      "type": "event"
    },
    {
      "anonymous": false,
      "inputs": [
        {
          "indexed": false,
          "internalType": "address",
          "name": "account",
          "type": "address"
        }
      ],
      "name": "Unpaused",
      "type": "event"
    },
    {
      "inputs": [],
      "name": "MAX_CALL_FEE",
      "outputs": [
        {
          "internalType": "uint256",
          "name": "",
          "type": "uint256"
        }
      ],
      "stateMutability": "view",
      "type": "function"
    },
    {
      "inputs": [],
      "name": "MAX_FEE",
      "outputs": [
        {
          "internalType": "uint256",
          "name": "",
          "type": "uint256"
        }
      ],
      "stateMutability": "view",
      "type": "function"
    },
    {
      "inputs": [],
      "name": "STRATEGIST_FEE",
      "outputs": [
        {
          "internalType": "uint256",
          "name": "",
          "type": "uint256"
        }
      ],
      "stateMutability": "view",
      "type": "function"
    },
    {
      "inputs": [],
      "name": "WITHDRAWAL_FEE_CAP",
      "outputs": [
        {
          "internalType": "uint256",
          "name": "",
          "type": "uint256"
        }
      ],
      "stateMutability": "view",
      "type": "function"
    },
    {
      "inputs": [],
      "name": "WITHDRAWAL_MAX",
      "outputs": [
        {
          "internalType": "uint256",
          "name": "",
          "type": "uint256"
        }
      ],
      "stateMutability": "view",
      "type": "function"
    },
    {
      "inputs": [],
      "name": "balanceOf",
      "outputs": [
        {
          "internalType": "uint256",
          "name": "",
          "type": "uint256"
        }
      ],
      "stateMutability": "view",
      "type": "function"
    },
    {
      "inputs": [],
      "name": "balanceOfPool",
      "outputs": [
        {
          "internalType": "uint256",
          "name": "",
          "type": "uint256"
        }
      ],
      "stateMutability": "view",
      "type": "function"
    },
    {
      "inputs": [],
      "name": "balanceOfWant",
      "outputs": [
        {
          "internalType": "uint256",
          "name": "",
          "type": "uint256"
        }
      ],
      "stateMutability": "view",
      "type": "function"
    },
    {
      "inputs": [],
      "name": "beforeDeposit",
      "outputs": [],
      "stateMutability": "nonpayable",
      "type": "function"
    },
    {
      "inputs": [],
      "name": "callFee",
      "outputs": [
        {
          "internalType": "uint256",
          "name": "",
          "type": "uint256"
        }
      ],
      "stateMutability": "view",
      "type": "function"
    },
    {
      "inputs": [],
      "name": "chef",
      "outputs": [
        {
          "internalType": "address",
          "name": "",
          "type": "address"
        }
      ],
      "stateMutability": "view",
      "type": "function"
    },
    {
      "inputs": [],
      "name": "deposit",
      "outputs": [],
      "stateMutability": "nonpayable",
      "type": "function"
    },
    {
      "inputs": [],
      "name": "gasprice",
      "outputs": [
        {
          "internalType": "address",
          "name": "",
          "type": "address"
        }
      ],
      "stateMutability": "view",
      "type": "function"
    },
    {
      "inputs": [],
      "name": "isNativeRoutes",
      "outputs": [
        {
          "internalType": "bool",
          "name": "",
          "type": "bool"
        }
      ],
      "stateMutability": "view",
      "type": "function"
    },
    {
      "inputs": [],
      "name": "keeper",
      "outputs": [
        {
          "internalType": "address",
          "name": "",
          "type": "address"
        }
      ],
      "stateMutability": "view",
      "type": "function"
    },
    {
      "inputs": [],
      "name": "lpToken0",
      "outputs": [
        {
          "internalType": "address",
          "name": "",
          "type": "address"
        }
      ],
      "stateMutability": "view",
      "type": "function"
    },
    {
      "inputs": [],
      "name": "lpToken1",
      "outputs": [
        {
          "internalType": "address",
          "name": "",
          "type": "address"
        }
      ],
      "stateMutability": "view",
      "type": "function"
    },
    {
      "inputs": [],
      "name": "native",
      "outputs": [
        {
          "internalType": "address",
          "name": "",
          "type": "address"
        }
      ],
      "stateMutability": "view",
      "type": "function"
    },
    {
      "inputs": [],
      "name": "output",
      "outputs": [
        {
          "internalType": "address",
          "name": "",
          "type": "address"
        }
      ],
      "stateMutability": "view",
      "type": "function"
    },
    {
      "inputs": [],
      "name": "owner",
      "outputs": [
        {
          "internalType": "address",
          "name": "",
          "type": "address"
        }
      ],
      "stateMutability": "view",
      "type": "function"
    },
    {
      "inputs": [],
      "name": "panic",
      "outputs": [],
      "stateMutability": "nonpayable",
      "type": "function"
    },
    {
      "inputs": [],
      "name": "pause",
      "outputs": [],
      "stateMutability": "nonpayable",
      "type": "function"
    },
    {
      "inputs": [],
      "name": "paused",
      "outputs": [
        {
          "internalType": "bool",
          "name": "",
          "type": "bool"
        }
      ],
      "stateMutability": "view",
      "type": "function"
    },
    {
      "inputs": [],
      "name": "plutusFee",
      "outputs": [
        {
          "internalType": "uint256",
          "name": "",
          "type": "uint256"
        }
      ],
      "stateMutability": "view",
      "type": "function"
    },
    {
      "inputs": [],
      "name": "plutusFeeRecipient",
      "outputs": [
        {
          "internalType": "address",
          "name": "",
          "type": "address"
        }
      ],
      "stateMutability": "view",
      "type": "function"
    },
    {
      "inputs": [],
      "name": "poolId",
      "outputs": [
        {
          "internalType": "uint256",
          "name": "",
          "type": "uint256"
        }
      ],
      "stateMutability": "view",
      "type": "function"
    },
    {
      "inputs": [],
      "name": "renounceOwnership",
      "outputs": [],
      "stateMutability": "nonpayable",
      "type": "function"
    },
    {
      "inputs": [],
      "name": "retireStrat",
      "outputs": [],
      "stateMutability": "nonpayable",
      "type": "function"
    },
    {
      "inputs": [],
      "name": "routeToLp0",
      "outputs": [
        {
          "internalType": "address[]",
          "name": "",
          "type": "address[]"
        }
      ],
      "stateMutability": "view",
      "type": "function"
    },
    {
      "inputs": [],
      "name": "routeToLp1",
      "outputs": [
        {
          "internalType": "address[]",
          "name": "",
          "type": "address[]"
        }
      ],
      "stateMutability": "view",
      "type": "function"
    },
    {
      "inputs": [],
      "name": "routeToNative",
      "outputs": [
        {
          "internalType": "address[]",
          "name": "",
          "type": "address[]"
        }
      ],
      "stateMutability": "view",
      "type": "function"
    },
    {
      "inputs": [
        {
          "internalType": "uint256",
          "name": "_fee",
          "type": "uint256"
        }
      ],
      "name": "setCallFee",
      "outputs": [],
      "stateMutability": "nonpayable",
      "type": "function"
    },
    {
      "inputs": [
        {
          "internalType": "address",
          "name": "_keeper",
          "type": "address"
        }
      ],
      "name": "setKeeper",
      "outputs": [],
      "stateMutability": "nonpayable",
      "type": "function"
    },
    {
      "inputs": [
        {
          "internalType": "address",
          "name": "_plutusFeeRecipient",
          "type": "address"
        }
      ],
      "name": "setPlutusFeeRecipient",
      "outputs": [],
      "stateMutability": "nonpayable",
      "type": "function"
    },
    {
      "inputs": [
        {
          "internalType": "address",
          "name": "_strategist",
          "type": "address"
        }
      ],
      "name": "setStrategist",
      "outputs": [],
      "stateMutability": "nonpayable",
      "type": "function"
    },
    {
      "inputs": [
        {
          "internalType": "address",
          "name": "_unirouter",
          "type": "address"
        }
      ],
      "name": "setUnirouter",
      "outputs": [],
      "stateMutability": "nonpayable",
      "type": "function"
    },
    {
      "inputs": [
        {
          "internalType": "address",
          "name": "_vault",
          "type": "address"
        }
      ],
      "name": "setVault",
      "outputs": [],
      "stateMutability": "nonpayable",
      "type": "function"
    },
    {
      "inputs": [
        {
          "internalType": "uint256",
          "name": "_fee",
          "type": "uint256"
        }
      ],
      "name": "setWithdrawalFee",
      "outputs": [],
      "stateMutability": "nonpayable",
      "type": "function"
    },
    {
      "inputs": [],
      "name": "strategist",
      "outputs": [
        {
          "internalType": "address",
          "name": "",
          "type": "address"
        }
      ],
      "stateMutability": "view",
      "type": "function"
    },
    {
      "inputs": [
        {
          "internalType": "uint256",
          "name": "",
          "type": "uint256"
        }
      ],
      "name": "toLp0Route",
      "outputs": [
        {
          "internalType": "address",
          "name": "",
          "type": "address"
        }
      ],
      "stateMutability": "view",
      "type": "function"
    },
    {
      "inputs": [
        {
          "internalType": "uint256",
          "name": "",
          "type": "uint256"
        }
      ],
      "name": "toLp1Route",
      "outputs": [
        {
          "internalType": "address",
          "name": "",
          "type": "address"
        }
      ],
      "stateMutability": "view",
      "type": "function"
    },
    {
      "inputs": [
        {
          "internalType": "uint256",
          "name": "",
          "type": "uint256"
        }
      ],
      "name": "toNativeRoute",
      "outputs": [
        {
          "internalType": "address",
          "name": "",
          "type": "address"
        }
      ],
      "stateMutability": "view",
      "type": "function"
    },
    {
      "inputs": [
        {
          "internalType": "address",
          "name": "newOwner",
          "type": "address"
        }
      ],
      "name": "transferOwnership",
      "outputs": [],
      "stateMutability": "nonpayable",
      "type": "function"
    },
    {
      "inputs": [],
      "name": "unirouter",
      "outputs": [
        {
          "internalType": "address",
          "name": "",
          "type": "address"
        }
      ],
      "stateMutability": "view",
      "type": "function"
    },
    {
      "inputs": [],
      "name": "unpause",
      "outputs": [],
      "stateMutability": "nonpayable",
      "type": "function"
    },
    {
      "inputs": [],
      "name": "vault",
      "outputs": [
        {
          "internalType": "address",
          "name": "",
          "type": "address"
        }
      ],
      "stateMutability": "view",
      "type": "function"
    },
    {
      "inputs": [],
      "name": "want",
      "outputs": [
        {
          "internalType": "address",
          "name": "",
          "type": "address"
        }
      ],
      "stateMutability": "view",
      "type": "function"
    },
    {
      "inputs": [
        {
          "internalType": "uint256",
          "name": "_amount",
          "type": "uint256"
        }
      ],
      "name": "withdraw",
      "outputs": [],
      "stateMutability": "nonpayable",
      "type": "function"
    },
    {
      "inputs": [],
      "name": "withdrawalFee",
      "outputs": [
        {
          "internalType": "uint256",
          "name": "",
          "type": "uint256"
        }
      ],
      "stateMutability": "view",
      "type": "function"
    },
    {
      "inputs": [],
      "name": "harvest",
      "outputs": [],
      "stateMutability": "nonpayable",
      "type": "function"
    }
  ],
  "bytecode": "0x610180604052600a600655606f60075560075460706103e803036008553480156200002957600080fd5b50604051620065043803806200650483398181016040526101408110156200005057600080fd5b810190808051906020019092919080519060200190929190805190602001909291908051906020019092919080519060200190929190805190602001909291908051906020019092919080516040519392919084640100000000821115620000b757600080fd5b83820191506020820185811115620000ce57600080fd5b8251866020820283011164010000000082111715620000ec57600080fd5b8083526020830192505050908051906020019060200280838360005b838110156200012557808201518184015260208101905062000108565b50505050905001604052602001805160405193929190846401000000008211156200014f57600080fd5b838201915060208201858111156200016657600080fd5b82518660208202830111640100000000821117156200018457600080fd5b8083526020830192505050908051906020019060200280838360005b83811015620001bd578082015181840152602081019050620001a0565b5050505090500160405260200180516040519392919084640100000000821115620001e757600080fd5b83820191506020820185811115620001fe57600080fd5b82518660208202830111640100000000821117156200021c57600080fd5b8083526020830192505050908051906020019060200280838360005b838110156200025557808201518184015260208101905062000238565b50505050905001604052505050898973f7d79ed76954530126e040dec97bc26bf62bf3b68a8a8a8a8a8a8a8a8585888a8760006200029862000b1260201b60201c565b9050806000806101000a81548173ffffffffffffffffffffffffffffffffffffffff021916908373ffffffffffffffffffffffffffffffffffffffff1602179055508073ffffffffffffffffffffffffffffffffffffffff16600073ffffffffffffffffffffffffffffffffffffffff167f8be0079c531659141344cd1fd0a4f28419497f9722a3daafe3b4186f6b6457e060405160405180910390a35060008060146101000a81548160ff02191690831515021790555084600160006101000a81548173ffffffffffffffffffffffffffffffffffffffff021916908373ffffffffffffffffffffffffffffffffffffffff16021790555083600260006101000a81548173ffffffffffffffffffffffffffffffffffffffff021916908373ffffffffffffffffffffffffffffffffffffffff16021790555082600360006101000a81548173ffffffffffffffffffffffffffffffffffffffff021916908373ffffffffffffffffffffffffffffffffffffffff16021790555081600460006101000a81548173ffffffffffffffffffffffffffffffffffffffff021916908373ffffffffffffffffffffffffffffffffffffffff16021790555080600560006101000a81548173ffffffffffffffffffffffffffffffffffffffff021916908373ffffffffffffffffffffffffffffffffffffffff16021790555050505050508a73ffffffffffffffffffffffffffffffffffffffff1660c08173ffffffffffffffffffffffffffffffffffffffff1660601b815250508961014081815250508873ffffffffffffffffffffffffffffffffffffffff166101208173ffffffffffffffffffffffffffffffffffffffff1660601b815250506000836000815181106200052257fe5b60200260200101519050600073ffffffffffffffffffffffffffffffffffffffff168173ffffffffffffffffffffffffffffffffffffffff161415620005d0576040517f08c379a00000000000000000000000000000000000000000000000000000000081526004018080602001828103825260078152602001807f216f75747075740000000000000000000000000000000000000000000000000081525060200191505060405180910390fd5b8073ffffffffffffffffffffffffffffffffffffffff1660a08173ffffffffffffffffffffffffffffffffffffffff1660601b815250506000846001865103815181106200061a57fe5b60200260200101519050600073ffffffffffffffffffffffffffffffffffffffff168173ffffffffffffffffffffffffffffffffffffffff161415620006c8576040517f08c379a00000000000000000000000000000000000000000000000000000000081526004018080602001828103825260078152602001807f216e61746976650000000000000000000000000000000000000000000000000081525060200191505060405180910390fd5b8073ffffffffffffffffffffffffffffffffffffffff1660808173ffffffffffffffffffffffffffffffffffffffff1660601b8152505084600990805190602001906200071792919062001262565b5060008d73ffffffffffffffffffffffffffffffffffffffff16630dfe16816040518163ffffffff1660e01b815260040160206040518083038186803b1580156200076157600080fd5b505afa15801562000776573d6000803e3d6000fd5b505050506040513d60208110156200078d57600080fd5b8101908080519060200190929190505050905084600186510381518110620007b157fe5b602002602001015173ffffffffffffffffffffffffffffffffffffffff168173ffffffffffffffffffffffffffffffffffffffff16146200085a576040517f08c379a00000000000000000000000000000000000000000000000000000000081526004018080602001828103825260078152602001807f21746f6b656e300000000000000000000000000000000000000000000000000081525060200191505060405180910390fd5b84600a90805190602001906200087292919062001262565b508073ffffffffffffffffffffffffffffffffffffffff1660e08173ffffffffffffffffffffffffffffffffffffffff1660601b8152505060008e73ffffffffffffffffffffffffffffffffffffffff1663d21220a76040518163ffffffff1660e01b815260040160206040518083038186803b158015620008f357600080fd5b505afa15801562000908573d6000803e3d6000fd5b505050506040513d60208110156200091f57600080fd5b81019080805190602001909291905050509050846001865103815181106200094357fe5b602002602001015173ffffffffffffffffffffffffffffffffffffffff168173ffffffffffffffffffffffffffffffffffffffff1614620009ec576040517f08c379a00000000000000000000000000000000000000000000000000000000081526004018080602001828103825260078152602001807f21746f6b656e310000000000000000000000000000000000000000000000000081525060200191505060405180910390fd5b84600b908051906020019062000a0492919062001262565b508073ffffffffffffffffffffffffffffffffffffffff166101008173ffffffffffffffffffffffffffffffffffffffff1660601b815250508273ffffffffffffffffffffffffffffffffffffffff168660008151811062000a6257fe5b602002602001015173ffffffffffffffffffffffffffffffffffffffff1614801562000ace57508273ffffffffffffffffffffffffffffffffffffffff168560008151811062000aae57fe5b602002602001015173ffffffffffffffffffffffffffffffffffffffff16145b151561016081151560f81b8152505062000af38f8e868e868662000b1a60201b60201c565b505050505050505050505050505050505050505050505050506200132e565b600033905090565b62000b6c857fffffffffffffffffffffffffffffffffffffffffffffffffffffffffffffffff8873ffffffffffffffffffffffffffffffffffffffff1662000cd060201b62002cb9179092919060201c565b62000bbe837fffffffffffffffffffffffffffffffffffffffffffffffffffffffffffffffff8673ffffffffffffffffffffffffffffffffffffffff1662000cd060201b62002cb9179092919060201c565b62000bf18360008473ffffffffffffffffffffffffffffffffffffffff1662000cd060201b62002cb9179092919060201c565b62000c43837fffffffffffffffffffffffffffffffffffffffffffffffffffffffffffffffff8473ffffffffffffffffffffffffffffffffffffffff1662000cd060201b62002cb9179092919060201c565b62000c768360008373ffffffffffffffffffffffffffffffffffffffff1662000cd060201b62002cb9179092919060201c565b62000cc8837fffffffffffffffffffffffffffffffffffffffffffffffffffffffffffffffff8373ffffffffffffffffffffffffffffffffffffffff1662000cd060201b62002cb9179092919060201c565b505050505050565b600081148062000da2575060008373ffffffffffffffffffffffffffffffffffffffff1663dd62ed3e30856040518363ffffffff1660e01b8152600401808373ffffffffffffffffffffffffffffffffffffffff1681526020018273ffffffffffffffffffffffffffffffffffffffff1681526020019250505060206040518083038186803b15801562000d6357600080fd5b505afa15801562000d78573d6000803e3d6000fd5b505050506040513d602081101562000d8f57600080fd5b8101908080519060200190929190505050145b62000df9576040517f08c379a0000000000000000000000000000000000000000000000000000000008152600401808060200182810382526036815260200180620064ce6036913960400191505060405180910390fd5b62000e9e8363095ea7b360e01b8484604051602401808373ffffffffffffffffffffffffffffffffffffffff16815260200182815260200192505050604051602081830303815290604052907bffffffffffffffffffffffffffffffffffffffffffffffffffffffff19166020820180517bffffffffffffffffffffffffffffffffffffffffffffffffffffffff838183161783525050505062000ea360201b60201c565b505050565b606062000f0c826040518060400160405280602081526020017f5361666545524332303a206c6f772d6c6576656c2063616c6c206661696c65648152508573ffffffffffffffffffffffffffffffffffffffff1662000f9d60201b62002e7e179092919060201c565b905060008151111562000f985780806020019051602081101562000f2f57600080fd5b810190808051906020019092919050505062000f97576040517f08c379a000000000000000000000000000000000000000000000000000000000815260040180806020018281038252602a815260200180620064a4602a913960400191505060405180910390fd5b5b505050565b606062000fb4848460008562000fbd60201b60201c565b90509392505050565b6060824710156200101a576040517f08c379a00000000000000000000000000000000000000000000000000000000081526004018080602001828103825260268152602001806200647e6026913960400191505060405180910390fd5b6200102b856200117d60201b60201c565b6200109e576040517f08c379a000000000000000000000000000000000000000000000000000000000815260040180806020018281038252601d8152602001807f416464726573733a2063616c6c20746f206e6f6e2d636f6e747261637400000081525060200191505060405180910390fd5b600060608673ffffffffffffffffffffffffffffffffffffffff1685876040518082805190602001908083835b60208310620010f05780518252602082019150602081019050602083039250620010cb565b6001836020036101000a03801982511681845116808217855250505050505090500191505060006040518083038185875af1925050503d806000811462001154576040519150601f19603f3d011682016040523d82523d6000602084013e62001159565b606091505b5091509150620011718282866200119060201b60201c565b92505050949350505050565b600080823b905060008111915050919050565b60608315620011a2578290506200125b565b600083511115620011b65782518084602001fd5b816040517f08c379a00000000000000000000000000000000000000000000000000000000081526004018080602001828103825283818151815260200191508051906020019080838360005b838110156200121f57808201518184015260208101905062001202565b50505050905090810190601f1680156200124d5780820380516001836020036101000a031916815260200191505b509250505060405180910390fd5b9392505050565b828054828255906000526020600020908101928215620012de579160200282015b82811115620012dd5782518260006101000a81548173ffffffffffffffffffffffffffffffffffffffff021916908373ffffffffffffffffffffffffffffffffffffffff1602179055509160200191906001019062001283565b5b509050620012ed9190620012f1565b5090565b5b808211156200132a57600081816101000a81549073ffffffffffffffffffffffffffffffffffffffff021916905550600101620012f2565b5090565b60805160601c60a05160601c60c05160601c60e05160601c6101005160601c6101205160601c610140516101605160f81c614ff7620014876000398061254d5280613460525080610cf2528061125c528061152452806118f852806124d25280612a3252806133e8525080610cb65280610e89528061122052806118bc528061249652806129f652806131e252806133ac52806136ba525080611f3452806132685280613827528061436752806146635280614786525080611a15528061324752806137b9528061411c528061459d5280614765525080610e65528061115452806112e5528061142752806114d8528061217e52806123c95280612aa35280612b6752806131c152806136dd525080612669528061320352806134cf528061374b5280613c9552806148bc525080610db352806134995280613f605280614b955280614d775280614e115280614eaa5250614ff76000f3fe608060405234801561001057600080fd5b50600436106102d65760003560e01c8063748747e611610182578063c1a3d44c116100e9578063f20eaeb8116100a2578063f4c832e01161007c578063f4c832e014610ac9578063fb61778714610b28578063fb6aa4a814610b32578063fbfa77cf14610b8a576102d6565b8063f20eaeb814610a1d578063f2fde38b14610a51578063f315ac2e14610a95576102d6565b8063c1a3d44c1461092f578063c7b9d5301461094d578063d0e30db014610991578063d6a29da21461099b578063d92f3d73146109bb578063dfbdc437146109ff576102d6565b80638da5cb5b1161013b5780638da5cb5b1461080557806390321e1a14610839578063abc728d314610857578063ac1e5025146108af578063aced1661146108dd578063bc063e1a14610911576102d6565b8063748747e6146107295780637d38ca651461076d5780638456cb591461078b578063877562b6146107955780638bc7e8c4146107c95780638ca23fad146107e7576102d6565b80633f4ba83a11610241578063573fef0a116101fa5780636817031b116101d45780636817031b146106895780636ec232d3146106cd578063715018a614610701578063722713f71461070b576102d6565b8063573fef0a1461062b5780635c975abb146106355780635ee167c014610655576102d6565b80633f4ba83a1461053857806343144d18146105425780634641257d1461059a5780634700d305146105a45780634b86f745146105ae57806354518b1a1461060d576102d6565b80631fe4a686116102935780631fe4a68614610438578063257ae0de1461046c57806326465826146104a05780632ad5a53f146104ce5780632e1a7d4d146104ec5780633e0dc34e1461051a576102d6565b806310b487d6146102db578063115880861461031f57806311b0b42d1461033d5780631dca33e9146103715780631f1fcd51146103d05780631fc8bc5d14610404575b600080fd5b61031d600480360360208110156102f157600080fd5b81019080803573ffffffffffffffffffffffffffffffffffffffff169060200190929190505050610bbe565b005b610327610cb1565b6040518082815260200191505060405180910390f35b610345610db1565b604051808273ffffffffffffffffffffffffffffffffffffffff16815260200191505060405180910390f35b610379610dd5565b6040518080602001828103825283818151815260200191508051906020019060200280838360005b838110156103bc5780820151818401526020810190506103a1565b505050509050019250505060405180910390f35b6103d8610e63565b604051808273ffffffffffffffffffffffffffffffffffffffff16815260200191505060405180910390f35b61040c610e87565b604051808273ffffffffffffffffffffffffffffffffffffffff16815260200191505060405180910390f35b610440610eab565b604051808273ffffffffffffffffffffffffffffffffffffffff16815260200191505060405180910390f35b610474610ed1565b604051808273ffffffffffffffffffffffffffffffffffffffff16815260200191505060405180910390f35b6104cc600480360360208110156104b657600080fd5b8101908080359060200190929190505050610ef7565b005b6104d6611088565b6040518082815260200191505060405180910390f35b6105186004803603602081101561050257600080fd5b810190808035906020019092919050505061108d565b005b610522611522565b6040518082815260200191505060405180910390f35b610540611546565b005b61056e6004803603602081101561055857600080fd5b8101908080359060200190929190505050611660565b604051808273ffffffffffffffffffffffffffffffffffffffff16815260200191505060405180910390f35b6105a261169c565b005b6105ac6117b2565b005b6105b6611967565b6040518080602001828103825283818151815260200191508051906020019060200280838360005b838110156105f95780820151818401526020810190506105de565b505050509050019250505060405180910390f35b6106156119f5565b6040518082815260200191505060405180910390f35b6106336119fb565b005b61063d6119fd565b60405180821515815260200191505060405180910390f35b61065d611a13565b604051808273ffffffffffffffffffffffffffffffffffffffff16815260200191505060405180910390f35b6106cb6004803603602081101561069f57600080fd5b81019080803573ffffffffffffffffffffffffffffffffffffffff169060200190929190505050611a37565b005b6106d5611b2a565b604051808273ffffffffffffffffffffffffffffffffffffffff16815260200191505060405180910390f35b610709611b42565b005b610713611caf565b6040518082815260200191505060405180910390f35b61076b6004803603602081101561073f57600080fd5b81019080803573ffffffffffffffffffffffffffffffffffffffff169060200190929190505050611cd7565b005b610775611e1b565b6040518082815260200191505060405180910390f35b610793611e20565b005b61079d611f32565b604051808273ffffffffffffffffffffffffffffffffffffffff16815260200191505060405180910390f35b6107d1611f56565b6040518082815260200191505060405180910390f35b6107ef611f5c565b6040518082815260200191505060405180910390f35b61080d611f62565b604051808273ffffffffffffffffffffffffffffffffffffffff16815260200191505060405180910390f35b610841611f8b565b6040518082815260200191505060405180910390f35b6108836004803603602081101561086d57600080fd5b8101908080359060200190929190505050611f91565b604051808273ffffffffffffffffffffffffffffffffffffffff16815260200191505060405180910390f35b6108db600480360360208110156108c557600080fd5b8101908080359060200190929190505050611fcd565b005b6108e561214e565b604051808273ffffffffffffffffffffffffffffffffffffffff16815260200191505060405180910390f35b610919612174565b6040518082815260200191505060405180910390f35b61093761217a565b6040518082815260200191505060405180910390f35b61098f6004803603602081101561096357600080fd5b81019080803573ffffffffffffffffffffffffffffffffffffffff169060200190929190505050612243565b005b61099961234a565b005b6109a361254b565b60405180821515815260200191505060405180910390f35b6109fd600480360360208110156109d157600080fd5b81019080803573ffffffffffffffffffffffffffffffffffffffff16906020019092919050505061256f565b005b610a07612662565b6040518082815260200191505060405180910390f35b610a25612667565b604051808273ffffffffffffffffffffffffffffffffffffffff16815260200191505060405180910390f35b610a9360048036036020811015610a6757600080fd5b81019080803573ffffffffffffffffffffffffffffffffffffffff16906020019092919050505061268b565b005b610a9d61287d565b604051808273ffffffffffffffffffffffffffffffffffffffff16815260200191505060405180910390f35b610ad16128a3565b6040518080602001828103825283818151815260200191508051906020019060200280838360005b83811015610b14578082015181840152602081019050610af9565b505050509050019250505060405180910390f35b610b30612931565b005b610b5e60048036036020811015610b4857600080fd5b8101908080359060200190929190505050612c57565b604051808273ffffffffffffffffffffffffffffffffffffffff16815260200191505060405180910390f35b610b92612c93565b604051808273ffffffffffffffffffffffffffffffffffffffff16815260200191505060405180910390f35b610bc6612e96565b73ffffffffffffffffffffffffffffffffffffffff16610be4611f62565b73ffffffffffffffffffffffffffffffffffffffff1614610c6d576040517f08c379a00000000000000000000000000000000000000000000000000000000081526004018080602001828103825260208152602001807f4f776e61626c653a2063616c6c6572206973206e6f7420746865206f776e657281525060200191505060405180910390fd5b80600560006101000a81548173ffffffffffffffffffffffffffffffffffffffff021916908373ffffffffffffffffffffffffffffffffffffffff16021790555050565b6000807f000000000000000000000000000000000000000000000000000000000000000073ffffffffffffffffffffffffffffffffffffffff166393f1a40b7f0000000000000000000000000000000000000000000000000000000000000000306040518363ffffffff1660e01b8152600401808381526020018273ffffffffffffffffffffffffffffffffffffffff16815260200192505050604080518083038186803b158015610d6257600080fd5b505afa158015610d76573d6000803e3d6000fd5b505050506040513d6040811015610d8c57600080fd5b8101908080519060200190929190805190602001909291905050505090508091505090565b7f000000000000000000000000000000000000000000000000000000000000000081565b60606009805480602002602001604051908101604052809291908181526020018280548015610e5957602002820191906000526020600020905b8160009054906101000a900473ffffffffffffffffffffffffffffffffffffffff1673ffffffffffffffffffffffffffffffffffffffff1681526020019060010190808311610e0f575b5050505050905090565b7f000000000000000000000000000000000000000000000000000000000000000081565b7f000000000000000000000000000000000000000000000000000000000000000081565b600260009054906101000a900473ffffffffffffffffffffffffffffffffffffffff1681565b600360009054906101000a900473ffffffffffffffffffffffffffffffffffffffff1681565b610eff611f62565b73ffffffffffffffffffffffffffffffffffffffff163373ffffffffffffffffffffffffffffffffffffffff161480610f855750600160009054906101000a900473ffffffffffffffffffffffffffffffffffffffff1673ffffffffffffffffffffffffffffffffffffffff163373ffffffffffffffffffffffffffffffffffffffff16145b610ff7576040517f08c379a00000000000000000000000000000000000000000000000000000000081526004018080602001828103825260088152602001807f216d616e6167657200000000000000000000000000000000000000000000000081525060200191505060405180910390fd5b606f81111561106e576040517f08c379a00000000000000000000000000000000000000000000000000000000081526004018080602001828103825260048152602001807f216361700000000000000000000000000000000000000000000000000000000081525060200191505060405180910390fd5b8060078190555060075460706103e8030360088190555050565b606f81565b600460009054906101000a900473ffffffffffffffffffffffffffffffffffffffff1673ffffffffffffffffffffffffffffffffffffffff163373ffffffffffffffffffffffffffffffffffffffff1614611150576040517f08c379a00000000000000000000000000000000000000000000000000000000081526004018080602001828103825260068152602001807f217661756c74000000000000000000000000000000000000000000000000000081525060200191505060405180910390fd5b60007f000000000000000000000000000000000000000000000000000000000000000073ffffffffffffffffffffffffffffffffffffffff166370a08231306040518263ffffffff1660e01b8152600401808273ffffffffffffffffffffffffffffffffffffffff16815260200191505060206040518083038186803b1580156111d957600080fd5b505afa1580156111ed573d6000803e3d6000fd5b505050506040513d602081101561120357600080fd5b81019080805190602001909291905050509050818110156113a8577f000000000000000000000000000000000000000000000000000000000000000073ffffffffffffffffffffffffffffffffffffffff1663441a3e707f000000000000000000000000000000000000000000000000000000000000000061128e8486612e9e90919063ffffffff16565b6040518363ffffffff1660e01b81526004018083815260200182815260200192505050600060405180830381600087803b1580156112cb57600080fd5b505af11580156112df573d6000803e3d6000fd5b505050507f000000000000000000000000000000000000000000000000000000000000000073ffffffffffffffffffffffffffffffffffffffff166370a08231306040518263ffffffff1660e01b8152600401808273ffffffffffffffffffffffffffffffffffffffff16815260200191505060206040518083038186803b15801561136a57600080fd5b505afa15801561137e573d6000803e3d6000fd5b505050506040513d602081101561139457600080fd5b810190808051906020019092919050505090505b818111156113b4578190505b6113bc611f62565b73ffffffffffffffffffffffffffffffffffffffff163273ffffffffffffffffffffffffffffffffffffffff1614806113f957506113f86119fd565b5b156114705761146b600460009054906101000a900473ffffffffffffffffffffffffffffffffffffffff16827f000000000000000000000000000000000000000000000000000000000000000073ffffffffffffffffffffffffffffffffffffffff16612f219092919063ffffffff16565b61151e565b600061149b61271061148d60065485612fc390919063ffffffff16565b61304990919063ffffffff16565b905061151c600460009054906101000a900473ffffffffffffffffffffffffffffffffffffffff166114d68385612e9e90919063ffffffff16565b7f000000000000000000000000000000000000000000000000000000000000000073ffffffffffffffffffffffffffffffffffffffff16612f219092919063ffffffff16565b505b5050565b7f000000000000000000000000000000000000000000000000000000000000000081565b61154e611f62565b73ffffffffffffffffffffffffffffffffffffffff163373ffffffffffffffffffffffffffffffffffffffff1614806115d45750600160009054906101000a900473ffffffffffffffffffffffffffffffffffffffff1673ffffffffffffffffffffffffffffffffffffffff163373ffffffffffffffffffffffffffffffffffffffff16145b611646576040517f08c379a00000000000000000000000000000000000000000000000000000000081526004018080602001828103825260088152602001807f216d616e6167657200000000000000000000000000000000000000000000000081525060200191505060405180910390fd5b61164e6130d2565b6116566131bc565b61165e61234a565b565b600a818154811061166d57fe5b906000526020600020016000915054906101000a900473ffffffffffffffffffffffffffffffffffffffff1681565b7316cd932c494ac1b3452d6c8453fb7665ab49ec6b73ffffffffffffffffffffffffffffffffffffffff16633de39c116040518163ffffffff1660e01b8152600401602060405180830381600087803b1580156116f857600080fd5b505af115801561170c573d6000803e3d6000fd5b505050506040513d602081101561172257600080fd5b81019080805190602001909291905050503a11156117a8576040517f08c379a00000000000000000000000000000000000000000000000000000000081526004018080602001828103825260108152602001807f67617320697320746f6f2068696768210000000000000000000000000000000081525060200191505060405180910390fd5b6117b061328e565b565b6117ba611f62565b73ffffffffffffffffffffffffffffffffffffffff163373ffffffffffffffffffffffffffffffffffffffff1614806118405750600160009054906101000a900473ffffffffffffffffffffffffffffffffffffffff1673ffffffffffffffffffffffffffffffffffffffff163373ffffffffffffffffffffffffffffffffffffffff16145b6118b2576040517f08c379a00000000000000000000000000000000000000000000000000000000081526004018080602001828103825260088152602001807f216d616e6167657200000000000000000000000000000000000000000000000081525060200191505060405180910390fd5b6118ba611e20565b7f000000000000000000000000000000000000000000000000000000000000000073ffffffffffffffffffffffffffffffffffffffff16635312ea8e7f00000000000000000000000000000000000000000000000000000000000000006040518263ffffffff1660e01b815260040180828152602001915050600060405180830381600087803b15801561194d57600080fd5b505af1158015611961573d6000803e3d6000fd5b50505050565b6060600b8054806020026020016040519081016040528092919081815260200182805480156119eb57602002820191906000526020600020905b8160009054906101000a900473ffffffffffffffffffffffffffffffffffffffff1673ffffffffffffffffffffffffffffffffffffffff16815260200190600101908083116119a1575b5050505050905090565b61271081565b565b60008060149054906101000a900460ff16905090565b7f000000000000000000000000000000000000000000000000000000000000000081565b611a3f612e96565b73ffffffffffffffffffffffffffffffffffffffff16611a5d611f62565b73ffffffffffffffffffffffffffffffffffffffff1614611ae6576040517f08c379a00000000000000000000000000000000000000000000000000000000081526004018080602001828103825260208152602001807f4f776e61626c653a2063616c6c6572206973206e6f7420746865206f776e657281525060200191505060405180910390fd5b80600460006101000a81548173ffffffffffffffffffffffffffffffffffffffff021916908373ffffffffffffffffffffffffffffffffffffffff16021790555050565b7316cd932c494ac1b3452d6c8453fb7665ab49ec6b81565b611b4a612e96565b73ffffffffffffffffffffffffffffffffffffffff16611b68611f62565b73ffffffffffffffffffffffffffffffffffffffff1614611bf1576040517f08c379a00000000000000000000000000000000000000000000000000000000081526004018080602001828103825260208152602001807f4f776e61626c653a2063616c6c6572206973206e6f7420746865206f776e657281525060200191505060405180910390fd5b600073ffffffffffffffffffffffffffffffffffffffff1660008054906101000a900473ffffffffffffffffffffffffffffffffffffffff1673ffffffffffffffffffffffffffffffffffffffff167f8be0079c531659141344cd1fd0a4f28419497f9722a3daafe3b4186f6b6457e060405160405180910390a360008060006101000a81548173ffffffffffffffffffffffffffffffffffffffff021916908373ffffffffffffffffffffffffffffffffffffffff160217905550565b6000611cd2611cbc610cb1565b611cc461217a565b61354190919063ffffffff16565b905090565b611cdf611f62565b73ffffffffffffffffffffffffffffffffffffffff163373ffffffffffffffffffffffffffffffffffffffff161480611d655750600160009054906101000a900473ffffffffffffffffffffffffffffffffffffffff1673ffffffffffffffffffffffffffffffffffffffff163373ffffffffffffffffffffffffffffffffffffffff16145b611dd7576040517f08c379a00000000000000000000000000000000000000000000000000000000081526004018080602001828103825260088152602001807f216d616e6167657200000000000000000000000000000000000000000000000081525060200191505060405180910390fd5b80600160006101000a81548173ffffffffffffffffffffffffffffffffffffffff021916908373ffffffffffffffffffffffffffffffffffffffff16021790555050565b607081565b611e28611f62565b73ffffffffffffffffffffffffffffffffffffffff163373ffffffffffffffffffffffffffffffffffffffff161480611eae5750600160009054906101000a900473ffffffffffffffffffffffffffffffffffffffff1673ffffffffffffffffffffffffffffffffffffffff163373ffffffffffffffffffffffffffffffffffffffff16145b611f20576040517f08c379a00000000000000000000000000000000000000000000000000000000081526004018080602001828103825260088152602001807f216d616e6167657200000000000000000000000000000000000000000000000081525060200191505060405180910390fd5b611f286135c9565b611f306136b5565b565b7f000000000000000000000000000000000000000000000000000000000000000081565b60065481565b60085481565b60008060009054906101000a900473ffffffffffffffffffffffffffffffffffffffff16905090565b60075481565b60098181548110611f9e57fe5b906000526020600020016000915054906101000a900473ffffffffffffffffffffffffffffffffffffffff1681565b611fd5611f62565b73ffffffffffffffffffffffffffffffffffffffff163373ffffffffffffffffffffffffffffffffffffffff16148061205b5750600160009054906101000a900473ffffffffffffffffffffffffffffffffffffffff1673ffffffffffffffffffffffffffffffffffffffff163373ffffffffffffffffffffffffffffffffffffffff16145b6120cd576040517f08c379a00000000000000000000000000000000000000000000000000000000081526004018080602001828103825260088152602001807f216d616e6167657200000000000000000000000000000000000000000000000081525060200191505060405180910390fd5b6032811115612144576040517f08c379a00000000000000000000000000000000000000000000000000000000081526004018080602001828103825260048152602001807f216361700000000000000000000000000000000000000000000000000000000081525060200191505060405180910390fd5b8060068190555050565b600160009054906101000a900473ffffffffffffffffffffffffffffffffffffffff1681565b6103e881565b60007f000000000000000000000000000000000000000000000000000000000000000073ffffffffffffffffffffffffffffffffffffffff166370a08231306040518263ffffffff1660e01b8152600401808273ffffffffffffffffffffffffffffffffffffffff16815260200191505060206040518083038186803b15801561220357600080fd5b505afa158015612217573d6000803e3d6000fd5b505050506040513d602081101561222d57600080fd5b8101908080519060200190929190505050905090565b600260009054906101000a900473ffffffffffffffffffffffffffffffffffffffff1673ffffffffffffffffffffffffffffffffffffffff163373ffffffffffffffffffffffffffffffffffffffff1614612306576040517f08c379a000000000000000000000000000000000000000000000000000000000815260040180806020018281038252600b8152602001807f217374726174656769737400000000000000000000000000000000000000000081525060200191505060405180910390fd5b80600260006101000a81548173ffffffffffffffffffffffffffffffffffffffff021916908373ffffffffffffffffffffffffffffffffffffffff16021790555050565b6123526119fd565b156123c5576040517f08c379a00000000000000000000000000000000000000000000000000000000081526004018080602001828103825260108152602001807f5061757361626c653a207061757365640000000000000000000000000000000081525060200191505060405180910390fd5b60007f000000000000000000000000000000000000000000000000000000000000000073ffffffffffffffffffffffffffffffffffffffff166370a08231306040518263ffffffff1660e01b8152600401808273ffffffffffffffffffffffffffffffffffffffff16815260200191505060206040518083038186803b15801561244e57600080fd5b505afa158015612462573d6000803e3d6000fd5b505050506040513d602081101561247857600080fd5b810190808051906020019092919050505090506000811115612548577f000000000000000000000000000000000000000000000000000000000000000073ffffffffffffffffffffffffffffffffffffffff1663e2bbb1587f0000000000000000000000000000000000000000000000000000000000000000836040518363ffffffff1660e01b81526004018083815260200182815260200192505050600060405180830381600087803b15801561252f57600080fd5b505af1158015612543573d6000803e3d6000fd5b505050505b50565b7f000000000000000000000000000000000000000000000000000000000000000081565b612577612e96565b73ffffffffffffffffffffffffffffffffffffffff16612595611f62565b73ffffffffffffffffffffffffffffffffffffffff161461261e576040517f08c379a00000000000000000000000000000000000000000000000000000000081526004018080602001828103825260208152602001807f4f776e61626c653a2063616c6c6572206973206e6f7420746865206f776e657281525060200191505060405180910390fd5b80600360006101000a81548173ffffffffffffffffffffffffffffffffffffffff021916908373ffffffffffffffffffffffffffffffffffffffff16021790555050565b603281565b7f000000000000000000000000000000000000000000000000000000000000000081565b612693612e96565b73ffffffffffffffffffffffffffffffffffffffff166126b1611f62565b73ffffffffffffffffffffffffffffffffffffffff161461273a576040517f08c379a00000000000000000000000000000000000000000000000000000000081526004018080602001828103825260208152602001807f4f776e61626c653a2063616c6c6572206973206e6f7420746865206f776e657281525060200191505060405180910390fd5b600073ffffffffffffffffffffffffffffffffffffffff168173ffffffffffffffffffffffffffffffffffffffff1614156127c0576040517f08c379a0000000000000000000000000000000000000000000000000000000008152600401808060200182810382526026815260200180614ef56026913960400191505060405180910390fd5b8073ffffffffffffffffffffffffffffffffffffffff1660008054906101000a900473ffffffffffffffffffffffffffffffffffffffff1673ffffffffffffffffffffffffffffffffffffffff167f8be0079c531659141344cd1fd0a4f28419497f9722a3daafe3b4186f6b6457e060405160405180910390a3806000806101000a81548173ffffffffffffffffffffffffffffffffffffffff021916908373ffffffffffffffffffffffffffffffffffffffff16021790555050565b600560009054906101000a900473ffffffffffffffffffffffffffffffffffffffff1681565b6060600a80548060200260200160405190810160405280929190818152602001828054801561292757602002820191906000526020600020905b8160009054906101000a900473ffffffffffffffffffffffffffffffffffffffff1673ffffffffffffffffffffffffffffffffffffffff16815260200190600101908083116128dd575b5050505050905090565b600460009054906101000a900473ffffffffffffffffffffffffffffffffffffffff1673ffffffffffffffffffffffffffffffffffffffff163373ffffffffffffffffffffffffffffffffffffffff16146129f4576040517f08c379a00000000000000000000000000000000000000000000000000000000081526004018080602001828103825260068152602001807f217661756c74000000000000000000000000000000000000000000000000000081525060200191505060405180910390fd5b7f000000000000000000000000000000000000000000000000000000000000000073ffffffffffffffffffffffffffffffffffffffff16635312ea8e7f00000000000000000000000000000000000000000000000000000000000000006040518263ffffffff1660e01b815260040180828152602001915050600060405180830381600087803b158015612a8757600080fd5b505af1158015612a9b573d6000803e3d6000fd5b5050505060007f000000000000000000000000000000000000000000000000000000000000000073ffffffffffffffffffffffffffffffffffffffff166370a08231306040518263ffffffff1660e01b8152600401808273ffffffffffffffffffffffffffffffffffffffff16815260200191505060206040518083038186803b158015612b2857600080fd5b505afa158015612b3c573d6000803e3d6000fd5b505050506040513d6020811015612b5257600080fd5b810190808051906020019092919050505090507f000000000000000000000000000000000000000000000000000000000000000073ffffffffffffffffffffffffffffffffffffffff1663a9059cbb600460009054906101000a900473ffffffffffffffffffffffffffffffffffffffff16836040518363ffffffff1660e01b8152600401808373ffffffffffffffffffffffffffffffffffffffff16815260200182815260200192505050602060405180830381600087803b158015612c1857600080fd5b505af1158015612c2c573d6000803e3d6000fd5b505050506040513d6020811015612c4257600080fd5b81019080805190602001909291905050505050565b600b8181548110612c6457fe5b906000526020600020016000915054906101000a900473ffffffffffffffffffffffffffffffffffffffff1681565b600460009054906101000a900473ffffffffffffffffffffffffffffffffffffffff1681565b6000811480612d87575060008373ffffffffffffffffffffffffffffffffffffffff1663dd62ed3e30856040518363ffffffff1660e01b8152600401808373ffffffffffffffffffffffffffffffffffffffff1681526020018273ffffffffffffffffffffffffffffffffffffffff1681526020019250505060206040518083038186803b158015612d4a57600080fd5b505afa158015612d5e573d6000803e3d6000fd5b505050506040513d6020811015612d7457600080fd5b8101908080519060200190929190505050145b612ddc576040517f08c379a0000000000000000000000000000000000000000000000000000000008152600401808060200182810382526036815260200180614f8c6036913960400191505060405180910390fd5b612e798363095ea7b360e01b8484604051602401808373ffffffffffffffffffffffffffffffffffffffff16815260200182815260200192505050604051602081830303815290604052907bffffffffffffffffffffffffffffffffffffffffffffffffffffffff19166020820180517bffffffffffffffffffffffffffffffffffffffffffffffffffffffff838183161783525050505061386d565b505050565b6060612e8d848460008561395c565b90509392505050565b600033905090565b600082821115612f16576040517f08c379a000000000000000000000000000000000000000000000000000000000815260040180806020018281038252601e8152602001807f536166654d6174683a207375627472616374696f6e206f766572666c6f77000081525060200191505060405180910390fd5b818303905092915050565b612fbe8363a9059cbb60e01b8484604051602401808373ffffffffffffffffffffffffffffffffffffffff16815260200182815260200192505050604051602081830303815290604052907bffffffffffffffffffffffffffffffffffffffffffffffffffffffff19166020820180517bffffffffffffffffffffffffffffffffffffffffffffffffffffffff838183161783525050505061386d565b505050565b600080831415612fd65760009050613043565b6000828402905082848281612fe757fe5b041461303e576040517f08c379a0000000000000000000000000000000000000000000000000000000008152600401808060200182810382526021815260200180614f416021913960400191505060405180910390fd5b809150505b92915050565b60008082116130c0576040517f08c379a000000000000000000000000000000000000000000000000000000000815260040180806020018281038252601a8152602001807f536166654d6174683a206469766973696f6e206279207a65726f00000000000081525060200191505060405180910390fd5b8183816130c957fe5b04905092915050565b6130da6119fd565b61314c576040517f08c379a00000000000000000000000000000000000000000000000000000000081526004018080602001828103825260148152602001807f5061757361626c653a206e6f742070617573656400000000000000000000000081525060200191505060405180910390fd5b60008060146101000a81548160ff0219169083151502179055507f5db9ee0a495bf2e6ff9c91a7834c1ba4fdd244a5e8aa4e537bd38aeae4b073aa61318f612e96565b604051808273ffffffffffffffffffffffffffffffffffffffff16815260200191505060405180910390a1565b61328c7f00000000000000000000000000000000000000000000000000000000000000007f00000000000000000000000000000000000000000000000000000000000000007f0000000000000000000000000000000000000000000000000000000000000000600360009054906101000a900473ffffffffffffffffffffffffffffffffffffffff167f00000000000000000000000000000000000000000000000000000000000000007f0000000000000000000000000000000000000000000000000000000000000000613b05565b565b6132966119fd565b15613309576040517f08c379a00000000000000000000000000000000000000000000000000000000081526004018080602001828103825260108152602001807f5061757361626c653a207061757365640000000000000000000000000000000081525060200191505060405180910390fd5b3273ffffffffffffffffffffffffffffffffffffffff163373ffffffffffffffffffffffffffffffffffffffff16146133aa576040517f08c379a00000000000000000000000000000000000000000000000000000000081526004018080602001828103825260048152602001807f21454f410000000000000000000000000000000000000000000000000000000081525060200191505060405180910390fd5b7f000000000000000000000000000000000000000000000000000000000000000073ffffffffffffffffffffffffffffffffffffffff1663e2bbb1587f000000000000000000000000000000000000000000000000000000000000000060006040518363ffffffff1660e01b81526004018083815260200182815260200192505050600060405180830381600087803b15801561344657600080fd5b505af115801561345a573d6000803e3d6000fd5b505050507f0000000000000000000000000000000000000000000000000000000000000000156134c25761348c613c91565b613494613f51565b6134bd7f000000000000000000000000000000000000000000000000000000000000000061404a565b6134f4565b6134ca6148ad565b6134f37f000000000000000000000000000000000000000000000000000000000000000061404a565b5b6134fc61234a565b3373ffffffffffffffffffffffffffffffffffffffff167f577a37fdb49a88d66684922c6f913df5239b4f214b2b97c53ef8e3bbb2034cb560405160405180910390a2565b6000808284019050838110156135bf576040517f08c379a000000000000000000000000000000000000000000000000000000000815260040180806020018281038252601b8152602001807f536166654d6174683a206164646974696f6e206f766572666c6f77000000000081525060200191505060405180910390fd5b8091505092915050565b6135d16119fd565b15613644576040517f08c379a00000000000000000000000000000000000000000000000000000000081526004018080602001828103825260108152602001807f5061757361626c653a207061757365640000000000000000000000000000000081525060200191505060405180910390fd5b6001600060146101000a81548160ff0219169083151502179055507f62e78cea01bee320cd4e420270b5ea74000d11b0c9f74754ebdbfc544b05a258613688612e96565b604051808273ffffffffffffffffffffffffffffffffffffffff16815260200191505060405180910390a1565b6137217f000000000000000000000000000000000000000000000000000000000000000060007f000000000000000000000000000000000000000000000000000000000000000073ffffffffffffffffffffffffffffffffffffffff16612cb99092919063ffffffff16565b61378f600360009054906101000a900473ffffffffffffffffffffffffffffffffffffffff1660007f000000000000000000000000000000000000000000000000000000000000000073ffffffffffffffffffffffffffffffffffffffff16612cb99092919063ffffffff16565b6137fd600360009054906101000a900473ffffffffffffffffffffffffffffffffffffffff1660007f000000000000000000000000000000000000000000000000000000000000000073ffffffffffffffffffffffffffffffffffffffff16612cb99092919063ffffffff16565b61386b600360009054906101000a900473ffffffffffffffffffffffffffffffffffffffff1660007f000000000000000000000000000000000000000000000000000000000000000073ffffffffffffffffffffffffffffffffffffffff16612cb99092919063ffffffff16565b565b60606138cf826040518060400160405280602081526020017f5361666545524332303a206c6f772d6c6576656c2063616c6c206661696c65648152508573ffffffffffffffffffffffffffffffffffffffff16612e7e9092919063ffffffff16565b9050600081511115613957578080602001905160208110156138f057600080fd5b8101908080519060200190929190505050613956576040517f08c379a000000000000000000000000000000000000000000000000000000000815260040180806020018281038252602a815260200180614f62602a913960400191505060405180910390fd5b5b505050565b6060824710156139b7576040517f08c379a0000000000000000000000000000000000000000000000000000000008152600401808060200182810382526026815260200180614f1b6026913960400191505060405180910390fd5b6139c085614c64565b613a32576040517f08c379a000000000000000000000000000000000000000000000000000000000815260040180806020018281038252601d8152602001807f416464726573733a2063616c6c20746f206e6f6e2d636f6e747261637400000081525060200191505060405180910390fd5b600060608673ffffffffffffffffffffffffffffffffffffffff1685876040518082805190602001908083835b60208310613a825780518252602082019150602081019050602083039250613a5f565b6001836020036101000a03801982511681845116808217855250505050505090500191505060006040518083038185875af1925050503d8060008114613ae4576040519150601f19603f3d011682016040523d82523d6000602084013e613ae9565b606091505b5091509150613af9828286614c77565b92505050949350505050565b613b50857fffffffffffffffffffffffffffffffffffffffffffffffffffffffffffffffff8873ffffffffffffffffffffffffffffffffffffffff16612cb99092919063ffffffff16565b613b9b837fffffffffffffffffffffffffffffffffffffffffffffffffffffffffffffffff8673ffffffffffffffffffffffffffffffffffffffff16612cb99092919063ffffffff16565b613bc78360008473ffffffffffffffffffffffffffffffffffffffff16612cb99092919063ffffffff16565b613c12837fffffffffffffffffffffffffffffffffffffffffffffffffffffffffffffffff8473ffffffffffffffffffffffffffffffffffffffff16612cb99092919063ffffffff16565b613c3e8360008373ffffffffffffffffffffffffffffffffffffffff16612cb99092919063ffffffff16565b613c89837fffffffffffffffffffffffffffffffffffffffffffffffffffffffffffffffff8373ffffffffffffffffffffffffffffffffffffffff16612cb99092919063ffffffff16565b505050505050565b60007f000000000000000000000000000000000000000000000000000000000000000073ffffffffffffffffffffffffffffffffffffffff166370a08231306040518263ffffffff1660e01b8152600401808273ffffffffffffffffffffffffffffffffffffffff16815260200191505060206040518083038186803b158015613d1a57600080fd5b505afa158015613d2e573d6000803e3d6000fd5b505050506040513d6020811015613d4457600080fd5b81019080805190602001909291905050509050600360009054906101000a900473ffffffffffffffffffffffffffffffffffffffff1673ffffffffffffffffffffffffffffffffffffffff166338ed1739826000600930426040518663ffffffff1660e01b815260040180868152602001858152602001806020018473ffffffffffffffffffffffffffffffffffffffff1681526020018381526020018281038252858181548152602001915080548015613e5457602002820191906000526020600020905b8160009054906101000a900473ffffffffffffffffffffffffffffffffffffffff1673ffffffffffffffffffffffffffffffffffffffff1681526020019060010190808311613e0a575b50509650505050505050600060405180830381600087803b158015613e7857600080fd5b505af1158015613e8c573d6000803e3d6000fd5b505050506040513d6000823e3d601f19601f820116820180604052506020811015613eb657600080fd5b8101908080516040519392919084640100000000821115613ed657600080fd5b83820191506020820185811115613eec57600080fd5b8251866020820283011164010000000082111715613f0957600080fd5b8083526020830192505050908051906020019060200280838360005b83811015613f40578082015181840152602081019050613f25565b505050509050016040525050505050565b600061403c6103e861402e602d7f000000000000000000000000000000000000000000000000000000000000000073ffffffffffffffffffffffffffffffffffffffff166370a08231306040518263ffffffff1660e01b8152600401808273ffffffffffffffffffffffffffffffffffffffff16815260200191505060206040518083038186803b158015613fe557600080fd5b505afa158015613ff9573d6000803e3d6000fd5b505050506040513d602081101561400f57600080fd5b8101908080519060200190929190505050612fc390919063ffffffff16565b61304990919063ffffffff16565b905061404781614d43565b50565b600061410160028373ffffffffffffffffffffffffffffffffffffffff166370a08231306040518263ffffffff1660e01b8152600401808273ffffffffffffffffffffffffffffffffffffffff16815260200191505060206040518083038186803b1580156140b857600080fd5b505afa1580156140cc573d6000803e3d6000fd5b505050506040513d60208110156140e257600080fd5b810190808051906020019092919050505061304990919063ffffffff16565b90508173ffffffffffffffffffffffffffffffffffffffff167f000000000000000000000000000000000000000000000000000000000000000073ffffffffffffffffffffffffffffffffffffffff161461434e57600360009054906101000a900473ffffffffffffffffffffffffffffffffffffffff1673ffffffffffffffffffffffffffffffffffffffff166338ed1739826000600a30426040518663ffffffff1660e01b815260040180868152602001858152602001806020018473ffffffffffffffffffffffffffffffffffffffff168152602001838152602001828103825285818154815260200191508054801561425357602002820191906000526020600020905b8160009054906101000a900473ffffffffffffffffffffffffffffffffffffffff1673ffffffffffffffffffffffffffffffffffffffff1681526020019060010190808311614209575b50509650505050505050600060405180830381600087803b15801561427757600080fd5b505af115801561428b573d6000803e3d6000fd5b505050506040513d6000823e3d601f19601f8201168201806040525060208110156142b557600080fd5b81019080805160405193929190846401000000008211156142d557600080fd5b838201915060208201858111156142eb57600080fd5b825186602082028301116401000000008211171561430857600080fd5b8083526020830192505050908051906020019060200280838360005b8381101561433f578082015181840152602081019050614324565b50505050905001604052505050505b8173ffffffffffffffffffffffffffffffffffffffff167f000000000000000000000000000000000000000000000000000000000000000073ffffffffffffffffffffffffffffffffffffffff161461459957600360009054906101000a900473ffffffffffffffffffffffffffffffffffffffff1673ffffffffffffffffffffffffffffffffffffffff166338ed1739826000600b30426040518663ffffffff1660e01b815260040180868152602001858152602001806020018473ffffffffffffffffffffffffffffffffffffffff168152602001838152602001828103825285818154815260200191508054801561449e57602002820191906000526020600020905b8160009054906101000a900473ffffffffffffffffffffffffffffffffffffffff1673ffffffffffffffffffffffffffffffffffffffff1681526020019060010190808311614454575b50509650505050505050600060405180830381600087803b1580156144c257600080fd5b505af11580156144d6573d6000803e3d6000fd5b505050506040513d6000823e3d601f19601f82011682018060405250602081101561450057600080fd5b810190808051604051939291908464010000000082111561452057600080fd5b8382019150602082018581111561453657600080fd5b825186602082028301116401000000008211171561455357600080fd5b8083526020830192505050908051906020019060200280838360005b8381101561458a57808201518184015260208101905061456f565b50505050905001604052505050505b60007f000000000000000000000000000000000000000000000000000000000000000073ffffffffffffffffffffffffffffffffffffffff166370a08231306040518263ffffffff1660e01b8152600401808273ffffffffffffffffffffffffffffffffffffffff16815260200191505060206040518083038186803b15801561462257600080fd5b505afa158015614636573d6000803e3d6000fd5b505050506040513d602081101561464c57600080fd5b8101908080519060200190929190505050905060007f000000000000000000000000000000000000000000000000000000000000000073ffffffffffffffffffffffffffffffffffffffff166370a08231306040518263ffffffff1660e01b8152600401808273ffffffffffffffffffffffffffffffffffffffff16815260200191505060206040518083038186803b1580156146e857600080fd5b505afa1580156146fc573d6000803e3d6000fd5b505050506040513d602081101561471257600080fd5b81019080805190602001909291905050509050600360009054906101000a900473ffffffffffffffffffffffffffffffffffffffff1673ffffffffffffffffffffffffffffffffffffffff1663e8e337007f00000000000000000000000000000000000000000000000000000000000000007f0000000000000000000000000000000000000000000000000000000000000000858560018030426040518963ffffffff1660e01b8152600401808973ffffffffffffffffffffffffffffffffffffffff1681526020018873ffffffffffffffffffffffffffffffffffffffff1681526020018781526020018681526020018581526020018481526020018373ffffffffffffffffffffffffffffffffffffffff16815260200182815260200198505050505050505050606060405180830381600087803b15801561485557600080fd5b505af1158015614869573d6000803e3d6000fd5b505050506040513d606081101561487f57600080fd5b8101908080519060200190929190805190602001909291908051906020019092919050505050505050505050565b60006149986103e861498a602d7f000000000000000000000000000000000000000000000000000000000000000073ffffffffffffffffffffffffffffffffffffffff166370a08231306040518263ffffffff1660e01b8152600401808273ffffffffffffffffffffffffffffffffffffffff16815260200191505060206040518083038186803b15801561494157600080fd5b505afa158015614955573d6000803e3d6000fd5b505050506040513d602081101561496b57600080fd5b8101908080519060200190929190505050612fc390919063ffffffff16565b61304990919063ffffffff16565b9050600360009054906101000a900473ffffffffffffffffffffffffffffffffffffffff1673ffffffffffffffffffffffffffffffffffffffff166338ed1739826000600930426040518663ffffffff1660e01b815260040180868152602001858152602001806020018473ffffffffffffffffffffffffffffffffffffffff1681526020018381526020018281038252858181548152602001915080548015614a9757602002820191906000526020600020905b8160009054906101000a900473ffffffffffffffffffffffffffffffffffffffff1673ffffffffffffffffffffffffffffffffffffffff1681526020019060010190808311614a4d575b50509650505050505050600060405180830381600087803b158015614abb57600080fd5b505af1158015614acf573d6000803e3d6000fd5b505050506040513d6000823e3d601f19601f820116820180604052506020811015614af957600080fd5b8101908080516040519392919084640100000000821115614b1957600080fd5b83820191506020820185811115614b2f57600080fd5b8251866020820283011164010000000082111715614b4c57600080fd5b8083526020830192505050908051906020019060200280838360005b83811015614b83578082015181840152602081019050614b68565b505050509050016040525050505060007f000000000000000000000000000000000000000000000000000000000000000073ffffffffffffffffffffffffffffffffffffffff166370a08231306040518263ffffffff1660e01b8152600401808273ffffffffffffffffffffffffffffffffffffffff16815260200191505060206040518083038186803b158015614c1a57600080fd5b505afa158015614c2e573d6000803e3d6000fd5b505050506040513d6020811015614c4457600080fd5b81019080805190602001909291905050509050614c6081614d43565b5050565b600080823b905060008111915050919050565b60608315614c8757829050614d3c565b600083511115614c9a5782518084602001fd5b816040517f08c379a00000000000000000000000000000000000000000000000000000000081526004018080602001828103825283818151815260200191508051906020019080838360005b83811015614d01578082015181840152602081019050614ce6565b50505050905090810190601f168015614d2e5780820380516001836020036101000a031916815260200191505b509250505060405180910390fd5b9392505050565b6000614d6e6103e8614d6060075485612fc390919063ffffffff16565b61304990919063ffffffff16565b9050614dbb33827f000000000000000000000000000000000000000000000000000000000000000073ffffffffffffffffffffffffffffffffffffffff16612f219092919063ffffffff16565b6000614de66103e8614dd860085486612fc390919063ffffffff16565b61304990919063ffffffff16565b9050614e55600560009054906101000a900473ffffffffffffffffffffffffffffffffffffffff16827f000000000000000000000000000000000000000000000000000000000000000073ffffffffffffffffffffffffffffffffffffffff16612f219092919063ffffffff16565b6000614e7f6103e8614e71607087612fc390919063ffffffff16565b61304990919063ffffffff16565b9050614eee600260009054906101000a900473ffffffffffffffffffffffffffffffffffffffff16827f000000000000000000000000000000000000000000000000000000000000000073ffffffffffffffffffffffffffffffffffffffff16612f219092919063ffffffff16565b5050505056fe4f776e61626c653a206e6577206f776e657220697320746865207a65726f2061646472657373416464726573733a20696e73756666696369656e742062616c616e636520666f722063616c6c536166654d6174683a206d756c7469706c69636174696f6e206f766572666c6f775361666545524332303a204552433230206f7065726174696f6e20646964206e6f7420737563636565645361666545524332303a20617070726f76652066726f6d206e6f6e2d7a65726f20746f206e6f6e2d7a65726f20616c6c6f77616e6365a2646970667358221220fdbc2e92f6bba1cd4161c60aaaf4c2b1af6f331a51bfd270600530d2896487a064736f6c634300060c0033416464726573733a20696e73756666696369656e742062616c616e636520666f722063616c6c5361666545524332303a204552433230206f7065726174696f6e20646964206e6f7420737563636565645361666545524332303a20617070726f76652066726f6d206e6f6e2d7a65726f20746f206e6f6e2d7a65726f20616c6c6f77616e6365",
  "immutableReferences": {
    "2482": [
      {
        "length": 32,
        "start": 3507
      },
      {
        "length": 32,
        "start": 13465
      },
      {
        "length": 32,
        "start": 16224
      },
      {
        "length": 32,
        "start": 19349
      },
      {
        "length": 32,
        "start": 19831
      },
      {
        "length": 32,
        "start": 19985
      },
      {
        "length": 32,
        "start": 20138
      }
    ],
    "2484": [
      {
        "length": 32,
        "start": 9833
      },
      {
        "length": 32,
        "start": 12803
      },
      {
        "length": 32,
        "start": 13519
      },
      {
        "length": 32,
        "start": 14155
      },
      {
        "length": 32,
        "start": 15509
      },
      {
        "length": 32,
        "start": 18620
      }
    ],
    "2486": [
      {
        "length": 32,
        "start": 3685
      },
      {
        "length": 32,
        "start": 4436
      },
      {
        "length": 32,
        "start": 4837
      },
      {
        "length": 32,
        "start": 5159
      },
      {
        "length": 32,
        "start": 5336
      },
      {
        "length": 32,
        "start": 8574
      },
      {
        "length": 32,
        "start": 9161
      },
      {
        "length": 32,
        "start": 10915
      },
      {
        "length": 32,
        "start": 11111
      },
      {
        "length": 32,
        "start": 12737
      },
      {
        "length": 32,
        "start": 14045
      }
    ],
    "2488": [
      {
        "length": 32,
        "start": 6677
      },
      {
        "length": 32,
        "start": 12871
      },
      {
        "length": 32,
        "start": 14265
      },
      {
        "length": 32,
        "start": 16668
      },
      {
        "length": 32,
        "start": 17821
      },
      {
        "length": 32,
        "start": 18277
      }
    ],
    "2490": [
      {
        "length": 32,
        "start": 7988
      },
      {
        "length": 32,
        "start": 12904
      },
      {
        "length": 32,
        "start": 14375
      },
      {
        "length": 32,
        "start": 17255
      },
      {
        "length": 32,
        "start": 18019
      },
      {
        "length": 32,
        "start": 18310
      }
    ],
    "2492": [
      {
        "length": 32,
        "start": 3254
      },
      {
        "length": 32,
        "start": 3721
      },
      {
        "length": 32,
        "start": 4640
      },
      {
        "length": 32,
        "start": 6332
      },
      {
        "length": 32,
        "start": 9366
      },
      {
        "length": 32,
        "start": 10742
      },
      {
        "length": 32,
        "start": 12770
      },
      {
        "length": 32,
        "start": 13228
      },
      {
        "length": 32,
        "start": 14010
      }
    ],
    "2494": [
      {
        "length": 32,
        "start": 3314
      },
      {
        "length": 32,
        "start": 4700
      },
      {
        "length": 32,
        "start": 5412
      },
      {
        "length": 32,
        "start": 6392
      },
      {
        "length": 32,
        "start": 9426
      },
      {
        "length": 32,
        "start": 10802
      },
      {
        "length": 32,
        "start": 13288
      }
    ],
    "2505": [
      {
        "length": 32,
        "start": 9549
      },
      {
        "length": 32,
        "start": 13408
      }
    ]
  },
  "source": "pragma solidity ^0.6.12;\r\n\r\nimport \"./Common/StrategyCommonChefLP.sol\";\r\nimport \"../../utils/GasThrottler.sol\";\r\n\r\ncontract StrategyCakeChefLP is StrategyCommonChefLP, GasThrottler {\r\n\r\n    address constant private chefAddress = address(0xF7D79ED76954530126e040deC97Bc26BF62Bf3B6); // MasterChef address\r\n\r\n    constructor(\r\n        address _want,\r\n        uint256 _poolId,\r\n        address _vault,\r\n        address _unirouter,\r\n        address _keeper,\r\n        address _strategist,\r\n        address _plutusFeeRecipient,\r\n        address[] memory _outputToNativeRoute,\r\n        address[] memory _outputToLp0Route,\r\n        address[] memory _outputToLp1Route\r\n    ) StrategyCommonChefLP(\r\n        _want,\r\n        _poolId,\r\n        chefAddress,\r\n        _vault,\r\n        _unirouter,\r\n        _keeper,\r\n        _strategist,\r\n        _plutusFeeRecipient,\r\n        _outputToNativeRoute,\r\n        _outputToLp0Route,\r\n        _outputToLp1Route\r\n    ) public {}\r\n\r\n    function harvest() public override(StrategyCommonChefLP) gasThrottle {\r\n        super.harvest();\r\n    }\r\n}",
  "sourcePath": "I:/13-GithubWork/Plutus-Staking/contracts/pools/ALU-BNB/StrategyCakeChefLP.sol",
  "compiler": {
    "name": "solc",
    "version": "0.6.12+commit.27d51765.Emscripten.clang"
  },
  "schemaVersion": "3.4.1",
  "updatedAt": "2021-07-19T02:08:08.783Z",
  "devdoc": {
    "kind": "dev",
    "methods": {
      "beforeDeposit()": {
        "details": "Function to synchronize balances before new user deposit. Can be overridden in the strategy."
      },
      "owner()": {
        "details": "Returns the address of the current owner."
      },
      "paused()": {
        "details": "Returns true if the contract is paused, and false otherwise."
      },
      "renounceOwnership()": {
        "details": "Leaves the contract without owner. It will not be possible to call `onlyOwner` functions anymore. Can only be called by the current owner. NOTE: Renouncing ownership will leave the contract without an owner, thereby removing any functionality that is only available to the owner."
      },
      "setKeeper(address)": {
        "details": "Updates address of the strat keeper.",
        "params": {
          "_keeper": "new keeper address."
        }
      },
      "setPlutusFeeRecipient(address)": {
        "details": "Updates plutus fee recipient.",
        "params": {
          "_plutusFeeRecipient": "new plutus fee recipient address."
        }
      },
      "setStrategist(address)": {
        "details": "Updates address where strategist fee earnings will go.",
        "params": {
          "_strategist": "new strategist address."
        }
      },
      "setUnirouter(address)": {
        "details": "Updates router that will be used for swaps.",
        "params": {
          "_unirouter": "new unirouter address."
        }
      },
      "setVault(address)": {
        "details": "Updates parent vault.",
        "params": {
          "_vault": "new vault address."
        }
      },
      "transferOwnership(address)": {
        "details": "Transfers ownership of the contract to a new account (`newOwner`). Can only be called by the current owner."
      }
    },
    "version": 1
  },
  "userdoc": {
    "kind": "user",
    "methods": {},
    "version": 1
  }
}