{
  "contractName": "StrategyBifiMaxi",
  "abi": [
    {
      "inputs": [
        {
          "internalType": "address",
          "name": "_vault",
          "type": "address"
        }
      ],
      "stateMutability": "nonpayable",
      "type": "constructor"
    },
    {
      "anonymous": false,
      "inputs": [
        {
          "indexed": true,
          "internalType": "address",
          "name": "previousOwner",
          "type": "address"
        },
        {
          "indexed": true,
          "internalType": "address",
          "name": "newOwner",
          "type": "address"
        }
      ],
      "name": "OwnershipTransferred",
      "type": "event"
    },
    {
      "anonymous": false,
      "inputs": [
        {
          "indexed": false,
          "internalType": "address",
          "name": "account",
          "type": "address"
        }
      ],
      "name": "Paused",
      "type": "event"
    },
    {
      "anonymous": false,
      "inputs": [
        {
          "indexed": false,
          "internalType": "address",
          "name": "account",
          "type": "address"
        }
      ],
      "name": "Unpaused",
      "type": "event"
    },
    {
      "inputs": [],
      "name": "CALL_FEE",
      "outputs": [
        {
          "internalType": "uint256",
          "name": "",
          "type": "uint256"
        }
      ],
      "stateMutability": "view",
      "type": "function"
    },
    {
      "inputs": [],
      "name": "MAX_FEE",
      "outputs": [
        {
          "internalType": "uint256",
          "name": "",
          "type": "uint256"
        }
      ],
      "stateMutability": "view",
      "type": "function"
    },
    {
      "inputs": [],
      "name": "REWARDS_FEE",
      "outputs": [
        {
          "internalType": "uint256",
          "name": "",
          "type": "uint256"
        }
      ],
      "stateMutability": "view",
      "type": "function"
    },
    {
      "inputs": [],
      "name": "WITHDRAWAL_FEE",
      "outputs": [
        {
          "internalType": "uint256",
          "name": "",
          "type": "uint256"
        }
      ],
      "stateMutability": "view",
      "type": "function"
    },
    {
      "inputs": [],
      "name": "WITHDRAWAL_MAX",
      "outputs": [
        {
          "internalType": "uint256",
          "name": "",
          "type": "uint256"
        }
      ],
      "stateMutability": "view",
      "type": "function"
    },
    {
      "inputs": [],
      "name": "bifi",
      "outputs": [
        {
          "internalType": "address",
          "name": "",
          "type": "address"
        }
      ],
      "stateMutability": "view",
      "type": "function"
    },
    {
      "inputs": [],
      "name": "owner",
      "outputs": [
        {
          "internalType": "address",
          "name": "",
          "type": "address"
        }
      ],
      "stateMutability": "view",
      "type": "function"
    },
    {
      "inputs": [],
      "name": "paused",
      "outputs": [
        {
          "internalType": "bool",
          "name": "",
          "type": "bool"
        }
      ],
      "stateMutability": "view",
      "type": "function"
    },
    {
      "inputs": [],
      "name": "renounceOwnership",
      "outputs": [],
      "stateMutability": "nonpayable",
      "type": "function"
    },
    {
      "inputs": [],
      "name": "rewards",
      "outputs": [
        {
          "internalType": "address",
          "name": "",
          "type": "address"
        }
      ],
      "stateMutability": "view",
      "type": "function"
    },
    {
      "inputs": [
        {
          "internalType": "address",
          "name": "newOwner",
          "type": "address"
        }
      ],
      "name": "transferOwnership",
      "outputs": [],
      "stateMutability": "nonpayable",
      "type": "function"
    },
    {
      "inputs": [],
      "name": "unirouter",
      "outputs": [
        {
          "internalType": "address",
          "name": "",
          "type": "address"
        }
      ],
      "stateMutability": "view",
      "type": "function"
    },
    {
      "inputs": [],
      "name": "vault",
      "outputs": [
        {
          "internalType": "address",
          "name": "",
          "type": "address"
        }
      ],
      "stateMutability": "view",
      "type": "function"
    },
    {
      "inputs": [],
      "name": "wbnb",
      "outputs": [
        {
          "internalType": "address",
          "name": "",
          "type": "address"
        }
      ],
      "stateMutability": "view",
      "type": "function"
    },
    {
      "inputs": [
        {
          "internalType": "uint256",
          "name": "",
          "type": "uint256"
        }
      ],
      "name": "wbnbToBifiRoute",
      "outputs": [
        {
          "internalType": "address",
          "name": "",
          "type": "address"
        }
      ],
      "stateMutability": "view",
      "type": "function"
    },
    {
      "inputs": [],
      "name": "deposit",
      "outputs": [],
      "stateMutability": "nonpayable",
      "type": "function"
    },
    {
      "inputs": [
        {
          "internalType": "uint256",
          "name": "_amount",
          "type": "uint256"
        }
      ],
      "name": "withdraw",
      "outputs": [],
      "stateMutability": "nonpayable",
      "type": "function"
    },
    {
      "inputs": [],
      "name": "harvest",
      "outputs": [],
      "stateMutability": "nonpayable",
      "type": "function"
    },
    {
      "inputs": [],
      "name": "balanceOf",
      "outputs": [
        {
          "internalType": "uint256",
          "name": "",
          "type": "uint256"
        }
      ],
      "stateMutability": "view",
      "type": "function"
    },
    {
      "inputs": [],
      "name": "balanceOfBifi",
      "outputs": [
        {
          "internalType": "uint256",
          "name": "",
          "type": "uint256"
        }
      ],
      "stateMutability": "view",
      "type": "function"
    },
    {
      "inputs": [],
      "name": "balanceOfPool",
      "outputs": [
        {
          "internalType": "uint256",
          "name": "",
          "type": "uint256"
        }
      ],
      "stateMutability": "view",
      "type": "function"
    },
    {
      "inputs": [],
      "name": "retireStrat",
      "outputs": [],
      "stateMutability": "nonpayable",
      "type": "function"
    },
    {
      "inputs": [],
      "name": "panic",
      "outputs": [],
      "stateMutability": "nonpayable",
      "type": "function"
    },
    {
      "inputs": [],
      "name": "pause",
      "outputs": [],
      "stateMutability": "nonpayable",
      "type": "function"
    },
    {
      "inputs": [],
      "name": "unpause",
      "outputs": [],
      "stateMutability": "nonpayable",
      "type": "function"
    }
  ],
  "bytecode": "0x6080604052604051806040016040528073bb4cdb9cbd36b01bd1cbaebf2de08d9173bc095c73ffffffffffffffffffffffffffffffffffffffff1673ffffffffffffffffffffffffffffffffffffffff16815260200173ca3f508b8e4dd382ee878a314789373d80a5190a73ffffffffffffffffffffffffffffffffffffffff1673ffffffffffffffffffffffffffffffffffffffff168152506002906002620000ab92919062000890565b50348015620000b957600080fd5b506040516200323d3803806200323d83398181016040526020811015620000df57600080fd5b8101908080519060200190929190505050600062000102620002f660201b60201c565b9050806000806101000a81548173ffffffffffffffffffffffffffffffffffffffff021916908373ffffffffffffffffffffffffffffffffffffffff1602179055508073ffffffffffffffffffffffffffffffffffffffff16600073ffffffffffffffffffffffffffffffffffffffff167f8be0079c531659141344cd1fd0a4f28419497f9722a3daafe3b4186f6b6457e060405160405180910390a35060008060146101000a81548160ff02191690831515021790555080600160006101000a81548173ffffffffffffffffffffffffffffffffffffffff021916908373ffffffffffffffffffffffffffffffffffffffff160217905550620002757310ed43c718714eb63d5aa57b78b54704e256024e7fffffffffffffffffffffffffffffffffffffffffffffffffffffffffffffffff73bb4cdb9cbd36b01bd1cbaebf2de08d9173bc095c73ffffffffffffffffffffffffffffffffffffffff16620002fe60201b620018f7179092919060201c565b620002ef73453d4ba9a2d594314df88564248497f7d74d6b2c7fffffffffffffffffffffffffffffffffffffffffffffffffffffffffffffffff73ca3f508b8e4dd382ee878a314789373d80a5190a73ffffffffffffffffffffffffffffffffffffffff16620002fe60201b620018f7179092919060201c565b506200095c565b600033905090565b6000811480620003d0575060008373ffffffffffffffffffffffffffffffffffffffff1663dd62ed3e30856040518363ffffffff1660e01b8152600401808373ffffffffffffffffffffffffffffffffffffffff1681526020018273ffffffffffffffffffffffffffffffffffffffff1681526020019250505060206040518083038186803b1580156200039157600080fd5b505afa158015620003a6573d6000803e3d6000fd5b505050506040513d6020811015620003bd57600080fd5b8101908080519060200190929190505050145b62000427576040517f08c379a0000000000000000000000000000000000000000000000000000000008152600401808060200182810382526036815260200180620032076036913960400191505060405180910390fd5b620004cc8363095ea7b360e01b8484604051602401808373ffffffffffffffffffffffffffffffffffffffff16815260200182815260200192505050604051602081830303815290604052907bffffffffffffffffffffffffffffffffffffffffffffffffffffffff19166020820180517bffffffffffffffffffffffffffffffffffffffffffffffffffffffff8381831617835250505050620004d160201b60201c565b505050565b60606200053a826040518060400160405280602081526020017f5361666545524332303a206c6f772d6c6576656c2063616c6c206661696c65648152508573ffffffffffffffffffffffffffffffffffffffff16620005cb60201b62001abc179092919060201c565b9050600081511115620005c6578080602001905160208110156200055d57600080fd5b8101908080519060200190929190505050620005c5576040517f08c379a000000000000000000000000000000000000000000000000000000000815260040180806020018281038252602a815260200180620031dd602a913960400191505060405180910390fd5b5b505050565b6060620005e28484600085620005eb60201b60201c565b90509392505050565b60608247101562000648576040517f08c379a0000000000000000000000000000000000000000000000000000000008152600401808060200182810382526026815260200180620031b76026913960400191505060405180910390fd5b6200065985620007ab60201b60201c565b620006cc576040517f08c379a000000000000000000000000000000000000000000000000000000000815260040180806020018281038252601d8152602001807f416464726573733a2063616c6c20746f206e6f6e2d636f6e747261637400000081525060200191505060405180910390fd5b600060608673ffffffffffffffffffffffffffffffffffffffff1685876040518082805190602001908083835b602083106200071e5780518252602082019150602081019050602083039250620006f9565b6001836020036101000a03801982511681845116808217855250505050505090500191505060006040518083038185875af1925050503d806000811462000782576040519150601f19603f3d011682016040523d82523d6000602084013e62000787565b606091505b50915091506200079f828286620007be60201b60201c565b92505050949350505050565b600080823b905060008111915050919050565b60608315620007d05782905062000889565b600083511115620007e45782518084602001fd5b816040517f08c379a00000000000000000000000000000000000000000000000000000000081526004018080602001828103825283818151815260200191508051906020019080838360005b838110156200084d57808201518184015260208101905062000830565b50505050905090810190601f1680156200087b5780820380516001836020036101000a031916815260200191505b509250505060405180910390fd5b9392505050565b8280548282559060005260206000209081019282156200090c579160200282015b828111156200090b5782518260006101000a81548173ffffffffffffffffffffffffffffffffffffffff021916908373ffffffffffffffffffffffffffffffffffffffff16021790555091602001919060010190620008b1565b5b5090506200091b91906200091f565b5090565b5b808211156200095857600081816101000a81549073ffffffffffffffffffffffffffffffffffffffff02191690555060010162000920565b5090565b61284b806200096c6000396000f3fe608060405234801561001057600080fd5b50600436106101735760003560e01c80638456cb59116100de578063af31431211610097578063f2fde38b11610071578063f2fde38b14610430578063f355846014610474578063fb61778714610492578063fbfa77cf1461049c57610173565b8063af314312146103b0578063bc063e1a14610408578063d0e30db01461042657610173565b80638456cb59146102ce5780638d72647e146102d85780638da5cb5b1461030c578063951d6d20146103405780639ec5a8941461035e578063a5d33ed51461039257610173565b80634641257d116101305780634641257d146102545780634700d3051461025e57806354518b1a146102685780635c975abb14610286578063715018a6146102a6578063722713f7146102b057610173565b80631158808614610178578063257ae0de146101965780632e1a7d4d146101ca5780633bf39de5146101f85780633f4ba83a146102165780634458020b14610220575b600080fd5b6101806104d0565b6040518082815260200191505060405180910390f35b61019e61058d565b604051808273ffffffffffffffffffffffffffffffffffffffff16815260200191505060405180910390f35b6101f6600480360360208110156101e057600080fd5b81019080803590602001909291905050506105a5565b005b610200610924565b6040518082815260200191505060405180910390f35b61021e610929565b005b610228610ac8565b604051808273ffffffffffffffffffffffffffffffffffffffff16815260200191505060405180910390f35b61025c610ae0565b005b610266610d14565b005b610270610e53565b6040518082815260200191505060405180910390f35b61028e610e59565b60405180821515815260200191505060405180910390f35b6102ae610e6f565b005b6102b8610fdc565b6040518082815260200191505060405180910390f35b6102d6611004565b005b6102e0611165565b604051808273ffffffffffffffffffffffffffffffffffffffff16815260200191505060405180910390f35b61031461117d565b604051808273ffffffffffffffffffffffffffffffffffffffff16815260200191505060405180910390f35b6103486111a6565b6040518082815260200191505060405180910390f35b6103666111ab565b604051808273ffffffffffffffffffffffffffffffffffffffff16815260200191505060405180910390f35b61039a6111c3565b6040518082815260200191505060405180910390f35b6103dc600480360360208110156103c657600080fd5b81019080803590602001909291905050506111c8565b604051808273ffffffffffffffffffffffffffffffffffffffff16815260200191505060405180910390f35b610410611204565b6040518082815260200191505060405180910390f35b61042e61120a565b005b6104726004803603602081101561044657600080fd5b81019080803573ffffffffffffffffffffffffffffffffffffffff1690602001909291905050506113cb565b005b61047c6115bd565b6040518082815260200191505060405180910390f35b61049a61167a565b005b6104a46118d1565b604051808273ffffffffffffffffffffffffffffffffffffffff16815260200191505060405180910390f35b600073453d4ba9a2d594314df88564248497f7d74d6b2c73ffffffffffffffffffffffffffffffffffffffff166370a08231306040518263ffffffff1660e01b8152600401808273ffffffffffffffffffffffffffffffffffffffff16815260200191505060206040518083038186803b15801561054d57600080fd5b505afa158015610561573d6000803e3d6000fd5b505050506040513d602081101561057757600080fd5b8101908080519060200190929190505050905090565b7310ed43c718714eb63d5aa57b78b54704e256024e81565b600160009054906101000a900473ffffffffffffffffffffffffffffffffffffffff1673ffffffffffffffffffffffffffffffffffffffff163373ffffffffffffffffffffffffffffffffffffffff1614610668576040517f08c379a00000000000000000000000000000000000000000000000000000000081526004018080602001828103825260068152602001807f217661756c74000000000000000000000000000000000000000000000000000081525060200191505060405180910390fd5b600073ca3f508b8e4dd382ee878a314789373d80a5190a73ffffffffffffffffffffffffffffffffffffffff166370a08231306040518263ffffffff1660e01b8152600401808273ffffffffffffffffffffffffffffffffffffffff16815260200191505060206040518083038186803b1580156106e557600080fd5b505afa1580156106f9573d6000803e3d6000fd5b505050506040513d602081101561070f57600080fd5b81019080805190602001909291905050509050818110156108745773453d4ba9a2d594314df88564248497f7d74d6b2c73ffffffffffffffffffffffffffffffffffffffff16632e1a7d4d61076d8385611ad490919063ffffffff16565b6040518263ffffffff1660e01b815260040180828152602001915050600060405180830381600087803b1580156107a357600080fd5b505af11580156107b7573d6000803e3d6000fd5b5050505073ca3f508b8e4dd382ee878a314789373d80a5190a73ffffffffffffffffffffffffffffffffffffffff166370a08231306040518263ffffffff1660e01b8152600401808273ffffffffffffffffffffffffffffffffffffffff16815260200191505060206040518083038186803b15801561083657600080fd5b505afa15801561084a573d6000803e3d6000fd5b505050506040513d602081101561086057600080fd5b810190808051906020019092919050505090505b81811115610880578190505b60006108aa61271061089c600585611b5790919063ffffffff16565b611bdd90919063ffffffff16565b905061091f600160009054906101000a900473ffffffffffffffffffffffffffffffffffffffff166108e58385611ad490919063ffffffff16565b73ca3f508b8e4dd382ee878a314789373d80a5190a73ffffffffffffffffffffffffffffffffffffffff16611c669092919063ffffffff16565b505050565b600581565b610931611d08565b73ffffffffffffffffffffffffffffffffffffffff1661094f61117d565b73ffffffffffffffffffffffffffffffffffffffff16146109d8576040517f08c379a00000000000000000000000000000000000000000000000000000000081526004018080602001828103825260208152602001807f4f776e61626c653a2063616c6c6572206973206e6f7420746865206f776e657281525060200191505060405180910390fd5b6109e0611d10565b610a537310ed43c718714eb63d5aa57b78b54704e256024e7fffffffffffffffffffffffffffffffffffffffffffffffffffffffffffffffff73bb4cdb9cbd36b01bd1cbaebf2de08d9173bc095c73ffffffffffffffffffffffffffffffffffffffff166118f79092919063ffffffff16565b610ac673453d4ba9a2d594314df88564248497f7d74d6b2c7fffffffffffffffffffffffffffffffffffffffffffffffffffffffffffffffff73ca3f508b8e4dd382ee878a314789373d80a5190a73ffffffffffffffffffffffffffffffffffffffff166118f79092919063ffffffff16565b565b73ca3f508b8e4dd382ee878a314789373d80a5190a81565b610ae8610e59565b15610b5b576040517f08c379a00000000000000000000000000000000000000000000000000000000081526004018080602001828103825260108152602001807f5061757361626c653a207061757365640000000000000000000000000000000081525060200191505060405180910390fd5b610b63611d08565b73ffffffffffffffffffffffffffffffffffffffff16610b8161117d565b73ffffffffffffffffffffffffffffffffffffffff1614610c0a576040517f08c379a00000000000000000000000000000000000000000000000000000000081526004018080602001828103825260208152602001807f4f776e61626c653a2063616c6c6572206973206e6f7420746865206f776e657281525060200191505060405180910390fd5b610c1333611dfa565b15610c86576040517f08c379a00000000000000000000000000000000000000000000000000000000081526004018080602001828103825260098152602001807f21636f6e7472616374000000000000000000000000000000000000000000000081525060200191505060405180910390fd5b73453d4ba9a2d594314df88564248497f7d74d6b2c73ffffffffffffffffffffffffffffffffffffffff16633d18b9126040518163ffffffff1660e01b8152600401600060405180830381600087803b158015610ce257600080fd5b505af1158015610cf6573d6000803e3d6000fd5b50505050610d02611e0d565b610d0a611fb6565b610d1261120a565b565b610d1c611d08565b73ffffffffffffffffffffffffffffffffffffffff16610d3a61117d565b73ffffffffffffffffffffffffffffffffffffffff1614610dc3576040517f08c379a00000000000000000000000000000000000000000000000000000000081526004018080602001828103825260208152602001807f4f776e61626c653a2063616c6c6572206973206e6f7420746865206f776e657281525060200191505060405180910390fd5b610dcb611004565b73453d4ba9a2d594314df88564248497f7d74d6b2c73ffffffffffffffffffffffffffffffffffffffff16632e1a7d4d610e036104d0565b6040518263ffffffff1660e01b815260040180828152602001915050600060405180830381600087803b158015610e3957600080fd5b505af1158015610e4d573d6000803e3d6000fd5b50505050565b61271081565b60008060149054906101000a900460ff16905090565b610e77611d08565b73ffffffffffffffffffffffffffffffffffffffff16610e9561117d565b73ffffffffffffffffffffffffffffffffffffffff1614610f1e576040517f08c379a00000000000000000000000000000000000000000000000000000000081526004018080602001828103825260208152602001807f4f776e61626c653a2063616c6c6572206973206e6f7420746865206f776e657281525060200191505060405180910390fd5b600073ffffffffffffffffffffffffffffffffffffffff1660008054906101000a900473ffffffffffffffffffffffffffffffffffffffff1673ffffffffffffffffffffffffffffffffffffffff167f8be0079c531659141344cd1fd0a4f28419497f9722a3daafe3b4186f6b6457e060405160405180910390a360008060006101000a81548173ffffffffffffffffffffffffffffffffffffffff021916908373ffffffffffffffffffffffffffffffffffffffff160217905550565b6000610fff610fe96104d0565b610ff16115bd565b61227090919063ffffffff16565b905090565b61100c611d08565b73ffffffffffffffffffffffffffffffffffffffff1661102a61117d565b73ffffffffffffffffffffffffffffffffffffffff16146110b3576040517f08c379a00000000000000000000000000000000000000000000000000000000081526004018080602001828103825260208152602001807f4f776e61626c653a2063616c6c6572206973206e6f7420746865206f776e657281525060200191505060405180910390fd5b6110bb6122f8565b61110f7310ed43c718714eb63d5aa57b78b54704e256024e600073bb4cdb9cbd36b01bd1cbaebf2de08d9173bc095c73ffffffffffffffffffffffffffffffffffffffff166118f79092919063ffffffff16565b61116373453d4ba9a2d594314df88564248497f7d74d6b2c600073ca3f508b8e4dd382ee878a314789373d80a5190a73ffffffffffffffffffffffffffffffffffffffff166118f79092919063ffffffff16565b565b73bb4cdb9cbd36b01bd1cbaebf2de08d9173bc095c81565b60008060009054906101000a900473ffffffffffffffffffffffffffffffffffffffff16905090565b600581565b73453d4ba9a2d594314df88564248497f7d74d6b2c81565b600581565b600281815481106111d557fe5b906000526020600020016000915054906101000a900473ffffffffffffffffffffffffffffffffffffffff1681565b6103e881565b611212610e59565b15611285576040517f08c379a00000000000000000000000000000000000000000000000000000000081526004018080602001828103825260108152602001807f5061757361626c653a207061757365640000000000000000000000000000000081525060200191505060405180910390fd5b600073ca3f508b8e4dd382ee878a314789373d80a5190a73ffffffffffffffffffffffffffffffffffffffff166370a08231306040518263ffffffff1660e01b8152600401808273ffffffffffffffffffffffffffffffffffffffff16815260200191505060206040518083038186803b15801561130257600080fd5b505afa158015611316573d6000803e3d6000fd5b505050506040513d602081101561132c57600080fd5b8101908080519060200190929190505050905060008111156113c85773453d4ba9a2d594314df88564248497f7d74d6b2c73ffffffffffffffffffffffffffffffffffffffff1663a694fc3a826040518263ffffffff1660e01b815260040180828152602001915050600060405180830381600087803b1580156113af57600080fd5b505af11580156113c3573d6000803e3d6000fd5b505050505b50565b6113d3611d08565b73ffffffffffffffffffffffffffffffffffffffff166113f161117d565b73ffffffffffffffffffffffffffffffffffffffff161461147a576040517f08c379a00000000000000000000000000000000000000000000000000000000081526004018080602001828103825260208152602001807f4f776e61626c653a2063616c6c6572206973206e6f7420746865206f776e657281525060200191505060405180910390fd5b600073ffffffffffffffffffffffffffffffffffffffff168173ffffffffffffffffffffffffffffffffffffffff161415611500576040517f08c379a00000000000000000000000000000000000000000000000000000000081526004018080602001828103825260268152602001806127496026913960400191505060405180910390fd5b8073ffffffffffffffffffffffffffffffffffffffff1660008054906101000a900473ffffffffffffffffffffffffffffffffffffffff1673ffffffffffffffffffffffffffffffffffffffff167f8be0079c531659141344cd1fd0a4f28419497f9722a3daafe3b4186f6b6457e060405160405180910390a3806000806101000a81548173ffffffffffffffffffffffffffffffffffffffff021916908373ffffffffffffffffffffffffffffffffffffffff16021790555050565b600073ca3f508b8e4dd382ee878a314789373d80a5190a73ffffffffffffffffffffffffffffffffffffffff166370a08231306040518263ffffffff1660e01b8152600401808273ffffffffffffffffffffffffffffffffffffffff16815260200191505060206040518083038186803b15801561163a57600080fd5b505afa15801561164e573d6000803e3d6000fd5b505050506040513d602081101561166457600080fd5b8101908080519060200190929190505050905090565b611682611d08565b73ffffffffffffffffffffffffffffffffffffffff166116a061117d565b73ffffffffffffffffffffffffffffffffffffffff1614611729576040517f08c379a00000000000000000000000000000000000000000000000000000000081526004018080602001828103825260208152602001807f4f776e61626c653a2063616c6c6572206973206e6f7420746865206f776e657281525060200191505060405180910390fd5b611731610d14565b600073ca3f508b8e4dd382ee878a314789373d80a5190a73ffffffffffffffffffffffffffffffffffffffff166370a08231306040518263ffffffff1660e01b8152600401808273ffffffffffffffffffffffffffffffffffffffff16815260200191505060206040518083038186803b1580156117ae57600080fd5b505afa1580156117c2573d6000803e3d6000fd5b505050506040513d60208110156117d857600080fd5b8101908080519060200190929190505050905073ca3f508b8e4dd382ee878a314789373d80a5190a73ffffffffffffffffffffffffffffffffffffffff1663a9059cbb600160009054906101000a900473ffffffffffffffffffffffffffffffffffffffff16836040518363ffffffff1660e01b8152600401808373ffffffffffffffffffffffffffffffffffffffff16815260200182815260200192505050602060405180830381600087803b15801561189257600080fd5b505af11580156118a6573d6000803e3d6000fd5b505050506040513d60208110156118bc57600080fd5b81019080805190602001909291905050505050565b600160009054906101000a900473ffffffffffffffffffffffffffffffffffffffff1681565b60008114806119c5575060008373ffffffffffffffffffffffffffffffffffffffff1663dd62ed3e30856040518363ffffffff1660e01b8152600401808373ffffffffffffffffffffffffffffffffffffffff1681526020018273ffffffffffffffffffffffffffffffffffffffff1681526020019250505060206040518083038186803b15801561198857600080fd5b505afa15801561199c573d6000803e3d6000fd5b505050506040513d60208110156119b257600080fd5b8101908080519060200190929190505050145b611a1a576040517f08c379a00000000000000000000000000000000000000000000000000000000081526004018080602001828103825260368152602001806127e06036913960400191505060405180910390fd5b611ab78363095ea7b360e01b8484604051602401808373ffffffffffffffffffffffffffffffffffffffff16815260200182815260200192505050604051602081830303815290604052907bffffffffffffffffffffffffffffffffffffffffffffffffffffffff19166020820180517bffffffffffffffffffffffffffffffffffffffffffffffffffffffff83818316178352505050506123e4565b505050565b6060611acb84846000856124d3565b90509392505050565b600082821115611b4c576040517f08c379a000000000000000000000000000000000000000000000000000000000815260040180806020018281038252601e8152602001807f536166654d6174683a207375627472616374696f6e206f766572666c6f77000081525060200191505060405180910390fd5b818303905092915050565b600080831415611b6a5760009050611bd7565b6000828402905082848281611b7b57fe5b0414611bd2576040517f08c379a00000000000000000000000000000000000000000000000000000000081526004018080602001828103825260218152602001806127956021913960400191505060405180910390fd5b809150505b92915050565b6000808211611c54576040517f08c379a000000000000000000000000000000000000000000000000000000000815260040180806020018281038252601a8152602001807f536166654d6174683a206469766973696f6e206279207a65726f00000000000081525060200191505060405180910390fd5b818381611c5d57fe5b04905092915050565b611d038363a9059cbb60e01b8484604051602401808373ffffffffffffffffffffffffffffffffffffffff16815260200182815260200192505050604051602081830303815290604052907bffffffffffffffffffffffffffffffffffffffffffffffffffffffff19166020820180517bffffffffffffffffffffffffffffffffffffffffffffffffffffffff83818316178352505050506123e4565b505050565b600033905090565b611d18610e59565b611d8a576040517f08c379a00000000000000000000000000000000000000000000000000000000081526004018080602001828103825260148152602001807f5061757361626c653a206e6f742070617573656400000000000000000000000081525060200191505060405180910390fd5b60008060146101000a81548160ff0219169083151502179055507f5db9ee0a495bf2e6ff9c91a7834c1ba4fdd244a5e8aa4e537bd38aeae4b073aa611dcd611d08565b604051808273ffffffffffffffffffffffffffffffffffffffff16815260200191505060405180910390a1565b600080823b905060008111915050919050565b600073bb4cdb9cbd36b01bd1cbaebf2de08d9173bc095c73ffffffffffffffffffffffffffffffffffffffff166370a08231306040518263ffffffff1660e01b8152600401808273ffffffffffffffffffffffffffffffffffffffff16815260200191505060206040518083038186803b158015611e8a57600080fd5b505afa158015611e9e573d6000803e3d6000fd5b505050506040513d6020811015611eb457600080fd5b810190808051906020019092919050505090506000611ef16103e8611ee3600585611b5790919063ffffffff16565b611bdd90919063ffffffff16565b9050611f32338273bb4cdb9cbd36b01bd1cbaebf2de08d9173bc095c73ffffffffffffffffffffffffffffffffffffffff16611c669092919063ffffffff16565b6000611f5c6103e8611f4e600586611b5790919063ffffffff16565b611bdd90919063ffffffff16565b9050611fb173453d4ba9a2d594314df88564248497f7d74d6b2c8273bb4cdb9cbd36b01bd1cbaebf2de08d9173bc095c73ffffffffffffffffffffffffffffffffffffffff16611c669092919063ffffffff16565b505050565b600073bb4cdb9cbd36b01bd1cbaebf2de08d9173bc095c73ffffffffffffffffffffffffffffffffffffffff166370a08231306040518263ffffffff1660e01b8152600401808273ffffffffffffffffffffffffffffffffffffffff16815260200191505060206040518083038186803b15801561203357600080fd5b505afa158015612047573d6000803e3d6000fd5b505050506040513d602081101561205d57600080fd5b810190808051906020019092919050505090507310ed43c718714eb63d5aa57b78b54704e256024e73ffffffffffffffffffffffffffffffffffffffff166338ed17398260006002306120bb6102584261227090919063ffffffff16565b6040518663ffffffff1660e01b815260040180868152602001858152602001806020018473ffffffffffffffffffffffffffffffffffffffff168152602001838152602001828103825285818154815260200191508054801561217357602002820191906000526020600020905b8160009054906101000a900473ffffffffffffffffffffffffffffffffffffffff1673ffffffffffffffffffffffffffffffffffffffff1681526020019060010190808311612129575b50509650505050505050600060405180830381600087803b15801561219757600080fd5b505af11580156121ab573d6000803e3d6000fd5b505050506040513d6000823e3d601f19601f8201168201806040525060208110156121d557600080fd5b81019080805160405193929190846401000000008211156121f557600080fd5b8382019150602082018581111561220b57600080fd5b825186602082028301116401000000008211171561222857600080fd5b8083526020830192505050908051906020019060200280838360005b8381101561225f578082015181840152602081019050612244565b505050509050016040525050505050565b6000808284019050838110156122ee576040517f08c379a000000000000000000000000000000000000000000000000000000000815260040180806020018281038252601b8152602001807f536166654d6174683a206164646974696f6e206f766572666c6f77000000000081525060200191505060405180910390fd5b8091505092915050565b612300610e59565b15612373576040517f08c379a00000000000000000000000000000000000000000000000000000000081526004018080602001828103825260108152602001807f5061757361626c653a207061757365640000000000000000000000000000000081525060200191505060405180910390fd5b6001600060146101000a81548160ff0219169083151502179055507f62e78cea01bee320cd4e420270b5ea74000d11b0c9f74754ebdbfc544b05a2586123b7611d08565b604051808273ffffffffffffffffffffffffffffffffffffffff16815260200191505060405180910390a1565b6060612446826040518060400160405280602081526020017f5361666545524332303a206c6f772d6c6576656c2063616c6c206661696c65648152508573ffffffffffffffffffffffffffffffffffffffff16611abc9092919063ffffffff16565b90506000815111156124ce5780806020019051602081101561246757600080fd5b81019080805190602001909291905050506124cd576040517f08c379a000000000000000000000000000000000000000000000000000000000815260040180806020018281038252602a8152602001806127b6602a913960400191505060405180910390fd5b5b505050565b60608247101561252e576040517f08c379a000000000000000000000000000000000000000000000000000000000815260040180806020018281038252602681526020018061276f6026913960400191505060405180910390fd5b61253785611dfa565b6125a9576040517f08c379a000000000000000000000000000000000000000000000000000000000815260040180806020018281038252601d8152602001807f416464726573733a2063616c6c20746f206e6f6e2d636f6e747261637400000081525060200191505060405180910390fd5b600060608673ffffffffffffffffffffffffffffffffffffffff1685876040518082805190602001908083835b602083106125f957805182526020820191506020810190506020830392506125d6565b6001836020036101000a03801982511681845116808217855250505050505090500191505060006040518083038185875af1925050503d806000811461265b576040519150601f19603f3d011682016040523d82523d6000602084013e612660565b606091505b509150915061267082828661267c565b92505050949350505050565b6060831561268c57829050612741565b60008351111561269f5782518084602001fd5b816040517f08c379a00000000000000000000000000000000000000000000000000000000081526004018080602001828103825283818151815260200191508051906020019080838360005b838110156127065780820151818401526020810190506126eb565b50505050905090810190601f1680156127335780820380516001836020036101000a031916815260200191505b509250505060405180910390fd5b939250505056fe4f776e61626c653a206e6577206f776e657220697320746865207a65726f2061646472657373416464726573733a20696e73756666696369656e742062616c616e636520666f722063616c6c536166654d6174683a206d756c7469706c69636174696f6e206f766572666c6f775361666545524332303a204552433230206f7065726174696f6e20646964206e6f7420737563636565645361666545524332303a20617070726f76652066726f6d206e6f6e2d7a65726f20746f206e6f6e2d7a65726f20616c6c6f77616e6365a26469706673582212203dfe8a3ac85e9f4109d0a47159965a6dca48fdc34167eaf214fd8759c650d4d864736f6c634300060c0033416464726573733a20696e73756666696369656e742062616c616e636520666f722063616c6c5361666545524332303a204552433230206f7065726174696f6e20646964206e6f7420737563636565645361666545524332303a20617070726f76652066726f6d206e6f6e2d7a65726f20746f206e6f6e2d7a65726f20616c6c6f77616e6365",
  "immutableReferences": {},
  "source": "pragma solidity ^0.6.12;\r\nimport \"@openzeppelin/contracts/token/ERC20/ERC20.sol\";\r\nimport \"@openzeppelin/contracts/token/ERC20/SafeERC20.sol\";\r\nimport \"@openzeppelin/contracts/math/SafeMath.sol\";\r\nimport \"@openzeppelin/contracts/utils/Pausable.sol\";\r\nimport \"@openzeppelin/contracts/access/Ownable.sol\";\r\n\r\nimport \"../../interfaces/beefy/IRewardPool.sol\";\r\nimport \"../../interfaces/common/IUniswapRouter.sol\";\r\n\r\n/**\r\n * @dev BIFI MAXIMALIST STRATEGY. DEPOSIT BIFI. USE THE BNB REWARDS TO GET MORE BIFI!\r\n */\r\ncontract StrategyBifiMaxi is Ownable, Pausable {\r\n    using SafeERC20 for IERC20;\r\n    using Address for address;\r\n    using SafeMath for uint256;\r\n\r\n    /**\r\n     * @dev Tokens Used:\r\n     * {wbnb} - The token that rewards are paid in.\r\n     * {bifi} - BeefyFinance token. The token this strategy looks to maximize.\r\n     */\r\n    address constant public wbnb = address(0xbb4CdB9CBd36B01bD1cBaEBF2De08d9173bc095c);\r\n    address constant public bifi = address(0xCa3F508B8e4Dd382eE878A314789373D80A5190A);\r\n\r\n    /**\r\n     * @dev Third Party Contracts:\r\n     * {unirouter} - Streetswap router to use as AMM.\r\n     */\r\n    address constant public unirouter = address(0x10ED43C718714eb63d5aA57B78B54704E256024E);\r\n\r\n    /**\r\n     * @dev Beefy Contracts:\r\n     * {rewards} - Reward pool where the {bifi} is staked.\r\n     * {vault} - Address of the vault that controls the strategy's funds.\r\n     */\r\n    address constant public rewards  = address(0x453D4Ba9a2D594314DF88564248497F7D74d6b2C);\r\n    address public vault;\r\n\r\n    /**\r\n     * @dev Distribution of fees earned. This allocations relative to the % implemented on chargeFees().\r\n     * Current implementation separates 1% total for fees.\r\n     *\r\n     * {REWARDS_FEE} - 0.5% goes to BIFI holders through the {rewards} pool.\r\n     * {CALL_FEE} - 0.5% goes to pay for harvest execution.\r\n     * {MAX_FEE} - Aux const used to safely calc the correct amounts.\r\n     * \r\n     * {WITHDRAWAL_FEE} - Fee taxed when a user withdraws funds. 5 === 0.05% fee.\r\n     * {WITHDRAWAL_MAX} - Aux const used to safely calc the correct amounts.\r\n     */\r\n    uint constant public REWARDS_FEE  = 5;\r\n    uint constant public CALL_FEE     = 5;\r\n    uint constant public MAX_FEE      = 1000;\r\n\r\n    uint constant public WITHDRAWAL_FEE = 5;\r\n    uint constant public WITHDRAWAL_MAX = 10000;\r\n\r\n    /**\r\n     * @dev Routes we take to swap tokens using Thugswap.\r\n     * {wbnbToBifiRoute} - Route we take to get from {wbnb} into {bifi}.\r\n     */\r\n    address[] public wbnbToBifiRoute = [wbnb, bifi];\r\n  \r\n    /**\r\n     * @dev Initializes the strategy with the token to maximize.\r\n     */\r\n    constructor(address _vault) public {\r\n        vault = _vault;\r\n\r\n        IERC20(wbnb).safeApprove(unirouter, uint(-1));\r\n        IERC20(bifi).safeApprove(rewards, uint(-1));\r\n    }\r\n    \r\n    /**\r\n     * @dev Function that puts the funds to work.\r\n     * It gets called whenever someone deposits in the strategy's vault contract.\r\n     * It stakes the received {bifi} into the {rewards} pool.\r\n     */\r\n    function deposit() public whenNotPaused {\r\n        uint256 bifiBal = IERC20(bifi).balanceOf(address(this));\r\n\r\n        if (bifiBal > 0) {\r\n            IRewardPool(rewards).stake(bifiBal);\r\n        }\r\n    }\r\n\r\n    /**\r\n     * @dev Withdraws funds and sends them back to the vault.\r\n     * It withdraws {bifi} from the {rewards} pool.\r\n     * The available {bifi} minus a withdrawal fee is returned to the vault.\r\n     */\r\n    function withdraw(uint256 _amount) external {\r\n        require(msg.sender == vault, \"!vault\");\r\n\r\n        uint256 bifiBal = IERC20(bifi).balanceOf(address(this));\r\n\r\n        if (bifiBal < _amount) {   \r\n            IRewardPool(rewards).withdraw(_amount.sub(bifiBal));\r\n            bifiBal = IERC20(bifi).balanceOf(address(this));\r\n        }\r\n\r\n        if (bifiBal > _amount) {\r\n            bifiBal = _amount;    \r\n        }\r\n        \r\n        uint256 withdrawalFee = bifiBal.mul(WITHDRAWAL_FEE).div(WITHDRAWAL_MAX);\r\n        IERC20(bifi).safeTransfer(vault, bifiBal.sub(withdrawalFee));\r\n    }\r\n\r\n    /**\r\n     * @dev Core function of the strat, in charge of collecting and re-investing rewards.\r\n     * 1. It claims rewards from the RewardPool.\r\n     * 2. It charges a small system fee.\r\n     * 3. It swaps the {wbnb} token for more {bifi}\r\n     * 4. It deposits the {bifi} back into the pool.\r\n     */\r\n    function harvest() external whenNotPaused onlyOwner {\r\n        require(!Address.isContract(msg.sender), \"!contract\");\r\n        IRewardPool(rewards).getReward();\r\n        chargeFees();\r\n        swapRewards();\r\n        deposit();\r\n    }\r\n\r\n    /**\r\n     * @dev Takes out 1% as system fees from the rewards. \r\n     * 0.5% -> Call Fee\r\n     * 0.5% -> Rewards fee\r\n     */\r\n    function chargeFees() internal {\r\n        uint256 wbnbBal = IERC20(wbnb).balanceOf(address(this));\r\n\r\n        uint256 callFee = wbnbBal.mul(CALL_FEE).div(MAX_FEE);\r\n        IERC20(wbnb).safeTransfer(msg.sender, callFee);\r\n\r\n        uint256 rewardsFee = wbnbBal.mul(REWARDS_FEE).div(MAX_FEE);\r\n        IERC20(wbnb).safeTransfer(rewards, rewardsFee);\r\n    }\r\n\r\n    /**\r\n     * @dev Swaps whatever {wbnb} it has for more {bifi}.\r\n     */\r\n    function swapRewards() internal {\r\n        uint256 wbnbBal = IERC20(wbnb).balanceOf(address(this));\r\n        IUniswapRouter(unirouter).swapExactTokensForTokens(wbnbBal, 0, wbnbToBifiRoute, address(this), now.add(600));\r\n    }\r\n\r\n    /**\r\n     * @dev Function to calculate the total underlaying {bifi} held by the strat.\r\n     * It takes into account both the funds at hand, as the funds allocated in the RewardsPool.\r\n     */\r\n    function balanceOf() public view returns (uint256) {\r\n        return balanceOfBifi().add(balanceOfPool());\r\n    }\r\n\r\n    /**\r\n     * @dev It calculates how much {bifi} the contract holds.\r\n     */\r\n    function balanceOfBifi() public view returns (uint256) {\r\n        return IERC20(bifi).balanceOf(address(this));\r\n    }\r\n\r\n    /**\r\n     * @dev It calculates how much {bifi} the strategy has allocated in the RewardsPool\r\n     */\r\n    function balanceOfPool() public view returns (uint256) {\r\n        return IRewardPool(rewards).balanceOf(address(this));\r\n    }\r\n\r\n    /**\r\n     * @dev Function that has to be called as part of strat migration. It sends all the available funds back to the \r\n     * vault, ready to be migrated to the new strat.\r\n     */ \r\n    function retireStrat() external onlyOwner {\r\n        panic();\r\n\r\n        uint256 bifiBal = IERC20(bifi).balanceOf(address(this));\r\n        IERC20(bifi).transfer(vault, bifiBal);\r\n    }\r\n\r\n    /**\r\n     * @dev Pauses deposits. Withdraws all funds from the OriginalGangster, leaving rewards behind\r\n     */\r\n    function panic() public onlyOwner {\r\n        pause();\r\n        IRewardPool(rewards).withdraw(balanceOfPool());\r\n    }\r\n\r\n    /**\r\n     * @dev Pauses the strat.\r\n     */\r\n    function pause() public onlyOwner {\r\n        _pause();\r\n\r\n        IERC20(wbnb).safeApprove(unirouter, 0);\r\n        IERC20(bifi).safeApprove(rewards, 0);\r\n    }\r\n\r\n    /**\r\n     * @dev Unpauses the strat.\r\n     */\r\n    function unpause() external onlyOwner {\r\n        _unpause();\r\n\r\n        IERC20(wbnb).safeApprove(unirouter, uint(-1));\r\n        IERC20(bifi).safeApprove(rewards, uint(-1));\r\n    }\r\n}",
  "sourcePath": "I:/13-GithubWork/Vaults-Protocol/contracts/pools/BiFi/StrategyBifiMaxi.sol",
  "compiler": {
    "name": "solc",
    "version": "0.6.12+commit.27d51765.Emscripten.clang"
  },
  "schemaVersion": "3.4.1",
  "updatedAt": "2021-07-16T14:57:45.285Z",
  "devdoc": {
    "details": "BIFI MAXIMALIST STRATEGY. DEPOSIT BIFI. USE THE BNB REWARDS TO GET MORE BIFI!",
    "kind": "dev",
    "methods": {
      "balanceOf()": {
        "details": "Function to calculate the total underlaying {bifi} held by the strat. It takes into account both the funds at hand, as the funds allocated in the RewardsPool."
      },
      "balanceOfBifi()": {
        "details": "It calculates how much {bifi} the contract holds."
      },
      "balanceOfPool()": {
        "details": "It calculates how much {bifi} the strategy has allocated in the RewardsPool"
      },
      "constructor": {
        "details": "Initializes the strategy with the token to maximize."
      },
      "deposit()": {
        "details": "Function that puts the funds to work. It gets called whenever someone deposits in the strategy's vault contract. It stakes the received {bifi} into the {rewards} pool."
      },
      "harvest()": {
        "details": "Core function of the strat, in charge of collecting and re-investing rewards. 1. It claims rewards from the RewardPool. 2. It charges a small system fee. 3. It swaps the {wbnb} token for more {bifi} 4. It deposits the {bifi} back into the pool."
      },
      "owner()": {
        "details": "Returns the address of the current owner."
      },
      "panic()": {
        "details": "Pauses deposits. Withdraws all funds from the OriginalGangster, leaving rewards behind"
      },
      "pause()": {
        "details": "Pauses the strat."
      },
      "paused()": {
        "details": "Returns true if the contract is paused, and false otherwise."
      },
      "renounceOwnership()": {
        "details": "Leaves the contract without owner. It will not be possible to call `onlyOwner` functions anymore. Can only be called by the current owner. NOTE: Renouncing ownership will leave the contract without an owner, thereby removing any functionality that is only available to the owner."
      },
      "retireStrat()": {
        "details": "Function that has to be called as part of strat migration. It sends all the available funds back to the  vault, ready to be migrated to the new strat."
      },
      "transferOwnership(address)": {
        "details": "Transfers ownership of the contract to a new account (`newOwner`). Can only be called by the current owner."
      },
      "unpause()": {
        "details": "Unpauses the strat."
      },
      "withdraw(uint256)": {
        "details": "Withdraws funds and sends them back to the vault. It withdraws {bifi} from the {rewards} pool. The available {bifi} minus a withdrawal fee is returned to the vault."
      }
    },
    "stateVariables": {
      "REWARDS_FEE": {
        "details": "Distribution of fees earned. This allocations relative to the % implemented on chargeFees(). Current implementation separates 1% total for fees. {REWARDS_FEE} - 0.5% goes to BIFI holders through the {rewards} pool. {CALL_FEE} - 0.5% goes to pay for harvest execution. {MAX_FEE} - Aux const used to safely calc the correct amounts.  {WITHDRAWAL_FEE} - Fee taxed when a user withdraws funds. 5 === 0.05% fee. {WITHDRAWAL_MAX} - Aux const used to safely calc the correct amounts."
      },
      "rewards": {
        "details": "Beefy Contracts: {rewards} - Reward pool where the {bifi} is staked. {vault} - Address of the vault that controls the strategy's funds."
      },
      "unirouter": {
        "details": "Third Party Contracts: {unirouter} - Streetswap router to use as AMM."
      },
      "wbnb": {
        "details": "Tokens Used: {wbnb} - The token that rewards are paid in. {bifi} - BeefyFinance token. The token this strategy looks to maximize."
      },
      "wbnbToBifiRoute": {
        "details": "Routes we take to swap tokens using Thugswap. {wbnbToBifiRoute} - Route we take to get from {wbnb} into {bifi}."
      }
    },
    "version": 1
  },
  "userdoc": {
    "kind": "user",
    "methods": {},
    "version": 1
  }
}