{
  "contractName": "StrategyCakeChefLP",
  "abi": [
    {
      "inputs": [
        {
          "internalType": "address",
          "name": "_want",
          "type": "address"
        },
        {
          "internalType": "uint256",
          "name": "_poolId",
          "type": "uint256"
        },
        {
          "internalType": "address",
          "name": "_vault",
          "type": "address"
        },
        {
          "internalType": "address",
          "name": "_unirouter",
          "type": "address"
        },
        {
          "internalType": "address",
          "name": "_keeper",
          "type": "address"
        },
        {
          "internalType": "address",
          "name": "_strategist",
          "type": "address"
        },
        {
          "internalType": "address",
          "name": "_beefyFeeRecipient",
          "type": "address"
        },
        {
          "internalType": "address[]",
          "name": "_outputToNativeRoute",
          "type": "address[]"
        },
        {
          "internalType": "address[]",
          "name": "_outputToLp0Route",
          "type": "address[]"
        },
        {
          "internalType": "address[]",
          "name": "_outputToLp1Route",
          "type": "address[]"
        }
      ],
      "stateMutability": "nonpayable",
      "type": "constructor"
    },
    {
      "anonymous": false,
      "inputs": [
        {
          "indexed": true,
          "internalType": "address",
          "name": "previousOwner",
          "type": "address"
        },
        {
          "indexed": true,
          "internalType": "address",
          "name": "newOwner",
          "type": "address"
        }
      ],
      "name": "OwnershipTransferred",
      "type": "event"
    },
    {
      "anonymous": false,
      "inputs": [
        {
          "indexed": false,
          "internalType": "address",
          "name": "account",
          "type": "address"
        }
      ],
      "name": "Paused",
      "type": "event"
    },
    {
      "anonymous": false,
      "inputs": [
        {
          "indexed": true,
          "internalType": "address",
          "name": "harvester",
          "type": "address"
        }
      ],
      "name": "StratHarvest",
      "type": "event"
    },
    {
      "anonymous": false,
      "inputs": [
        {
          "indexed": false,
          "internalType": "address",
          "name": "account",
          "type": "address"
        }
      ],
      "name": "Unpaused",
      "type": "event"
    },
    {
      "inputs": [],
      "name": "MAX_CALL_FEE",
      "outputs": [
        {
          "internalType": "uint256",
          "name": "",
          "type": "uint256"
        }
      ],
      "stateMutability": "view",
      "type": "function"
    },
    {
      "inputs": [],
      "name": "MAX_FEE",
      "outputs": [
        {
          "internalType": "uint256",
          "name": "",
          "type": "uint256"
        }
      ],
      "stateMutability": "view",
      "type": "function"
    },
    {
      "inputs": [],
      "name": "STRATEGIST_FEE",
      "outputs": [
        {
          "internalType": "uint256",
          "name": "",
          "type": "uint256"
        }
      ],
      "stateMutability": "view",
      "type": "function"
    },
    {
      "inputs": [],
      "name": "WITHDRAWAL_FEE_CAP",
      "outputs": [
        {
          "internalType": "uint256",
          "name": "",
          "type": "uint256"
        }
      ],
      "stateMutability": "view",
      "type": "function"
    },
    {
      "inputs": [],
      "name": "WITHDRAWAL_MAX",
      "outputs": [
        {
          "internalType": "uint256",
          "name": "",
          "type": "uint256"
        }
      ],
      "stateMutability": "view",
      "type": "function"
    },
    {
      "inputs": [],
      "name": "balanceOf",
      "outputs": [
        {
          "internalType": "uint256",
          "name": "",
          "type": "uint256"
        }
      ],
      "stateMutability": "view",
      "type": "function"
    },
    {
      "inputs": [],
      "name": "balanceOfPool",
      "outputs": [
        {
          "internalType": "uint256",
          "name": "",
          "type": "uint256"
        }
      ],
      "stateMutability": "view",
      "type": "function"
    },
    {
      "inputs": [],
      "name": "balanceOfWant",
      "outputs": [
        {
          "internalType": "uint256",
          "name": "",
          "type": "uint256"
        }
      ],
      "stateMutability": "view",
      "type": "function"
    },
    {
      "inputs": [],
      "name": "beefyFee",
      "outputs": [
        {
          "internalType": "uint256",
          "name": "",
          "type": "uint256"
        }
      ],
      "stateMutability": "view",
      "type": "function"
    },
    {
      "inputs": [],
      "name": "beefyFeeRecipient",
      "outputs": [
        {
          "internalType": "address",
          "name": "",
          "type": "address"
        }
      ],
      "stateMutability": "view",
      "type": "function"
    },
    {
      "inputs": [],
      "name": "beforeDeposit",
      "outputs": [],
      "stateMutability": "nonpayable",
      "type": "function"
    },
    {
      "inputs": [],
      "name": "callFee",
      "outputs": [
        {
          "internalType": "uint256",
          "name": "",
          "type": "uint256"
        }
      ],
      "stateMutability": "view",
      "type": "function"
    },
    {
      "inputs": [],
      "name": "chef",
      "outputs": [
        {
          "internalType": "address",
          "name": "",
          "type": "address"
        }
      ],
      "stateMutability": "view",
      "type": "function"
    },
    {
      "inputs": [],
      "name": "deposit",
      "outputs": [],
      "stateMutability": "nonpayable",
      "type": "function"
    },
    {
      "inputs": [],
      "name": "gasprice",
      "outputs": [
        {
          "internalType": "address",
          "name": "",
          "type": "address"
        }
      ],
      "stateMutability": "view",
      "type": "function"
    },
    {
      "inputs": [],
      "name": "isNativeRoutes",
      "outputs": [
        {
          "internalType": "bool",
          "name": "",
          "type": "bool"
        }
      ],
      "stateMutability": "view",
      "type": "function"
    },
    {
      "inputs": [],
      "name": "keeper",
      "outputs": [
        {
          "internalType": "address",
          "name": "",
          "type": "address"
        }
      ],
      "stateMutability": "view",
      "type": "function"
    },
    {
      "inputs": [],
      "name": "lpToken0",
      "outputs": [
        {
          "internalType": "address",
          "name": "",
          "type": "address"
        }
      ],
      "stateMutability": "view",
      "type": "function"
    },
    {
      "inputs": [],
      "name": "lpToken1",
      "outputs": [
        {
          "internalType": "address",
          "name": "",
          "type": "address"
        }
      ],
      "stateMutability": "view",
      "type": "function"
    },
    {
      "inputs": [],
      "name": "native",
      "outputs": [
        {
          "internalType": "address",
          "name": "",
          "type": "address"
        }
      ],
      "stateMutability": "view",
      "type": "function"
    },
    {
      "inputs": [],
      "name": "output",
      "outputs": [
        {
          "internalType": "address",
          "name": "",
          "type": "address"
        }
      ],
      "stateMutability": "view",
      "type": "function"
    },
    {
      "inputs": [],
      "name": "owner",
      "outputs": [
        {
          "internalType": "address",
          "name": "",
          "type": "address"
        }
      ],
      "stateMutability": "view",
      "type": "function"
    },
    {
      "inputs": [],
      "name": "panic",
      "outputs": [],
      "stateMutability": "nonpayable",
      "type": "function"
    },
    {
      "inputs": [],
      "name": "pause",
      "outputs": [],
      "stateMutability": "nonpayable",
      "type": "function"
    },
    {
      "inputs": [],
      "name": "paused",
      "outputs": [
        {
          "internalType": "bool",
          "name": "",
          "type": "bool"
        }
      ],
      "stateMutability": "view",
      "type": "function"
    },
    {
      "inputs": [],
      "name": "poolId",
      "outputs": [
        {
          "internalType": "uint256",
          "name": "",
          "type": "uint256"
        }
      ],
      "stateMutability": "view",
      "type": "function"
    },
    {
      "inputs": [],
      "name": "renounceOwnership",
      "outputs": [],
      "stateMutability": "nonpayable",
      "type": "function"
    },
    {
      "inputs": [],
      "name": "retireStrat",
      "outputs": [],
      "stateMutability": "nonpayable",
      "type": "function"
    },
    {
      "inputs": [],
      "name": "routeToLp0",
      "outputs": [
        {
          "internalType": "address[]",
          "name": "",
          "type": "address[]"
        }
      ],
      "stateMutability": "view",
      "type": "function"
    },
    {
      "inputs": [],
      "name": "routeToLp1",
      "outputs": [
        {
          "internalType": "address[]",
          "name": "",
          "type": "address[]"
        }
      ],
      "stateMutability": "view",
      "type": "function"
    },
    {
      "inputs": [],
      "name": "routeToNative",
      "outputs": [
        {
          "internalType": "address[]",
          "name": "",
          "type": "address[]"
        }
      ],
      "stateMutability": "view",
      "type": "function"
    },
    {
      "inputs": [
        {
          "internalType": "address",
          "name": "_beefyFeeRecipient",
          "type": "address"
        }
      ],
      "name": "setBeefyFeeRecipient",
      "outputs": [],
      "stateMutability": "nonpayable",
      "type": "function"
    },
    {
      "inputs": [
        {
          "internalType": "uint256",
          "name": "_fee",
          "type": "uint256"
        }
      ],
      "name": "setCallFee",
      "outputs": [],
      "stateMutability": "nonpayable",
      "type": "function"
    },
    {
      "inputs": [
        {
          "internalType": "address",
          "name": "_keeper",
          "type": "address"
        }
      ],
      "name": "setKeeper",
      "outputs": [],
      "stateMutability": "nonpayable",
      "type": "function"
    },
    {
      "inputs": [
        {
          "internalType": "address",
          "name": "_strategist",
          "type": "address"
        }
      ],
      "name": "setStrategist",
      "outputs": [],
      "stateMutability": "nonpayable",
      "type": "function"
    },
    {
      "inputs": [
        {
          "internalType": "address",
          "name": "_unirouter",
          "type": "address"
        }
      ],
      "name": "setUnirouter",
      "outputs": [],
      "stateMutability": "nonpayable",
      "type": "function"
    },
    {
      "inputs": [
        {
          "internalType": "address",
          "name": "_vault",
          "type": "address"
        }
      ],
      "name": "setVault",
      "outputs": [],
      "stateMutability": "nonpayable",
      "type": "function"
    },
    {
      "inputs": [
        {
          "internalType": "uint256",
          "name": "_fee",
          "type": "uint256"
        }
      ],
      "name": "setWithdrawalFee",
      "outputs": [],
      "stateMutability": "nonpayable",
      "type": "function"
    },
    {
      "inputs": [],
      "name": "strategist",
      "outputs": [
        {
          "internalType": "address",
          "name": "",
          "type": "address"
        }
      ],
      "stateMutability": "view",
      "type": "function"
    },
    {
      "inputs": [
        {
          "internalType": "uint256",
          "name": "",
          "type": "uint256"
        }
      ],
      "name": "toLp0Route",
      "outputs": [
        {
          "internalType": "address",
          "name": "",
          "type": "address"
        }
      ],
      "stateMutability": "view",
      "type": "function"
    },
    {
      "inputs": [
        {
          "internalType": "uint256",
          "name": "",
          "type": "uint256"
        }
      ],
      "name": "toLp1Route",
      "outputs": [
        {
          "internalType": "address",
          "name": "",
          "type": "address"
        }
      ],
      "stateMutability": "view",
      "type": "function"
    },
    {
      "inputs": [
        {
          "internalType": "uint256",
          "name": "",
          "type": "uint256"
        }
      ],
      "name": "toNativeRoute",
      "outputs": [
        {
          "internalType": "address",
          "name": "",
          "type": "address"
        }
      ],
      "stateMutability": "view",
      "type": "function"
    },
    {
      "inputs": [
        {
          "internalType": "address",
          "name": "newOwner",
          "type": "address"
        }
      ],
      "name": "transferOwnership",
      "outputs": [],
      "stateMutability": "nonpayable",
      "type": "function"
    },
    {
      "inputs": [],
      "name": "unirouter",
      "outputs": [
        {
          "internalType": "address",
          "name": "",
          "type": "address"
        }
      ],
      "stateMutability": "view",
      "type": "function"
    },
    {
      "inputs": [],
      "name": "unpause",
      "outputs": [],
      "stateMutability": "nonpayable",
      "type": "function"
    },
    {
      "inputs": [],
      "name": "vault",
      "outputs": [
        {
          "internalType": "address",
          "name": "",
          "type": "address"
        }
      ],
      "stateMutability": "view",
      "type": "function"
    },
    {
      "inputs": [],
      "name": "want",
      "outputs": [
        {
          "internalType": "address",
          "name": "",
          "type": "address"
        }
      ],
      "stateMutability": "view",
      "type": "function"
    },
    {
      "inputs": [
        {
          "internalType": "uint256",
          "name": "_amount",
          "type": "uint256"
        }
      ],
      "name": "withdraw",
      "outputs": [],
      "stateMutability": "nonpayable",
      "type": "function"
    },
    {
      "inputs": [],
      "name": "withdrawalFee",
      "outputs": [
        {
          "internalType": "uint256",
          "name": "",
          "type": "uint256"
        }
      ],
      "stateMutability": "view",
      "type": "function"
    },
    {
      "inputs": [],
      "name": "harvest",
      "outputs": [],
      "stateMutability": "nonpayable",
      "type": "function"
    }
  ],
  "bytecode": "0x610180604052600a600655606f60075560075460706103e803036008553480156200002957600080fd5b50604051620065043803806200650483398181016040526101408110156200005057600080fd5b810190808051906020019092919080519060200190929190805190602001909291908051906020019092919080519060200190929190805190602001909291908051906020019092919080516040519392919084640100000000821115620000b757600080fd5b83820191506020820185811115620000ce57600080fd5b8251866020820283011164010000000082111715620000ec57600080fd5b8083526020830192505050908051906020019060200280838360005b838110156200012557808201518184015260208101905062000108565b50505050905001604052602001805160405193929190846401000000008211156200014f57600080fd5b838201915060208201858111156200016657600080fd5b82518660208202830111640100000000821117156200018457600080fd5b8083526020830192505050908051906020019060200280838360005b83811015620001bd578082015181840152602081019050620001a0565b5050505090500160405260200180516040519392919084640100000000821115620001e757600080fd5b83820191506020820185811115620001fe57600080fd5b82518660208202830111640100000000821117156200021c57600080fd5b8083526020830192505050908051906020019060200280838360005b838110156200025557808201518184015260208101905062000238565b5050505090500160405250505089897373feaa1ee314f8c655e354234017be2193c9e24e8a8a8a8a8a8a8a8a8585888a8760006200029862000b1260201b60201c565b9050806000806101000a81548173ffffffffffffffffffffffffffffffffffffffff021916908373ffffffffffffffffffffffffffffffffffffffff1602179055508073ffffffffffffffffffffffffffffffffffffffff16600073ffffffffffffffffffffffffffffffffffffffff167f8be0079c531659141344cd1fd0a4f28419497f9722a3daafe3b4186f6b6457e060405160405180910390a35060008060146101000a81548160ff02191690831515021790555084600160006101000a81548173ffffffffffffffffffffffffffffffffffffffff021916908373ffffffffffffffffffffffffffffffffffffffff16021790555083600260006101000a81548173ffffffffffffffffffffffffffffffffffffffff021916908373ffffffffffffffffffffffffffffffffffffffff16021790555082600360006101000a81548173ffffffffffffffffffffffffffffffffffffffff021916908373ffffffffffffffffffffffffffffffffffffffff16021790555081600460006101000a81548173ffffffffffffffffffffffffffffffffffffffff021916908373ffffffffffffffffffffffffffffffffffffffff16021790555080600560006101000a81548173ffffffffffffffffffffffffffffffffffffffff021916908373ffffffffffffffffffffffffffffffffffffffff16021790555050505050508a73ffffffffffffffffffffffffffffffffffffffff1660c08173ffffffffffffffffffffffffffffffffffffffff1660601b815250508961014081815250508873ffffffffffffffffffffffffffffffffffffffff166101208173ffffffffffffffffffffffffffffffffffffffff1660601b815250506000836000815181106200052257fe5b60200260200101519050600073ffffffffffffffffffffffffffffffffffffffff168173ffffffffffffffffffffffffffffffffffffffff161415620005d0576040517f08c379a00000000000000000000000000000000000000000000000000000000081526004018080602001828103825260078152602001807f216f75747075740000000000000000000000000000000000000000000000000081525060200191505060405180910390fd5b8073ffffffffffffffffffffffffffffffffffffffff1660a08173ffffffffffffffffffffffffffffffffffffffff1660601b815250506000846001865103815181106200061a57fe5b60200260200101519050600073ffffffffffffffffffffffffffffffffffffffff168173ffffffffffffffffffffffffffffffffffffffff161415620006c8576040517f08c379a00000000000000000000000000000000000000000000000000000000081526004018080602001828103825260078152602001807f216e61746976650000000000000000000000000000000000000000000000000081525060200191505060405180910390fd5b8073ffffffffffffffffffffffffffffffffffffffff1660808173ffffffffffffffffffffffffffffffffffffffff1660601b8152505084600990805190602001906200071792919062001262565b5060008d73ffffffffffffffffffffffffffffffffffffffff16630dfe16816040518163ffffffff1660e01b815260040160206040518083038186803b1580156200076157600080fd5b505afa15801562000776573d6000803e3d6000fd5b505050506040513d60208110156200078d57600080fd5b8101908080519060200190929190505050905084600186510381518110620007b157fe5b602002602001015173ffffffffffffffffffffffffffffffffffffffff168173ffffffffffffffffffffffffffffffffffffffff16146200085a576040517f08c379a00000000000000000000000000000000000000000000000000000000081526004018080602001828103825260078152602001807f21746f6b656e300000000000000000000000000000000000000000000000000081525060200191505060405180910390fd5b84600a90805190602001906200087292919062001262565b508073ffffffffffffffffffffffffffffffffffffffff1660e08173ffffffffffffffffffffffffffffffffffffffff1660601b8152505060008e73ffffffffffffffffffffffffffffffffffffffff1663d21220a76040518163ffffffff1660e01b815260040160206040518083038186803b158015620008f357600080fd5b505afa15801562000908573d6000803e3d6000fd5b505050506040513d60208110156200091f57600080fd5b81019080805190602001909291905050509050846001865103815181106200094357fe5b602002602001015173ffffffffffffffffffffffffffffffffffffffff168173ffffffffffffffffffffffffffffffffffffffff1614620009ec576040517f08c379a00000000000000000000000000000000000000000000000000000000081526004018080602001828103825260078152602001807f21746f6b656e310000000000000000000000000000000000000000000000000081525060200191505060405180910390fd5b84600b908051906020019062000a0492919062001262565b508073ffffffffffffffffffffffffffffffffffffffff166101008173ffffffffffffffffffffffffffffffffffffffff1660601b815250508273ffffffffffffffffffffffffffffffffffffffff168660008151811062000a6257fe5b602002602001015173ffffffffffffffffffffffffffffffffffffffff1614801562000ace57508273ffffffffffffffffffffffffffffffffffffffff168560008151811062000aae57fe5b602002602001015173ffffffffffffffffffffffffffffffffffffffff16145b151561016081151560f81b8152505062000af38f8e868e868662000b1a60201b60201c565b505050505050505050505050505050505050505050505050506200132e565b600033905090565b62000b6c857fffffffffffffffffffffffffffffffffffffffffffffffffffffffffffffffff8873ffffffffffffffffffffffffffffffffffffffff1662000cd060201b62002cb9179092919060201c565b62000bbe837fffffffffffffffffffffffffffffffffffffffffffffffffffffffffffffffff8673ffffffffffffffffffffffffffffffffffffffff1662000cd060201b62002cb9179092919060201c565b62000bf18360008473ffffffffffffffffffffffffffffffffffffffff1662000cd060201b62002cb9179092919060201c565b62000c43837fffffffffffffffffffffffffffffffffffffffffffffffffffffffffffffffff8473ffffffffffffffffffffffffffffffffffffffff1662000cd060201b62002cb9179092919060201c565b62000c768360008373ffffffffffffffffffffffffffffffffffffffff1662000cd060201b62002cb9179092919060201c565b62000cc8837fffffffffffffffffffffffffffffffffffffffffffffffffffffffffffffffff8373ffffffffffffffffffffffffffffffffffffffff1662000cd060201b62002cb9179092919060201c565b505050505050565b600081148062000da2575060008373ffffffffffffffffffffffffffffffffffffffff1663dd62ed3e30856040518363ffffffff1660e01b8152600401808373ffffffffffffffffffffffffffffffffffffffff1681526020018273ffffffffffffffffffffffffffffffffffffffff1681526020019250505060206040518083038186803b15801562000d6357600080fd5b505afa15801562000d78573d6000803e3d6000fd5b505050506040513d602081101562000d8f57600080fd5b8101908080519060200190929190505050145b62000df9576040517f08c379a0000000000000000000000000000000000000000000000000000000008152600401808060200182810382526036815260200180620064ce6036913960400191505060405180910390fd5b62000e9e8363095ea7b360e01b8484604051602401808373ffffffffffffffffffffffffffffffffffffffff16815260200182815260200192505050604051602081830303815290604052907bffffffffffffffffffffffffffffffffffffffffffffffffffffffff19166020820180517bffffffffffffffffffffffffffffffffffffffffffffffffffffffff838183161783525050505062000ea360201b60201c565b505050565b606062000f0c826040518060400160405280602081526020017f5361666545524332303a206c6f772d6c6576656c2063616c6c206661696c65648152508573ffffffffffffffffffffffffffffffffffffffff1662000f9d60201b62002e7e179092919060201c565b905060008151111562000f985780806020019051602081101562000f2f57600080fd5b810190808051906020019092919050505062000f97576040517f08c379a000000000000000000000000000000000000000000000000000000000815260040180806020018281038252602a815260200180620064a4602a913960400191505060405180910390fd5b5b505050565b606062000fb4848460008562000fbd60201b60201c565b90509392505050565b6060824710156200101a576040517f08c379a00000000000000000000000000000000000000000000000000000000081526004018080602001828103825260268152602001806200647e6026913960400191505060405180910390fd5b6200102b856200117d60201b60201c565b6200109e576040517f08c379a000000000000000000000000000000000000000000000000000000000815260040180806020018281038252601d8152602001807f416464726573733a2063616c6c20746f206e6f6e2d636f6e747261637400000081525060200191505060405180910390fd5b600060608673ffffffffffffffffffffffffffffffffffffffff1685876040518082805190602001908083835b60208310620010f05780518252602082019150602081019050602083039250620010cb565b6001836020036101000a03801982511681845116808217855250505050505090500191505060006040518083038185875af1925050503d806000811462001154576040519150601f19603f3d011682016040523d82523d6000602084013e62001159565b606091505b5091509150620011718282866200119060201b60201c565b92505050949350505050565b600080823b905060008111915050919050565b60608315620011a2578290506200125b565b600083511115620011b65782518084602001fd5b816040517f08c379a00000000000000000000000000000000000000000000000000000000081526004018080602001828103825283818151815260200191508051906020019080838360005b838110156200121f57808201518184015260208101905062001202565b50505050905090810190601f1680156200124d5780820380516001836020036101000a031916815260200191505b509250505060405180910390fd5b9392505050565b828054828255906000526020600020908101928215620012de579160200282015b82811115620012dd5782518260006101000a81548173ffffffffffffffffffffffffffffffffffffffff021916908373ffffffffffffffffffffffffffffffffffffffff1602179055509160200191906001019062001283565b5b509050620012ed9190620012f1565b5090565b5b808211156200132a57600081816101000a81549073ffffffffffffffffffffffffffffffffffffffff021916905550600101620012f2565b5090565b60805160601c60a05160601c60c05160601c60e05160601c6101005160601c6101205160601c610140516101605160f81c614ff762001487600039806125735280613458525080610bff52806111695280611431528061180552806124f25280612a3252806133e0525080610bc35280610d96528061112d52806117c952806124b652806129f652806131da52806133a452806136ba525080611e4152806132605280613827528061436752806146635280614786525080611922528061323f52806137b9528061411c528061459d5280614765525080610d72528061106152806111f2528061133452806113e5528061219e52806123e95280612aa35280612b6752806131b952806136dd52508061268f52806131fb52806134c7528061374b5280613c9552806148bc525080610cc052806134915280613f605280614b955280614d775280614e115280614eaa5250614ff76000f3fe608060405234801561001057600080fd5b50600436106102d65760003560e01c80637d38ca6511610182578063c1a3d44c116100e9578063dfbdc437116100a2578063f4c832e01161007c578063f4c832e014610ac9578063fb61778714610b28578063fb6aa4a814610b32578063fbfa77cf14610b8a576102d6565b8063dfbdc43714610a33578063f20eaeb814610a51578063f2fde38b14610a85576102d6565b8063c1a3d44c14610945578063c7b9d53014610963578063d0e30db0146109a7578063d3102589146109b1578063d6a29da2146109cf578063d92f3d73146109ef576102d6565b806390321e1a1161013b57806390321e1a1461080b578063a68833e514610829578063abc728d31461086d578063ac1e5025146108c5578063aced1661146108f3578063bc063e1a14610927576102d6565b80637d38ca65146107295780638456cb5914610747578063877562b6146107515780638bc7e8c4146107855780638da5cb5b146107a35780638e145459146107d7576102d6565b806343144d18116102415780635c975abb116101fa5780636ec232d3116101d45780636ec232d314610689578063715018a6146106bd578063722713f7146106c7578063748747e6146106e5576102d6565b80635c975abb146105f15780635ee167c0146106115780636817031b14610645576102d6565b806343144d18146104fe5780634641257d146105565780634700d305146105605780634b86f7451461056a57806354518b1a146105c9578063573fef0a146105e7576102d6565b8063257ae0de11610293578063257ae0de14610428578063264658261461045c5780632ad5a53f1461048a5780632e1a7d4d146104a85780633e0dc34e146104d65780633f4ba83a146104f4576102d6565b806311588086146102db57806311b0b42d146102f95780631dca33e91461032d5780631f1fcd511461038c5780631fc8bc5d146103c05780631fe4a686146103f4575b600080fd5b6102e3610bbe565b6040518082815260200191505060405180910390f35b610301610cbe565b604051808273ffffffffffffffffffffffffffffffffffffffff16815260200191505060405180910390f35b610335610ce2565b6040518080602001828103825283818151815260200191508051906020019060200280838360005b8381101561037857808201518184015260208101905061035d565b505050509050019250505060405180910390f35b610394610d70565b604051808273ffffffffffffffffffffffffffffffffffffffff16815260200191505060405180910390f35b6103c8610d94565b604051808273ffffffffffffffffffffffffffffffffffffffff16815260200191505060405180910390f35b6103fc610db8565b604051808273ffffffffffffffffffffffffffffffffffffffff16815260200191505060405180910390f35b610430610dde565b604051808273ffffffffffffffffffffffffffffffffffffffff16815260200191505060405180910390f35b6104886004803603602081101561047257600080fd5b8101908080359060200190929190505050610e04565b005b610492610f95565b6040518082815260200191505060405180910390f35b6104d4600480360360208110156104be57600080fd5b8101908080359060200190929190505050610f9a565b005b6104de61142f565b6040518082815260200191505060405180910390f35b6104fc611453565b005b61052a6004803603602081101561051457600080fd5b810190808035906020019092919050505061156d565b604051808273ffffffffffffffffffffffffffffffffffffffff16815260200191505060405180910390f35b61055e6115a9565b005b6105686116bf565b005b610572611874565b6040518080602001828103825283818151815260200191508051906020019060200280838360005b838110156105b557808201518184015260208101905061059a565b505050509050019250505060405180910390f35b6105d1611902565b6040518082815260200191505060405180910390f35b6105ef611908565b005b6105f961190a565b60405180821515815260200191505060405180910390f35b610619611920565b604051808273ffffffffffffffffffffffffffffffffffffffff16815260200191505060405180910390f35b6106876004803603602081101561065b57600080fd5b81019080803573ffffffffffffffffffffffffffffffffffffffff169060200190929190505050611944565b005b610691611a37565b604051808273ffffffffffffffffffffffffffffffffffffffff16815260200191505060405180910390f35b6106c5611a4f565b005b6106cf611bbc565b6040518082815260200191505060405180910390f35b610727600480360360208110156106fb57600080fd5b81019080803573ffffffffffffffffffffffffffffffffffffffff169060200190929190505050611be4565b005b610731611d28565b6040518082815260200191505060405180910390f35b61074f611d2d565b005b610759611e3f565b604051808273ffffffffffffffffffffffffffffffffffffffff16815260200191505060405180910390f35b61078d611e63565b6040518082815260200191505060405180910390f35b6107ab611e69565b604051808273ffffffffffffffffffffffffffffffffffffffff16815260200191505060405180910390f35b6107df611e92565b604051808273ffffffffffffffffffffffffffffffffffffffff16815260200191505060405180910390f35b610813611eb8565b6040518082815260200191505060405180910390f35b61086b6004803603602081101561083f57600080fd5b81019080803573ffffffffffffffffffffffffffffffffffffffff169060200190929190505050611ebe565b005b6108996004803603602081101561088357600080fd5b8101908080359060200190929190505050611fb1565b604051808273ffffffffffffffffffffffffffffffffffffffff16815260200191505060405180910390f35b6108f1600480360360208110156108db57600080fd5b8101908080359060200190929190505050611fed565b005b6108fb61216e565b604051808273ffffffffffffffffffffffffffffffffffffffff16815260200191505060405180910390f35b61092f612194565b6040518082815260200191505060405180910390f35b61094d61219a565b6040518082815260200191505060405180910390f35b6109a56004803603602081101561097957600080fd5b81019080803573ffffffffffffffffffffffffffffffffffffffff169060200190929190505050612263565b005b6109af61236a565b005b6109b961256b565b6040518082815260200191505060405180910390f35b6109d7612571565b60405180821515815260200191505060405180910390f35b610a3160048036036020811015610a0557600080fd5b81019080803573ffffffffffffffffffffffffffffffffffffffff169060200190929190505050612595565b005b610a3b612688565b6040518082815260200191505060405180910390f35b610a5961268d565b604051808273ffffffffffffffffffffffffffffffffffffffff16815260200191505060405180910390f35b610ac760048036036020811015610a9b57600080fd5b81019080803573ffffffffffffffffffffffffffffffffffffffff1690602001909291905050506126b1565b005b610ad16128a3565b6040518080602001828103825283818151815260200191508051906020019060200280838360005b83811015610b14578082015181840152602081019050610af9565b505050509050019250505060405180910390f35b610b30612931565b005b610b5e60048036036020811015610b4857600080fd5b8101908080359060200190929190505050612c57565b604051808273ffffffffffffffffffffffffffffffffffffffff16815260200191505060405180910390f35b610b92612c93565b604051808273ffffffffffffffffffffffffffffffffffffffff16815260200191505060405180910390f35b6000807f000000000000000000000000000000000000000000000000000000000000000073ffffffffffffffffffffffffffffffffffffffff166393f1a40b7f0000000000000000000000000000000000000000000000000000000000000000306040518363ffffffff1660e01b8152600401808381526020018273ffffffffffffffffffffffffffffffffffffffff16815260200192505050604080518083038186803b158015610c6f57600080fd5b505afa158015610c83573d6000803e3d6000fd5b505050506040513d6040811015610c9957600080fd5b8101908080519060200190929190805190602001909291905050505090508091505090565b7f000000000000000000000000000000000000000000000000000000000000000081565b60606009805480602002602001604051908101604052809291908181526020018280548015610d6657602002820191906000526020600020905b8160009054906101000a900473ffffffffffffffffffffffffffffffffffffffff1673ffffffffffffffffffffffffffffffffffffffff1681526020019060010190808311610d1c575b5050505050905090565b7f000000000000000000000000000000000000000000000000000000000000000081565b7f000000000000000000000000000000000000000000000000000000000000000081565b600260009054906101000a900473ffffffffffffffffffffffffffffffffffffffff1681565b600360009054906101000a900473ffffffffffffffffffffffffffffffffffffffff1681565b610e0c611e69565b73ffffffffffffffffffffffffffffffffffffffff163373ffffffffffffffffffffffffffffffffffffffff161480610e925750600160009054906101000a900473ffffffffffffffffffffffffffffffffffffffff1673ffffffffffffffffffffffffffffffffffffffff163373ffffffffffffffffffffffffffffffffffffffff16145b610f04576040517f08c379a00000000000000000000000000000000000000000000000000000000081526004018080602001828103825260088152602001807f216d616e6167657200000000000000000000000000000000000000000000000081525060200191505060405180910390fd5b606f811115610f7b576040517f08c379a00000000000000000000000000000000000000000000000000000000081526004018080602001828103825260048152602001807f216361700000000000000000000000000000000000000000000000000000000081525060200191505060405180910390fd5b8060078190555060075460706103e8030360088190555050565b606f81565b600460009054906101000a900473ffffffffffffffffffffffffffffffffffffffff1673ffffffffffffffffffffffffffffffffffffffff163373ffffffffffffffffffffffffffffffffffffffff161461105d576040517f08c379a00000000000000000000000000000000000000000000000000000000081526004018080602001828103825260068152602001807f217661756c74000000000000000000000000000000000000000000000000000081525060200191505060405180910390fd5b60007f000000000000000000000000000000000000000000000000000000000000000073ffffffffffffffffffffffffffffffffffffffff166370a08231306040518263ffffffff1660e01b8152600401808273ffffffffffffffffffffffffffffffffffffffff16815260200191505060206040518083038186803b1580156110e657600080fd5b505afa1580156110fa573d6000803e3d6000fd5b505050506040513d602081101561111057600080fd5b81019080805190602001909291905050509050818110156112b5577f000000000000000000000000000000000000000000000000000000000000000073ffffffffffffffffffffffffffffffffffffffff1663441a3e707f000000000000000000000000000000000000000000000000000000000000000061119b8486612e9690919063ffffffff16565b6040518363ffffffff1660e01b81526004018083815260200182815260200192505050600060405180830381600087803b1580156111d857600080fd5b505af11580156111ec573d6000803e3d6000fd5b505050507f000000000000000000000000000000000000000000000000000000000000000073ffffffffffffffffffffffffffffffffffffffff166370a08231306040518263ffffffff1660e01b8152600401808273ffffffffffffffffffffffffffffffffffffffff16815260200191505060206040518083038186803b15801561127757600080fd5b505afa15801561128b573d6000803e3d6000fd5b505050506040513d60208110156112a157600080fd5b810190808051906020019092919050505090505b818111156112c1578190505b6112c9611e69565b73ffffffffffffffffffffffffffffffffffffffff163273ffffffffffffffffffffffffffffffffffffffff161480611306575061130561190a565b5b1561137d57611378600460009054906101000a900473ffffffffffffffffffffffffffffffffffffffff16827f000000000000000000000000000000000000000000000000000000000000000073ffffffffffffffffffffffffffffffffffffffff16612f199092919063ffffffff16565b61142b565b60006113a861271061139a60065485612fbb90919063ffffffff16565b61304190919063ffffffff16565b9050611429600460009054906101000a900473ffffffffffffffffffffffffffffffffffffffff166113e38385612e9690919063ffffffff16565b7f000000000000000000000000000000000000000000000000000000000000000073ffffffffffffffffffffffffffffffffffffffff16612f199092919063ffffffff16565b505b5050565b7f000000000000000000000000000000000000000000000000000000000000000081565b61145b611e69565b73ffffffffffffffffffffffffffffffffffffffff163373ffffffffffffffffffffffffffffffffffffffff1614806114e15750600160009054906101000a900473ffffffffffffffffffffffffffffffffffffffff1673ffffffffffffffffffffffffffffffffffffffff163373ffffffffffffffffffffffffffffffffffffffff16145b611553576040517f08c379a00000000000000000000000000000000000000000000000000000000081526004018080602001828103825260088152602001807f216d616e6167657200000000000000000000000000000000000000000000000081525060200191505060405180910390fd5b61155b6130ca565b6115636131b4565b61156b61236a565b565b600a818154811061157a57fe5b906000526020600020016000915054906101000a900473ffffffffffffffffffffffffffffffffffffffff1681565b7316cd932c494ac1b3452d6c8453fb7665ab49ec6b73ffffffffffffffffffffffffffffffffffffffff16633de39c116040518163ffffffff1660e01b8152600401602060405180830381600087803b15801561160557600080fd5b505af1158015611619573d6000803e3d6000fd5b505050506040513d602081101561162f57600080fd5b81019080805190602001909291905050503a11156116b5576040517f08c379a00000000000000000000000000000000000000000000000000000000081526004018080602001828103825260108152602001807f67617320697320746f6f2068696768210000000000000000000000000000000081525060200191505060405180910390fd5b6116bd613286565b565b6116c7611e69565b73ffffffffffffffffffffffffffffffffffffffff163373ffffffffffffffffffffffffffffffffffffffff16148061174d5750600160009054906101000a900473ffffffffffffffffffffffffffffffffffffffff1673ffffffffffffffffffffffffffffffffffffffff163373ffffffffffffffffffffffffffffffffffffffff16145b6117bf576040517f08c379a00000000000000000000000000000000000000000000000000000000081526004018080602001828103825260088152602001807f216d616e6167657200000000000000000000000000000000000000000000000081525060200191505060405180910390fd5b6117c7611d2d565b7f000000000000000000000000000000000000000000000000000000000000000073ffffffffffffffffffffffffffffffffffffffff16635312ea8e7f00000000000000000000000000000000000000000000000000000000000000006040518263ffffffff1660e01b815260040180828152602001915050600060405180830381600087803b15801561185a57600080fd5b505af115801561186e573d6000803e3d6000fd5b50505050565b6060600b8054806020026020016040519081016040528092919081815260200182805480156118f857602002820191906000526020600020905b8160009054906101000a900473ffffffffffffffffffffffffffffffffffffffff1673ffffffffffffffffffffffffffffffffffffffff16815260200190600101908083116118ae575b5050505050905090565b61271081565b565b60008060149054906101000a900460ff16905090565b7f000000000000000000000000000000000000000000000000000000000000000081565b61194c613539565b73ffffffffffffffffffffffffffffffffffffffff1661196a611e69565b73ffffffffffffffffffffffffffffffffffffffff16146119f3576040517f08c379a00000000000000000000000000000000000000000000000000000000081526004018080602001828103825260208152602001807f4f776e61626c653a2063616c6c6572206973206e6f7420746865206f776e657281525060200191505060405180910390fd5b80600460006101000a81548173ffffffffffffffffffffffffffffffffffffffff021916908373ffffffffffffffffffffffffffffffffffffffff16021790555050565b7316cd932c494ac1b3452d6c8453fb7665ab49ec6b81565b611a57613539565b73ffffffffffffffffffffffffffffffffffffffff16611a75611e69565b73ffffffffffffffffffffffffffffffffffffffff1614611afe576040517f08c379a00000000000000000000000000000000000000000000000000000000081526004018080602001828103825260208152602001807f4f776e61626c653a2063616c6c6572206973206e6f7420746865206f776e657281525060200191505060405180910390fd5b600073ffffffffffffffffffffffffffffffffffffffff1660008054906101000a900473ffffffffffffffffffffffffffffffffffffffff1673ffffffffffffffffffffffffffffffffffffffff167f8be0079c531659141344cd1fd0a4f28419497f9722a3daafe3b4186f6b6457e060405160405180910390a360008060006101000a81548173ffffffffffffffffffffffffffffffffffffffff021916908373ffffffffffffffffffffffffffffffffffffffff160217905550565b6000611bdf611bc9610bbe565b611bd161219a565b61354190919063ffffffff16565b905090565b611bec611e69565b73ffffffffffffffffffffffffffffffffffffffff163373ffffffffffffffffffffffffffffffffffffffff161480611c725750600160009054906101000a900473ffffffffffffffffffffffffffffffffffffffff1673ffffffffffffffffffffffffffffffffffffffff163373ffffffffffffffffffffffffffffffffffffffff16145b611ce4576040517f08c379a00000000000000000000000000000000000000000000000000000000081526004018080602001828103825260088152602001807f216d616e6167657200000000000000000000000000000000000000000000000081525060200191505060405180910390fd5b80600160006101000a81548173ffffffffffffffffffffffffffffffffffffffff021916908373ffffffffffffffffffffffffffffffffffffffff16021790555050565b607081565b611d35611e69565b73ffffffffffffffffffffffffffffffffffffffff163373ffffffffffffffffffffffffffffffffffffffff161480611dbb5750600160009054906101000a900473ffffffffffffffffffffffffffffffffffffffff1673ffffffffffffffffffffffffffffffffffffffff163373ffffffffffffffffffffffffffffffffffffffff16145b611e2d576040517f08c379a00000000000000000000000000000000000000000000000000000000081526004018080602001828103825260088152602001807f216d616e6167657200000000000000000000000000000000000000000000000081525060200191505060405180910390fd5b611e356135c9565b611e3d6136b5565b565b7f000000000000000000000000000000000000000000000000000000000000000081565b60065481565b60008060009054906101000a900473ffffffffffffffffffffffffffffffffffffffff16905090565b600560009054906101000a900473ffffffffffffffffffffffffffffffffffffffff1681565b60075481565b611ec6613539565b73ffffffffffffffffffffffffffffffffffffffff16611ee4611e69565b73ffffffffffffffffffffffffffffffffffffffff1614611f6d576040517f08c379a00000000000000000000000000000000000000000000000000000000081526004018080602001828103825260208152602001807f4f776e61626c653a2063616c6c6572206973206e6f7420746865206f776e657281525060200191505060405180910390fd5b80600560006101000a81548173ffffffffffffffffffffffffffffffffffffffff021916908373ffffffffffffffffffffffffffffffffffffffff16021790555050565b60098181548110611fbe57fe5b906000526020600020016000915054906101000a900473ffffffffffffffffffffffffffffffffffffffff1681565b611ff5611e69565b73ffffffffffffffffffffffffffffffffffffffff163373ffffffffffffffffffffffffffffffffffffffff16148061207b5750600160009054906101000a900473ffffffffffffffffffffffffffffffffffffffff1673ffffffffffffffffffffffffffffffffffffffff163373ffffffffffffffffffffffffffffffffffffffff16145b6120ed576040517f08c379a00000000000000000000000000000000000000000000000000000000081526004018080602001828103825260088152602001807f216d616e6167657200000000000000000000000000000000000000000000000081525060200191505060405180910390fd5b6032811115612164576040517f08c379a00000000000000000000000000000000000000000000000000000000081526004018080602001828103825260048152602001807f216361700000000000000000000000000000000000000000000000000000000081525060200191505060405180910390fd5b8060068190555050565b600160009054906101000a900473ffffffffffffffffffffffffffffffffffffffff1681565b6103e881565b60007f000000000000000000000000000000000000000000000000000000000000000073ffffffffffffffffffffffffffffffffffffffff166370a08231306040518263ffffffff1660e01b8152600401808273ffffffffffffffffffffffffffffffffffffffff16815260200191505060206040518083038186803b15801561222357600080fd5b505afa158015612237573d6000803e3d6000fd5b505050506040513d602081101561224d57600080fd5b8101908080519060200190929190505050905090565b600260009054906101000a900473ffffffffffffffffffffffffffffffffffffffff1673ffffffffffffffffffffffffffffffffffffffff163373ffffffffffffffffffffffffffffffffffffffff1614612326576040517f08c379a000000000000000000000000000000000000000000000000000000000815260040180806020018281038252600b8152602001807f217374726174656769737400000000000000000000000000000000000000000081525060200191505060405180910390fd5b80600260006101000a81548173ffffffffffffffffffffffffffffffffffffffff021916908373ffffffffffffffffffffffffffffffffffffffff16021790555050565b61237261190a565b156123e5576040517f08c379a00000000000000000000000000000000000000000000000000000000081526004018080602001828103825260108152602001807f5061757361626c653a207061757365640000000000000000000000000000000081525060200191505060405180910390fd5b60007f000000000000000000000000000000000000000000000000000000000000000073ffffffffffffffffffffffffffffffffffffffff166370a08231306040518263ffffffff1660e01b8152600401808273ffffffffffffffffffffffffffffffffffffffff16815260200191505060206040518083038186803b15801561246e57600080fd5b505afa158015612482573d6000803e3d6000fd5b505050506040513d602081101561249857600080fd5b810190808051906020019092919050505090506000811115612568577f000000000000000000000000000000000000000000000000000000000000000073ffffffffffffffffffffffffffffffffffffffff1663e2bbb1587f0000000000000000000000000000000000000000000000000000000000000000836040518363ffffffff1660e01b81526004018083815260200182815260200192505050600060405180830381600087803b15801561254f57600080fd5b505af1158015612563573d6000803e3d6000fd5b505050505b50565b60085481565b7f000000000000000000000000000000000000000000000000000000000000000081565b61259d613539565b73ffffffffffffffffffffffffffffffffffffffff166125bb611e69565b73ffffffffffffffffffffffffffffffffffffffff1614612644576040517f08c379a00000000000000000000000000000000000000000000000000000000081526004018080602001828103825260208152602001807f4f776e61626c653a2063616c6c6572206973206e6f7420746865206f776e657281525060200191505060405180910390fd5b80600360006101000a81548173ffffffffffffffffffffffffffffffffffffffff021916908373ffffffffffffffffffffffffffffffffffffffff16021790555050565b603281565b7f000000000000000000000000000000000000000000000000000000000000000081565b6126b9613539565b73ffffffffffffffffffffffffffffffffffffffff166126d7611e69565b73ffffffffffffffffffffffffffffffffffffffff1614612760576040517f08c379a00000000000000000000000000000000000000000000000000000000081526004018080602001828103825260208152602001807f4f776e61626c653a2063616c6c6572206973206e6f7420746865206f776e657281525060200191505060405180910390fd5b600073ffffffffffffffffffffffffffffffffffffffff168173ffffffffffffffffffffffffffffffffffffffff1614156127e6576040517f08c379a0000000000000000000000000000000000000000000000000000000008152600401808060200182810382526026815260200180614ef56026913960400191505060405180910390fd5b8073ffffffffffffffffffffffffffffffffffffffff1660008054906101000a900473ffffffffffffffffffffffffffffffffffffffff1673ffffffffffffffffffffffffffffffffffffffff167f8be0079c531659141344cd1fd0a4f28419497f9722a3daafe3b4186f6b6457e060405160405180910390a3806000806101000a81548173ffffffffffffffffffffffffffffffffffffffff021916908373ffffffffffffffffffffffffffffffffffffffff16021790555050565b6060600a80548060200260200160405190810160405280929190818152602001828054801561292757602002820191906000526020600020905b8160009054906101000a900473ffffffffffffffffffffffffffffffffffffffff1673ffffffffffffffffffffffffffffffffffffffff16815260200190600101908083116128dd575b5050505050905090565b600460009054906101000a900473ffffffffffffffffffffffffffffffffffffffff1673ffffffffffffffffffffffffffffffffffffffff163373ffffffffffffffffffffffffffffffffffffffff16146129f4576040517f08c379a00000000000000000000000000000000000000000000000000000000081526004018080602001828103825260068152602001807f217661756c74000000000000000000000000000000000000000000000000000081525060200191505060405180910390fd5b7f000000000000000000000000000000000000000000000000000000000000000073ffffffffffffffffffffffffffffffffffffffff16635312ea8e7f00000000000000000000000000000000000000000000000000000000000000006040518263ffffffff1660e01b815260040180828152602001915050600060405180830381600087803b158015612a8757600080fd5b505af1158015612a9b573d6000803e3d6000fd5b5050505060007f000000000000000000000000000000000000000000000000000000000000000073ffffffffffffffffffffffffffffffffffffffff166370a08231306040518263ffffffff1660e01b8152600401808273ffffffffffffffffffffffffffffffffffffffff16815260200191505060206040518083038186803b158015612b2857600080fd5b505afa158015612b3c573d6000803e3d6000fd5b505050506040513d6020811015612b5257600080fd5b810190808051906020019092919050505090507f000000000000000000000000000000000000000000000000000000000000000073ffffffffffffffffffffffffffffffffffffffff1663a9059cbb600460009054906101000a900473ffffffffffffffffffffffffffffffffffffffff16836040518363ffffffff1660e01b8152600401808373ffffffffffffffffffffffffffffffffffffffff16815260200182815260200192505050602060405180830381600087803b158015612c1857600080fd5b505af1158015612c2c573d6000803e3d6000fd5b505050506040513d6020811015612c4257600080fd5b81019080805190602001909291905050505050565b600b8181548110612c6457fe5b906000526020600020016000915054906101000a900473ffffffffffffffffffffffffffffffffffffffff1681565b600460009054906101000a900473ffffffffffffffffffffffffffffffffffffffff1681565b6000811480612d87575060008373ffffffffffffffffffffffffffffffffffffffff1663dd62ed3e30856040518363ffffffff1660e01b8152600401808373ffffffffffffffffffffffffffffffffffffffff1681526020018273ffffffffffffffffffffffffffffffffffffffff1681526020019250505060206040518083038186803b158015612d4a57600080fd5b505afa158015612d5e573d6000803e3d6000fd5b505050506040513d6020811015612d7457600080fd5b8101908080519060200190929190505050145b612ddc576040517f08c379a0000000000000000000000000000000000000000000000000000000008152600401808060200182810382526036815260200180614f8c6036913960400191505060405180910390fd5b612e798363095ea7b360e01b8484604051602401808373ffffffffffffffffffffffffffffffffffffffff16815260200182815260200192505050604051602081830303815290604052907bffffffffffffffffffffffffffffffffffffffffffffffffffffffff19166020820180517bffffffffffffffffffffffffffffffffffffffffffffffffffffffff838183161783525050505061386d565b505050565b6060612e8d848460008561395c565b90509392505050565b600082821115612f0e576040517f08c379a000000000000000000000000000000000000000000000000000000000815260040180806020018281038252601e8152602001807f536166654d6174683a207375627472616374696f6e206f766572666c6f77000081525060200191505060405180910390fd5b818303905092915050565b612fb68363a9059cbb60e01b8484604051602401808373ffffffffffffffffffffffffffffffffffffffff16815260200182815260200192505050604051602081830303815290604052907bffffffffffffffffffffffffffffffffffffffffffffffffffffffff19166020820180517bffffffffffffffffffffffffffffffffffffffffffffffffffffffff838183161783525050505061386d565b505050565b600080831415612fce576000905061303b565b6000828402905082848281612fdf57fe5b0414613036576040517f08c379a0000000000000000000000000000000000000000000000000000000008152600401808060200182810382526021815260200180614f416021913960400191505060405180910390fd5b809150505b92915050565b60008082116130b8576040517f08c379a000000000000000000000000000000000000000000000000000000000815260040180806020018281038252601a8152602001807f536166654d6174683a206469766973696f6e206279207a65726f00000000000081525060200191505060405180910390fd5b8183816130c157fe5b04905092915050565b6130d261190a565b613144576040517f08c379a00000000000000000000000000000000000000000000000000000000081526004018080602001828103825260148152602001807f5061757361626c653a206e6f742070617573656400000000000000000000000081525060200191505060405180910390fd5b60008060146101000a81548160ff0219169083151502179055507f5db9ee0a495bf2e6ff9c91a7834c1ba4fdd244a5e8aa4e537bd38aeae4b073aa613187613539565b604051808273ffffffffffffffffffffffffffffffffffffffff16815260200191505060405180910390a1565b6132847f00000000000000000000000000000000000000000000000000000000000000007f00000000000000000000000000000000000000000000000000000000000000007f0000000000000000000000000000000000000000000000000000000000000000600360009054906101000a900473ffffffffffffffffffffffffffffffffffffffff167f00000000000000000000000000000000000000000000000000000000000000007f0000000000000000000000000000000000000000000000000000000000000000613b05565b565b61328e61190a565b15613301576040517f08c379a00000000000000000000000000000000000000000000000000000000081526004018080602001828103825260108152602001807f5061757361626c653a207061757365640000000000000000000000000000000081525060200191505060405180910390fd5b3273ffffffffffffffffffffffffffffffffffffffff163373ffffffffffffffffffffffffffffffffffffffff16146133a2576040517f08c379a00000000000000000000000000000000000000000000000000000000081526004018080602001828103825260048152602001807f21454f410000000000000000000000000000000000000000000000000000000081525060200191505060405180910390fd5b7f000000000000000000000000000000000000000000000000000000000000000073ffffffffffffffffffffffffffffffffffffffff1663e2bbb1587f000000000000000000000000000000000000000000000000000000000000000060006040518363ffffffff1660e01b81526004018083815260200182815260200192505050600060405180830381600087803b15801561343e57600080fd5b505af1158015613452573d6000803e3d6000fd5b505050507f0000000000000000000000000000000000000000000000000000000000000000156134ba57613484613c91565b61348c613f51565b6134b57f000000000000000000000000000000000000000000000000000000000000000061404a565b6134ec565b6134c26148ad565b6134eb7f000000000000000000000000000000000000000000000000000000000000000061404a565b5b6134f461236a565b3373ffffffffffffffffffffffffffffffffffffffff167f577a37fdb49a88d66684922c6f913df5239b4f214b2b97c53ef8e3bbb2034cb560405160405180910390a2565b600033905090565b6000808284019050838110156135bf576040517f08c379a000000000000000000000000000000000000000000000000000000000815260040180806020018281038252601b8152602001807f536166654d6174683a206164646974696f6e206f766572666c6f77000000000081525060200191505060405180910390fd5b8091505092915050565b6135d161190a565b15613644576040517f08c379a00000000000000000000000000000000000000000000000000000000081526004018080602001828103825260108152602001807f5061757361626c653a207061757365640000000000000000000000000000000081525060200191505060405180910390fd5b6001600060146101000a81548160ff0219169083151502179055507f62e78cea01bee320cd4e420270b5ea74000d11b0c9f74754ebdbfc544b05a258613688613539565b604051808273ffffffffffffffffffffffffffffffffffffffff16815260200191505060405180910390a1565b6137217f000000000000000000000000000000000000000000000000000000000000000060007f000000000000000000000000000000000000000000000000000000000000000073ffffffffffffffffffffffffffffffffffffffff16612cb99092919063ffffffff16565b61378f600360009054906101000a900473ffffffffffffffffffffffffffffffffffffffff1660007f000000000000000000000000000000000000000000000000000000000000000073ffffffffffffffffffffffffffffffffffffffff16612cb99092919063ffffffff16565b6137fd600360009054906101000a900473ffffffffffffffffffffffffffffffffffffffff1660007f000000000000000000000000000000000000000000000000000000000000000073ffffffffffffffffffffffffffffffffffffffff16612cb99092919063ffffffff16565b61386b600360009054906101000a900473ffffffffffffffffffffffffffffffffffffffff1660007f000000000000000000000000000000000000000000000000000000000000000073ffffffffffffffffffffffffffffffffffffffff16612cb99092919063ffffffff16565b565b60606138cf826040518060400160405280602081526020017f5361666545524332303a206c6f772d6c6576656c2063616c6c206661696c65648152508573ffffffffffffffffffffffffffffffffffffffff16612e7e9092919063ffffffff16565b9050600081511115613957578080602001905160208110156138f057600080fd5b8101908080519060200190929190505050613956576040517f08c379a000000000000000000000000000000000000000000000000000000000815260040180806020018281038252602a815260200180614f62602a913960400191505060405180910390fd5b5b505050565b6060824710156139b7576040517f08c379a0000000000000000000000000000000000000000000000000000000008152600401808060200182810382526026815260200180614f1b6026913960400191505060405180910390fd5b6139c085614c64565b613a32576040517f08c379a000000000000000000000000000000000000000000000000000000000815260040180806020018281038252601d8152602001807f416464726573733a2063616c6c20746f206e6f6e2d636f6e747261637400000081525060200191505060405180910390fd5b600060608673ffffffffffffffffffffffffffffffffffffffff1685876040518082805190602001908083835b60208310613a825780518252602082019150602081019050602083039250613a5f565b6001836020036101000a03801982511681845116808217855250505050505090500191505060006040518083038185875af1925050503d8060008114613ae4576040519150601f19603f3d011682016040523d82523d6000602084013e613ae9565b606091505b5091509150613af9828286614c77565b92505050949350505050565b613b50857fffffffffffffffffffffffffffffffffffffffffffffffffffffffffffffffff8873ffffffffffffffffffffffffffffffffffffffff16612cb99092919063ffffffff16565b613b9b837fffffffffffffffffffffffffffffffffffffffffffffffffffffffffffffffff8673ffffffffffffffffffffffffffffffffffffffff16612cb99092919063ffffffff16565b613bc78360008473ffffffffffffffffffffffffffffffffffffffff16612cb99092919063ffffffff16565b613c12837fffffffffffffffffffffffffffffffffffffffffffffffffffffffffffffffff8473ffffffffffffffffffffffffffffffffffffffff16612cb99092919063ffffffff16565b613c3e8360008373ffffffffffffffffffffffffffffffffffffffff16612cb99092919063ffffffff16565b613c89837fffffffffffffffffffffffffffffffffffffffffffffffffffffffffffffffff8373ffffffffffffffffffffffffffffffffffffffff16612cb99092919063ffffffff16565b505050505050565b60007f000000000000000000000000000000000000000000000000000000000000000073ffffffffffffffffffffffffffffffffffffffff166370a08231306040518263ffffffff1660e01b8152600401808273ffffffffffffffffffffffffffffffffffffffff16815260200191505060206040518083038186803b158015613d1a57600080fd5b505afa158015613d2e573d6000803e3d6000fd5b505050506040513d6020811015613d4457600080fd5b81019080805190602001909291905050509050600360009054906101000a900473ffffffffffffffffffffffffffffffffffffffff1673ffffffffffffffffffffffffffffffffffffffff166338ed1739826000600930426040518663ffffffff1660e01b815260040180868152602001858152602001806020018473ffffffffffffffffffffffffffffffffffffffff1681526020018381526020018281038252858181548152602001915080548015613e5457602002820191906000526020600020905b8160009054906101000a900473ffffffffffffffffffffffffffffffffffffffff1673ffffffffffffffffffffffffffffffffffffffff1681526020019060010190808311613e0a575b50509650505050505050600060405180830381600087803b158015613e7857600080fd5b505af1158015613e8c573d6000803e3d6000fd5b505050506040513d6000823e3d601f19601f820116820180604052506020811015613eb657600080fd5b8101908080516040519392919084640100000000821115613ed657600080fd5b83820191506020820185811115613eec57600080fd5b8251866020820283011164010000000082111715613f0957600080fd5b8083526020830192505050908051906020019060200280838360005b83811015613f40578082015181840152602081019050613f25565b505050509050016040525050505050565b600061403c6103e861402e602d7f000000000000000000000000000000000000000000000000000000000000000073ffffffffffffffffffffffffffffffffffffffff166370a08231306040518263ffffffff1660e01b8152600401808273ffffffffffffffffffffffffffffffffffffffff16815260200191505060206040518083038186803b158015613fe557600080fd5b505afa158015613ff9573d6000803e3d6000fd5b505050506040513d602081101561400f57600080fd5b8101908080519060200190929190505050612fbb90919063ffffffff16565b61304190919063ffffffff16565b905061404781614d43565b50565b600061410160028373ffffffffffffffffffffffffffffffffffffffff166370a08231306040518263ffffffff1660e01b8152600401808273ffffffffffffffffffffffffffffffffffffffff16815260200191505060206040518083038186803b1580156140b857600080fd5b505afa1580156140cc573d6000803e3d6000fd5b505050506040513d60208110156140e257600080fd5b810190808051906020019092919050505061304190919063ffffffff16565b90508173ffffffffffffffffffffffffffffffffffffffff167f000000000000000000000000000000000000000000000000000000000000000073ffffffffffffffffffffffffffffffffffffffff161461434e57600360009054906101000a900473ffffffffffffffffffffffffffffffffffffffff1673ffffffffffffffffffffffffffffffffffffffff166338ed1739826000600a30426040518663ffffffff1660e01b815260040180868152602001858152602001806020018473ffffffffffffffffffffffffffffffffffffffff168152602001838152602001828103825285818154815260200191508054801561425357602002820191906000526020600020905b8160009054906101000a900473ffffffffffffffffffffffffffffffffffffffff1673ffffffffffffffffffffffffffffffffffffffff1681526020019060010190808311614209575b50509650505050505050600060405180830381600087803b15801561427757600080fd5b505af115801561428b573d6000803e3d6000fd5b505050506040513d6000823e3d601f19601f8201168201806040525060208110156142b557600080fd5b81019080805160405193929190846401000000008211156142d557600080fd5b838201915060208201858111156142eb57600080fd5b825186602082028301116401000000008211171561430857600080fd5b8083526020830192505050908051906020019060200280838360005b8381101561433f578082015181840152602081019050614324565b50505050905001604052505050505b8173ffffffffffffffffffffffffffffffffffffffff167f000000000000000000000000000000000000000000000000000000000000000073ffffffffffffffffffffffffffffffffffffffff161461459957600360009054906101000a900473ffffffffffffffffffffffffffffffffffffffff1673ffffffffffffffffffffffffffffffffffffffff166338ed1739826000600b30426040518663ffffffff1660e01b815260040180868152602001858152602001806020018473ffffffffffffffffffffffffffffffffffffffff168152602001838152602001828103825285818154815260200191508054801561449e57602002820191906000526020600020905b8160009054906101000a900473ffffffffffffffffffffffffffffffffffffffff1673ffffffffffffffffffffffffffffffffffffffff1681526020019060010190808311614454575b50509650505050505050600060405180830381600087803b1580156144c257600080fd5b505af11580156144d6573d6000803e3d6000fd5b505050506040513d6000823e3d601f19601f82011682018060405250602081101561450057600080fd5b810190808051604051939291908464010000000082111561452057600080fd5b8382019150602082018581111561453657600080fd5b825186602082028301116401000000008211171561455357600080fd5b8083526020830192505050908051906020019060200280838360005b8381101561458a57808201518184015260208101905061456f565b50505050905001604052505050505b60007f000000000000000000000000000000000000000000000000000000000000000073ffffffffffffffffffffffffffffffffffffffff166370a08231306040518263ffffffff1660e01b8152600401808273ffffffffffffffffffffffffffffffffffffffff16815260200191505060206040518083038186803b15801561462257600080fd5b505afa158015614636573d6000803e3d6000fd5b505050506040513d602081101561464c57600080fd5b8101908080519060200190929190505050905060007f000000000000000000000000000000000000000000000000000000000000000073ffffffffffffffffffffffffffffffffffffffff166370a08231306040518263ffffffff1660e01b8152600401808273ffffffffffffffffffffffffffffffffffffffff16815260200191505060206040518083038186803b1580156146e857600080fd5b505afa1580156146fc573d6000803e3d6000fd5b505050506040513d602081101561471257600080fd5b81019080805190602001909291905050509050600360009054906101000a900473ffffffffffffffffffffffffffffffffffffffff1673ffffffffffffffffffffffffffffffffffffffff1663e8e337007f00000000000000000000000000000000000000000000000000000000000000007f0000000000000000000000000000000000000000000000000000000000000000858560018030426040518963ffffffff1660e01b8152600401808973ffffffffffffffffffffffffffffffffffffffff1681526020018873ffffffffffffffffffffffffffffffffffffffff1681526020018781526020018681526020018581526020018481526020018373ffffffffffffffffffffffffffffffffffffffff16815260200182815260200198505050505050505050606060405180830381600087803b15801561485557600080fd5b505af1158015614869573d6000803e3d6000fd5b505050506040513d606081101561487f57600080fd5b8101908080519060200190929190805190602001909291908051906020019092919050505050505050505050565b60006149986103e861498a602d7f000000000000000000000000000000000000000000000000000000000000000073ffffffffffffffffffffffffffffffffffffffff166370a08231306040518263ffffffff1660e01b8152600401808273ffffffffffffffffffffffffffffffffffffffff16815260200191505060206040518083038186803b15801561494157600080fd5b505afa158015614955573d6000803e3d6000fd5b505050506040513d602081101561496b57600080fd5b8101908080519060200190929190505050612fbb90919063ffffffff16565b61304190919063ffffffff16565b9050600360009054906101000a900473ffffffffffffffffffffffffffffffffffffffff1673ffffffffffffffffffffffffffffffffffffffff166338ed1739826000600930426040518663ffffffff1660e01b815260040180868152602001858152602001806020018473ffffffffffffffffffffffffffffffffffffffff1681526020018381526020018281038252858181548152602001915080548015614a9757602002820191906000526020600020905b8160009054906101000a900473ffffffffffffffffffffffffffffffffffffffff1673ffffffffffffffffffffffffffffffffffffffff1681526020019060010190808311614a4d575b50509650505050505050600060405180830381600087803b158015614abb57600080fd5b505af1158015614acf573d6000803e3d6000fd5b505050506040513d6000823e3d601f19601f820116820180604052506020811015614af957600080fd5b8101908080516040519392919084640100000000821115614b1957600080fd5b83820191506020820185811115614b2f57600080fd5b8251866020820283011164010000000082111715614b4c57600080fd5b8083526020830192505050908051906020019060200280838360005b83811015614b83578082015181840152602081019050614b68565b505050509050016040525050505060007f000000000000000000000000000000000000000000000000000000000000000073ffffffffffffffffffffffffffffffffffffffff166370a08231306040518263ffffffff1660e01b8152600401808273ffffffffffffffffffffffffffffffffffffffff16815260200191505060206040518083038186803b158015614c1a57600080fd5b505afa158015614c2e573d6000803e3d6000fd5b505050506040513d6020811015614c4457600080fd5b81019080805190602001909291905050509050614c6081614d43565b5050565b600080823b905060008111915050919050565b60608315614c8757829050614d3c565b600083511115614c9a5782518084602001fd5b816040517f08c379a00000000000000000000000000000000000000000000000000000000081526004018080602001828103825283818151815260200191508051906020019080838360005b83811015614d01578082015181840152602081019050614ce6565b50505050905090810190601f168015614d2e5780820380516001836020036101000a031916815260200191505b509250505060405180910390fd5b9392505050565b6000614d6e6103e8614d6060075485612fbb90919063ffffffff16565b61304190919063ffffffff16565b9050614dbb33827f000000000000000000000000000000000000000000000000000000000000000073ffffffffffffffffffffffffffffffffffffffff16612f199092919063ffffffff16565b6000614de66103e8614dd860085486612fbb90919063ffffffff16565b61304190919063ffffffff16565b9050614e55600560009054906101000a900473ffffffffffffffffffffffffffffffffffffffff16827f000000000000000000000000000000000000000000000000000000000000000073ffffffffffffffffffffffffffffffffffffffff16612f199092919063ffffffff16565b6000614e7f6103e8614e71607087612fbb90919063ffffffff16565b61304190919063ffffffff16565b9050614eee600260009054906101000a900473ffffffffffffffffffffffffffffffffffffffff16827f000000000000000000000000000000000000000000000000000000000000000073ffffffffffffffffffffffffffffffffffffffff16612f199092919063ffffffff16565b5050505056fe4f776e61626c653a206e6577206f776e657220697320746865207a65726f2061646472657373416464726573733a20696e73756666696369656e742062616c616e636520666f722063616c6c536166654d6174683a206d756c7469706c69636174696f6e206f766572666c6f775361666545524332303a204552433230206f7065726174696f6e20646964206e6f7420737563636565645361666545524332303a20617070726f76652066726f6d206e6f6e2d7a65726f20746f206e6f6e2d7a65726f20616c6c6f77616e6365a26469706673582212209f6227ad398783afa9dbb0e4e42b7355813f83431e93619ffb87b4715f30303064736f6c634300060c0033416464726573733a20696e73756666696369656e742062616c616e636520666f722063616c6c5361666545524332303a204552433230206f7065726174696f6e20646964206e6f7420737563636565645361666545524332303a20617070726f76652066726f6d206e6f6e2d7a65726f20746f206e6f6e2d7a65726f20616c6c6f77616e6365",
  "immutableReferences": {
    "7052": [
      {
        "length": 32,
        "start": 3264
      },
      {
        "length": 32,
        "start": 13457
      },
      {
        "length": 32,
        "start": 16224
      },
      {
        "length": 32,
        "start": 19349
      },
      {
        "length": 32,
        "start": 19831
      },
      {
        "length": 32,
        "start": 19985
      },
      {
        "length": 32,
        "start": 20138
      }
    ],
    "7054": [
      {
        "length": 32,
        "start": 9871
      },
      {
        "length": 32,
        "start": 12795
      },
      {
        "length": 32,
        "start": 13511
      },
      {
        "length": 32,
        "start": 14155
      },
      {
        "length": 32,
        "start": 15509
      },
      {
        "length": 32,
        "start": 18620
      }
    ],
    "7056": [
      {
        "length": 32,
        "start": 3442
      },
      {
        "length": 32,
        "start": 4193
      },
      {
        "length": 32,
        "start": 4594
      },
      {
        "length": 32,
        "start": 4916
      },
      {
        "length": 32,
        "start": 5093
      },
      {
        "length": 32,
        "start": 8606
      },
      {
        "length": 32,
        "start": 9193
      },
      {
        "length": 32,
        "start": 10915
      },
      {
        "length": 32,
        "start": 11111
      },
      {
        "length": 32,
        "start": 12729
      },
      {
        "length": 32,
        "start": 14045
      }
    ],
    "7058": [
      {
        "length": 32,
        "start": 6434
      },
      {
        "length": 32,
        "start": 12863
      },
      {
        "length": 32,
        "start": 14265
      },
      {
        "length": 32,
        "start": 16668
      },
      {
        "length": 32,
        "start": 17821
      },
      {
        "length": 32,
        "start": 18277
      }
    ],
    "7060": [
      {
        "length": 32,
        "start": 7745
      },
      {
        "length": 32,
        "start": 12896
      },
      {
        "length": 32,
        "start": 14375
      },
      {
        "length": 32,
        "start": 17255
      },
      {
        "length": 32,
        "start": 18019
      },
      {
        "length": 32,
        "start": 18310
      }
    ],
    "7062": [
      {
        "length": 32,
        "start": 3011
      },
      {
        "length": 32,
        "start": 3478
      },
      {
        "length": 32,
        "start": 4397
      },
      {
        "length": 32,
        "start": 6089
      },
      {
        "length": 32,
        "start": 9398
      },
      {
        "length": 32,
        "start": 10742
      },
      {
        "length": 32,
        "start": 12762
      },
      {
        "length": 32,
        "start": 13220
      },
      {
        "length": 32,
        "start": 14010
      }
    ],
    "7064": [
      {
        "length": 32,
        "start": 3071
      },
      {
        "length": 32,
        "start": 4457
      },
      {
        "length": 32,
        "start": 5169
      },
      {
        "length": 32,
        "start": 6149
      },
      {
        "length": 32,
        "start": 9458
      },
      {
        "length": 32,
        "start": 10802
      },
      {
        "length": 32,
        "start": 13280
      }
    ],
    "7075": [
      {
        "length": 32,
        "start": 9587
      },
      {
        "length": 32,
        "start": 13400
      }
    ]
  },
  "source": "pragma solidity ^0.6.12;\r\n\r\nimport \"./Common/StrategyCommonChefLP.sol\";\r\nimport \"../../utils/GasThrottler.sol\";\r\n\r\ncontract StrategyCakeChefLP is StrategyCommonChefLP, GasThrottler {\r\n\r\n    address constant private chefAddress = address(0x73feaa1eE314F8c655E354234017bE2193C9E24E);\r\n\r\n    constructor(\r\n        address _want,\r\n        uint256 _poolId,\r\n        address _vault,\r\n        address _unirouter,\r\n        address _keeper,\r\n        address _strategist,\r\n        address _beefyFeeRecipient,\r\n        address[] memory _outputToNativeRoute,\r\n        address[] memory _outputToLp0Route,\r\n        address[] memory _outputToLp1Route\r\n    ) StrategyCommonChefLP(\r\n        _want,\r\n        _poolId,\r\n        chefAddress,\r\n        _vault,\r\n        _unirouter,\r\n        _keeper,\r\n        _strategist,\r\n        _beefyFeeRecipient,\r\n        _outputToNativeRoute,\r\n        _outputToLp0Route,\r\n        _outputToLp1Route\r\n    ) public {}\r\n\r\n    function harvest() public override(StrategyCommonChefLP) gasThrottle {\r\n        super.harvest();\r\n    }\r\n}",
  "sourcePath": "I:/13-GithubWork/Vaults-Protocol/contracts/pools/MASK-BNB/StrategyCakeChefLP.sol",
  "compiler": {
    "name": "solc",
    "version": "0.6.12+commit.27d51765.Emscripten.clang"
  },
  "schemaVersion": "3.4.1",
  "updatedAt": "2021-07-16T14:46:43.015Z",
  "devdoc": {
    "kind": "dev",
    "methods": {
      "beforeDeposit()": {
        "details": "Function to synchronize balances before new user deposit. Can be overridden in the strategy."
      },
      "owner()": {
        "details": "Returns the address of the current owner."
      },
      "paused()": {
        "details": "Returns true if the contract is paused, and false otherwise."
      },
      "renounceOwnership()": {
        "details": "Leaves the contract without owner. It will not be possible to call `onlyOwner` functions anymore. Can only be called by the current owner. NOTE: Renouncing ownership will leave the contract without an owner, thereby removing any functionality that is only available to the owner."
      },
      "setBeefyFeeRecipient(address)": {
        "details": "Updates beefy fee recipient.",
        "params": {
          "_beefyFeeRecipient": "new beefy fee recipient address."
        }
      },
      "setKeeper(address)": {
        "details": "Updates address of the strat keeper.",
        "params": {
          "_keeper": "new keeper address."
        }
      },
      "setStrategist(address)": {
        "details": "Updates address where strategist fee earnings will go.",
        "params": {
          "_strategist": "new strategist address."
        }
      },
      "setUnirouter(address)": {
        "details": "Updates router that will be used for swaps.",
        "params": {
          "_unirouter": "new unirouter address."
        }
      },
      "setVault(address)": {
        "details": "Updates parent vault.",
        "params": {
          "_vault": "new vault address."
        }
      },
      "transferOwnership(address)": {
        "details": "Transfers ownership of the contract to a new account (`newOwner`). Can only be called by the current owner."
      }
    },
    "version": 1
  },
  "userdoc": {
    "kind": "user",
    "methods": {},
    "version": 1
  }
}