{
  "contractName": "StrategyCakeV2",
  "abi": [
    {
      "inputs": [
        {
          "internalType": "address",
          "name": "_vault",
          "type": "address"
        },
        {
          "internalType": "address",
          "name": "_unirouter",
          "type": "address"
        },
        {
          "internalType": "address",
          "name": "_keeper",
          "type": "address"
        },
        {
          "internalType": "address",
          "name": "_beefyFeeRecipient",
          "type": "address"
        }
      ],
      "stateMutability": "nonpayable",
      "type": "constructor"
    },
    {
      "anonymous": false,
      "inputs": [
        {
          "indexed": true,
          "internalType": "address",
          "name": "previousOwner",
          "type": "address"
        },
        {
          "indexed": true,
          "internalType": "address",
          "name": "newOwner",
          "type": "address"
        }
      ],
      "name": "OwnershipTransferred",
      "type": "event"
    },
    {
      "anonymous": false,
      "inputs": [
        {
          "indexed": false,
          "internalType": "address",
          "name": "account",
          "type": "address"
        }
      ],
      "name": "Paused",
      "type": "event"
    },
    {
      "anonymous": false,
      "inputs": [
        {
          "indexed": true,
          "internalType": "address",
          "name": "harvester",
          "type": "address"
        },
        {
          "indexed": true,
          "internalType": "uint256",
          "name": "timestamp",
          "type": "uint256"
        }
      ],
      "name": "StratHarvest",
      "type": "event"
    },
    {
      "anonymous": false,
      "inputs": [
        {
          "indexed": false,
          "internalType": "address",
          "name": "account",
          "type": "address"
        }
      ],
      "name": "Unpaused",
      "type": "event"
    },
    {
      "inputs": [],
      "name": "MAX_CALL_FEE",
      "outputs": [
        {
          "internalType": "uint256",
          "name": "",
          "type": "uint256"
        }
      ],
      "stateMutability": "view",
      "type": "function"
    },
    {
      "inputs": [],
      "name": "MAX_FEE",
      "outputs": [
        {
          "internalType": "uint256",
          "name": "",
          "type": "uint256"
        }
      ],
      "stateMutability": "view",
      "type": "function"
    },
    {
      "inputs": [],
      "name": "WITHDRAWAL_FEE_CAP",
      "outputs": [
        {
          "internalType": "uint256",
          "name": "",
          "type": "uint256"
        }
      ],
      "stateMutability": "view",
      "type": "function"
    },
    {
      "inputs": [],
      "name": "WITHDRAWAL_MAX",
      "outputs": [
        {
          "internalType": "uint256",
          "name": "",
          "type": "uint256"
        }
      ],
      "stateMutability": "view",
      "type": "function"
    },
    {
      "inputs": [],
      "name": "beefyFee",
      "outputs": [
        {
          "internalType": "uint256",
          "name": "",
          "type": "uint256"
        }
      ],
      "stateMutability": "view",
      "type": "function"
    },
    {
      "inputs": [],
      "name": "beefyFeeRecipient",
      "outputs": [
        {
          "internalType": "address",
          "name": "",
          "type": "address"
        }
      ],
      "stateMutability": "view",
      "type": "function"
    },
    {
      "inputs": [],
      "name": "callFee",
      "outputs": [
        {
          "internalType": "uint256",
          "name": "",
          "type": "uint256"
        }
      ],
      "stateMutability": "view",
      "type": "function"
    },
    {
      "inputs": [],
      "name": "keeper",
      "outputs": [
        {
          "internalType": "address",
          "name": "",
          "type": "address"
        }
      ],
      "stateMutability": "view",
      "type": "function"
    },
    {
      "inputs": [],
      "name": "masterchef",
      "outputs": [
        {
          "internalType": "address",
          "name": "",
          "type": "address"
        }
      ],
      "stateMutability": "view",
      "type": "function"
    },
    {
      "inputs": [],
      "name": "owner",
      "outputs": [
        {
          "internalType": "address",
          "name": "",
          "type": "address"
        }
      ],
      "stateMutability": "view",
      "type": "function"
    },
    {
      "inputs": [],
      "name": "paused",
      "outputs": [
        {
          "internalType": "bool",
          "name": "",
          "type": "bool"
        }
      ],
      "stateMutability": "view",
      "type": "function"
    },
    {
      "inputs": [],
      "name": "renounceOwnership",
      "outputs": [],
      "stateMutability": "nonpayable",
      "type": "function"
    },
    {
      "inputs": [
        {
          "internalType": "address",
          "name": "_beefyFeeRecipient",
          "type": "address"
        }
      ],
      "name": "setBeefyFeeRecipient",
      "outputs": [],
      "stateMutability": "nonpayable",
      "type": "function"
    },
    {
      "inputs": [
        {
          "internalType": "uint256",
          "name": "_fee",
          "type": "uint256"
        }
      ],
      "name": "setCallFee",
      "outputs": [],
      "stateMutability": "nonpayable",
      "type": "function"
    },
    {
      "inputs": [
        {
          "internalType": "address",
          "name": "_keeper",
          "type": "address"
        }
      ],
      "name": "setKeeper",
      "outputs": [],
      "stateMutability": "nonpayable",
      "type": "function"
    },
    {
      "inputs": [
        {
          "internalType": "address",
          "name": "_unirouter",
          "type": "address"
        }
      ],
      "name": "setUnirouter",
      "outputs": [],
      "stateMutability": "nonpayable",
      "type": "function"
    },
    {
      "inputs": [
        {
          "internalType": "address",
          "name": "_vault",
          "type": "address"
        }
      ],
      "name": "setVault",
      "outputs": [],
      "stateMutability": "nonpayable",
      "type": "function"
    },
    {
      "inputs": [
        {
          "internalType": "uint256",
          "name": "_fee",
          "type": "uint256"
        }
      ],
      "name": "setWithdrawalFee",
      "outputs": [],
      "stateMutability": "nonpayable",
      "type": "function"
    },
    {
      "inputs": [
        {
          "internalType": "address",
          "name": "newOwner",
          "type": "address"
        }
      ],
      "name": "transferOwnership",
      "outputs": [],
      "stateMutability": "nonpayable",
      "type": "function"
    },
    {
      "inputs": [],
      "name": "unirouter",
      "outputs": [
        {
          "internalType": "address",
          "name": "",
          "type": "address"
        }
      ],
      "stateMutability": "view",
      "type": "function"
    },
    {
      "inputs": [],
      "name": "vault",
      "outputs": [
        {
          "internalType": "address",
          "name": "",
          "type": "address"
        }
      ],
      "stateMutability": "view",
      "type": "function"
    },
    {
      "inputs": [],
      "name": "want",
      "outputs": [
        {
          "internalType": "address",
          "name": "",
          "type": "address"
        }
      ],
      "stateMutability": "view",
      "type": "function"
    },
    {
      "inputs": [
        {
          "internalType": "uint256",
          "name": "",
          "type": "uint256"
        }
      ],
      "name": "wantToWrappedRoute",
      "outputs": [
        {
          "internalType": "address",
          "name": "",
          "type": "address"
        }
      ],
      "stateMutability": "view",
      "type": "function"
    },
    {
      "inputs": [],
      "name": "withdrawalFee",
      "outputs": [
        {
          "internalType": "uint256",
          "name": "",
          "type": "uint256"
        }
      ],
      "stateMutability": "view",
      "type": "function"
    },
    {
      "inputs": [],
      "name": "wrapped",
      "outputs": [
        {
          "internalType": "address",
          "name": "",
          "type": "address"
        }
      ],
      "stateMutability": "view",
      "type": "function"
    },
    {
      "inputs": [],
      "name": "deposit",
      "outputs": [],
      "stateMutability": "nonpayable",
      "type": "function"
    },
    {
      "inputs": [
        {
          "internalType": "uint256",
          "name": "_amount",
          "type": "uint256"
        }
      ],
      "name": "withdraw",
      "outputs": [],
      "stateMutability": "nonpayable",
      "type": "function"
    },
    {
      "inputs": [],
      "name": "beforeDeposit",
      "outputs": [],
      "stateMutability": "nonpayable",
      "type": "function"
    },
    {
      "inputs": [],
      "name": "harvest",
      "outputs": [],
      "stateMutability": "nonpayable",
      "type": "function"
    },
    {
      "inputs": [],
      "name": "balanceOf",
      "outputs": [
        {
          "internalType": "uint256",
          "name": "",
          "type": "uint256"
        }
      ],
      "stateMutability": "view",
      "type": "function"
    },
    {
      "inputs": [],
      "name": "balanceOfWant",
      "outputs": [
        {
          "internalType": "uint256",
          "name": "",
          "type": "uint256"
        }
      ],
      "stateMutability": "view",
      "type": "function"
    },
    {
      "inputs": [],
      "name": "balanceOfPool",
      "outputs": [
        {
          "internalType": "uint256",
          "name": "",
          "type": "uint256"
        }
      ],
      "stateMutability": "view",
      "type": "function"
    },
    {
      "inputs": [],
      "name": "retireStrat",
      "outputs": [],
      "stateMutability": "nonpayable",
      "type": "function"
    },
    {
      "inputs": [],
      "name": "panic",
      "outputs": [],
      "stateMutability": "nonpayable",
      "type": "function"
    },
    {
      "inputs": [],
      "name": "pause",
      "outputs": [],
      "stateMutability": "nonpayable",
      "type": "function"
    },
    {
      "inputs": [],
      "name": "unpause",
      "outputs": [],
      "stateMutability": "nonpayable",
      "type": "function"
    }
  ],
  "bytecode": "0x6080604052600060055560006006556006546103e8036007556040518060400160405280730e09fabb73bd3ade0a17ecc321fd13a19e81ce8273ffffffffffffffffffffffffffffffffffffffff1673ffffffffffffffffffffffffffffffffffffffff16815260200173bb4cdb9cbd36b01bd1cbaebf2de08d9173bc095c73ffffffffffffffffffffffffffffffffffffffff1673ffffffffffffffffffffffffffffffffffffffff168152506008906002620000bf929190620009b0565b50348015620000cd57600080fd5b50604051620041423803806200414283398181016040526080811015620000f357600080fd5b8101908080519060200190929190805190602001909291908051906020019092919080519060200190929190505050818385836000620001386200031260201b60201c565b9050806000806101000a81548173ffffffffffffffffffffffffffffffffffffffff021916908373ffffffffffffffffffffffffffffffffffffffff1602179055508073ffffffffffffffffffffffffffffffffffffffff16600073ffffffffffffffffffffffffffffffffffffffff167f8be0079c531659141344cd1fd0a4f28419497f9722a3daafe3b4186f6b6457e060405160405180910390a35060008060146101000a81548160ff02191690831515021790555083600160006101000a81548173ffffffffffffffffffffffffffffffffffffffff021916908373ffffffffffffffffffffffffffffffffffffffff16021790555082600260006101000a81548173ffffffffffffffffffffffffffffffffffffffff021916908373ffffffffffffffffffffffffffffffffffffffff16021790555081600360006101000a81548173ffffffffffffffffffffffffffffffffffffffff021916908373ffffffffffffffffffffffffffffffffffffffff16021790555080600460006101000a81548173ffffffffffffffffffffffffffffffffffffffff021916908373ffffffffffffffffffffffffffffffffffffffff16021790555050505050620003086200031a60201b60201c565b5050505062000a7c565b600033905090565b620003947373feaa1ee314f8c655e354234017be2193c9e24e7fffffffffffffffffffffffffffffffffffffffffffffffffffffffffffffffff730e09fabb73bd3ade0a17ecc321fd13a19e81ce8273ffffffffffffffffffffffffffffffffffffffff166200041e60201b620024ff179092919060201c565b6200041c600260009054906101000a900473ffffffffffffffffffffffffffffffffffffffff167fffffffffffffffffffffffffffffffffffffffffffffffffffffffffffffffff730e09fabb73bd3ade0a17ecc321fd13a19e81ce8273ffffffffffffffffffffffffffffffffffffffff166200041e60201b620024ff179092919060201c565b565b6000811480620004f0575060008373ffffffffffffffffffffffffffffffffffffffff1663dd62ed3e30856040518363ffffffff1660e01b8152600401808373ffffffffffffffffffffffffffffffffffffffff1681526020018273ffffffffffffffffffffffffffffffffffffffff1681526020019250505060206040518083038186803b158015620004b157600080fd5b505afa158015620004c6573d6000803e3d6000fd5b505050506040513d6020811015620004dd57600080fd5b8101908080519060200190929190505050145b62000547576040517f08c379a00000000000000000000000000000000000000000000000000000000081526004018080602001828103825260368152602001806200410c6036913960400191505060405180910390fd5b620005ec8363095ea7b360e01b8484604051602401808373ffffffffffffffffffffffffffffffffffffffff16815260200182815260200192505050604051602081830303815290604052907bffffffffffffffffffffffffffffffffffffffffffffffffffffffff19166020820180517bffffffffffffffffffffffffffffffffffffffffffffffffffffffff8381831617835250505050620005f160201b60201c565b505050565b60606200065a826040518060400160405280602081526020017f5361666545524332303a206c6f772d6c6576656c2063616c6c206661696c65648152508573ffffffffffffffffffffffffffffffffffffffff16620006eb60201b620026c4179092919060201c565b9050600081511115620006e6578080602001905160208110156200067d57600080fd5b8101908080519060200190929190505050620006e5576040517f08c379a000000000000000000000000000000000000000000000000000000000815260040180806020018281038252602a815260200180620040e2602a913960400191505060405180910390fd5b5b505050565b60606200070284846000856200070b60201b60201c565b90509392505050565b60608247101562000768576040517f08c379a0000000000000000000000000000000000000000000000000000000008152600401808060200182810382526026815260200180620040bc6026913960400191505060405180910390fd5b6200077985620008cb60201b60201c565b620007ec576040517f08c379a000000000000000000000000000000000000000000000000000000000815260040180806020018281038252601d8152602001807f416464726573733a2063616c6c20746f206e6f6e2d636f6e747261637400000081525060200191505060405180910390fd5b600060608673ffffffffffffffffffffffffffffffffffffffff1685876040518082805190602001908083835b602083106200083e578051825260208201915060208101905060208303925062000819565b6001836020036101000a03801982511681845116808217855250505050505090500191505060006040518083038185875af1925050503d8060008114620008a2576040519150601f19603f3d011682016040523d82523d6000602084013e620008a7565b606091505b5091509150620008bf828286620008de60201b60201c565b92505050949350505050565b600080823b905060008111915050919050565b60608315620008f057829050620009a9565b600083511115620009045782518084602001fd5b816040517f08c379a00000000000000000000000000000000000000000000000000000000081526004018080602001828103825283818151815260200191508051906020019080838360005b838110156200096d57808201518184015260208101905062000950565b50505050905090810190601f1680156200099b5780820380516001836020036101000a031916815260200191505b509250505060405180910390fd5b9392505050565b82805482825590600052602060002090810192821562000a2c579160200282015b8281111562000a2b5782518260006101000a81548173ffffffffffffffffffffffffffffffffffffffff021916908373ffffffffffffffffffffffffffffffffffffffff16021790555091602001919060010190620009d1565b5b50905062000a3b919062000a3f565b5090565b5b8082111562000a7857600081816101000a81549073ffffffffffffffffffffffffffffffffffffffff02191690555060010162000a40565b5090565b6136308062000a8c6000396000f3fe608060405234801561001057600080fd5b506004361061021c5760003560e01c80638456cb5911610125578063c1a3d44c116100ad578063dfbdc4371161007c578063dfbdc437146106bf578063f2fde38b146106dd578063fb1db27814610721578063fb61778714610755578063fbfa77cf1461075f5761021c565b8063c1a3d44c14610635578063d0e30db014610653578063d31025891461065d578063d92f3d731461067b5761021c565b806390321e1a116100f457806390321e1a14610553578063a68833e514610571578063ac1e5025146105b5578063aced1661146105e3578063bc063e1a146106175761021c565b80638456cb59146104c35780638bc7e8c4146104cd5780638da5cb5b146104eb5780638e1454591461051f5761021c565b806350e70d48116101a8578063640420e911610177578063640420e9146103bb5780636817031b14610413578063715018a614610457578063722713f714610461578063748747e61461047f5761021c565b806350e70d481461033f57806354518b1a14610373578063573fef0a146103915780635c975abb1461039b5761021c565b80632ad5a53f116101ef5780632ad5a53f146102d55780632e1a7d4d146102f35780633f4ba83a146103215780634641257d1461032b5780634700d305146103355761021c565b806311588086146102215780631f1fcd511461023f578063257ae0de1461027357806326465826146102a7575b600080fd5b610229610793565b6040518082815260200191505060405180910390f35b610247610868565b604051808273ffffffffffffffffffffffffffffffffffffffff16815260200191505060405180910390f35b61027b610880565b604051808273ffffffffffffffffffffffffffffffffffffffff16815260200191505060405180910390f35b6102d3600480360360208110156102bd57600080fd5b81019080803590602001909291905050506108a6565b005b6102dd610a34565b6040518082815260200191505060405180910390f35b61031f6004803603602081101561030957600080fd5b8101908080359060200190929190505050610a39565b005b610329610e6a565b005b610333610f84565b005b61033d611293565b005b61034761141d565b604051808273ffffffffffffffffffffffffffffffffffffffff16815260200191505060405180910390f35b61037b611435565b6040518082815260200191505060405180910390f35b61039961143b565b005b6103a3611445565b60405180821515815260200191505060405180910390f35b6103e7600480360360208110156103d157600080fd5b810190808035906020019092919050505061145b565b604051808273ffffffffffffffffffffffffffffffffffffffff16815260200191505060405180910390f35b6104556004803603602081101561042957600080fd5b81019080803573ffffffffffffffffffffffffffffffffffffffff169060200190929190505050611497565b005b61045f61158a565b005b6104696116f7565b6040518082815260200191505060405180910390f35b6104c16004803603602081101561049557600080fd5b81019080803573ffffffffffffffffffffffffffffffffffffffff16906020019092919050505061171f565b005b6104cb611863565b005b6104d5611975565b6040518082815260200191505060405180910390f35b6104f361197b565b604051808273ffffffffffffffffffffffffffffffffffffffff16815260200191505060405180910390f35b6105276119a4565b604051808273ffffffffffffffffffffffffffffffffffffffff16815260200191505060405180910390f35b61055b6119ca565b6040518082815260200191505060405180910390f35b6105b36004803603602081101561058757600080fd5b81019080803573ffffffffffffffffffffffffffffffffffffffff1690602001909291905050506119d0565b005b6105e1600480360360208110156105cb57600080fd5b8101908080359060200190929190505050611ac3565b005b6105eb611c44565b604051808273ffffffffffffffffffffffffffffffffffffffff16815260200191505060405180910390f35b61061f611c6a565b6040518082815260200191505060405180910390f35b61063d611c70565b6040518082815260200191505060405180910390f35b61065b611d2d565b005b610665611eee565b6040518082815260200191505060405180910390f35b6106bd6004803603602081101561069157600080fd5b81019080803573ffffffffffffffffffffffffffffffffffffffff169060200190929190505050611ef4565b005b6106c7611fe7565b6040518082815260200191505060405180910390f35b61071f600480360360208110156106f357600080fd5b81019080803573ffffffffffffffffffffffffffffffffffffffff169060200190929190505050611fec565b005b6107296121de565b604051808273ffffffffffffffffffffffffffffffffffffffff16815260200191505060405180910390f35b61075d6121f6565b005b6107676124d9565b604051808273ffffffffffffffffffffffffffffffffffffffff16815260200191505060405180910390f35b6000807373feaa1ee314f8c655e354234017be2193c9e24e73ffffffffffffffffffffffffffffffffffffffff166393f1a40b6000306040518363ffffffff1660e01b8152600401808381526020018273ffffffffffffffffffffffffffffffffffffffff16815260200192505050604080518083038186803b15801561081957600080fd5b505afa15801561082d573d6000803e3d6000fd5b505050506040513d604081101561084357600080fd5b8101908080519060200190929190805190602001909291905050505090508091505090565b730e09fabb73bd3ade0a17ecc321fd13a19e81ce8281565b600260009054906101000a900473ffffffffffffffffffffffffffffffffffffffff1681565b6108ae61197b565b73ffffffffffffffffffffffffffffffffffffffff163373ffffffffffffffffffffffffffffffffffffffff1614806109345750600160009054906101000a900473ffffffffffffffffffffffffffffffffffffffff1673ffffffffffffffffffffffffffffffffffffffff163373ffffffffffffffffffffffffffffffffffffffff16145b6109a6576040517f08c379a00000000000000000000000000000000000000000000000000000000081526004018080602001828103825260088152602001807f216d616e6167657200000000000000000000000000000000000000000000000081525060200191505060405180910390fd5b606f811115610a1d576040517f08c379a00000000000000000000000000000000000000000000000000000000081526004018080602001828103825260048152602001807f216361700000000000000000000000000000000000000000000000000000000081525060200191505060405180910390fd5b806006819055506006546103e80360078190555050565b606f81565b600360009054906101000a900473ffffffffffffffffffffffffffffffffffffffff1673ffffffffffffffffffffffffffffffffffffffff163373ffffffffffffffffffffffffffffffffffffffff1614610afc576040517f08c379a00000000000000000000000000000000000000000000000000000000081526004018080602001828103825260068152602001807f217661756c74000000000000000000000000000000000000000000000000000081525060200191505060405180910390fd5b6000730e09fabb73bd3ade0a17ecc321fd13a19e81ce8273ffffffffffffffffffffffffffffffffffffffff166370a08231306040518263ffffffff1660e01b8152600401808273ffffffffffffffffffffffffffffffffffffffff16815260200191505060206040518083038186803b158015610b7957600080fd5b505afa158015610b8d573d6000803e3d6000fd5b505050506040513d6020811015610ba357600080fd5b8101908080519060200190929190505050905081811015610d08577373feaa1ee314f8c655e354234017be2193c9e24e73ffffffffffffffffffffffffffffffffffffffff16631058d281610c0183856126dc90919063ffffffff16565b6040518263ffffffff1660e01b815260040180828152602001915050600060405180830381600087803b158015610c3757600080fd5b505af1158015610c4b573d6000803e3d6000fd5b50505050730e09fabb73bd3ade0a17ecc321fd13a19e81ce8273ffffffffffffffffffffffffffffffffffffffff166370a08231306040518263ffffffff1660e01b8152600401808273ffffffffffffffffffffffffffffffffffffffff16815260200191505060206040518083038186803b158015610cca57600080fd5b505afa158015610cde573d6000803e3d6000fd5b505050506040513d6020811015610cf457600080fd5b810190808051906020019092919050505090505b81811115610d14578190505b610d1c61197b565b73ffffffffffffffffffffffffffffffffffffffff163273ffffffffffffffffffffffffffffffffffffffff161480610d595750610d58611445565b5b15610dc457610dbf600360009054906101000a900473ffffffffffffffffffffffffffffffffffffffff1682730e09fabb73bd3ade0a17ecc321fd13a19e81ce8273ffffffffffffffffffffffffffffffffffffffff1661275f9092919063ffffffff16565b610e66565b6000610def612710610de16005548561280190919063ffffffff16565b61288790919063ffffffff16565b9050610e64600360009054906101000a900473ffffffffffffffffffffffffffffffffffffffff16610e2a83856126dc90919063ffffffff16565b730e09fabb73bd3ade0a17ecc321fd13a19e81ce8273ffffffffffffffffffffffffffffffffffffffff1661275f9092919063ffffffff16565b505b5050565b610e7261197b565b73ffffffffffffffffffffffffffffffffffffffff163373ffffffffffffffffffffffffffffffffffffffff161480610ef85750600160009054906101000a900473ffffffffffffffffffffffffffffffffffffffff1673ffffffffffffffffffffffffffffffffffffffff163373ffffffffffffffffffffffffffffffffffffffff16145b610f6a576040517f08c379a00000000000000000000000000000000000000000000000000000000081526004018080602001828103825260088152602001807f216d616e6167657200000000000000000000000000000000000000000000000081525060200191505060405180910390fd5b610f72612910565b610f7a6129fa565b610f82611d2d565b565b610f8c611445565b15610fff576040517f08c379a00000000000000000000000000000000000000000000000000000000081526004018080602001828103825260108152602001807f5061757361626c653a207061757365640000000000000000000000000000000081525060200191505060405180910390fd5b3373ffffffffffffffffffffffffffffffffffffffff163273ffffffffffffffffffffffffffffffffffffffff1614806110865750600360009054906101000a900473ffffffffffffffffffffffffffffffffffffffff1673ffffffffffffffffffffffffffffffffffffffff163373ffffffffffffffffffffffffffffffffffffffff16145b6110f8576040517f08c379a00000000000000000000000000000000000000000000000000000000081526004018080602001828103825260098152602001807f21636f6e7472616374000000000000000000000000000000000000000000000081525060200191505060405180910390fd5b7373feaa1ee314f8c655e354234017be2193c9e24e73ffffffffffffffffffffffffffffffffffffffff16631058d28160006040518263ffffffff1660e01b815260040180828152602001915050600060405180830381600087803b15801561116057600080fd5b505af1158015611174573d6000803e3d6000fd5b505050506000730e09fabb73bd3ade0a17ecc321fd13a19e81ce8273ffffffffffffffffffffffffffffffffffffffff166370a08231306040518263ffffffff1660e01b8152600401808273ffffffffffffffffffffffffffffffffffffffff16815260200191505060206040518083038186803b1580156111f557600080fd5b505afa158015611209573d6000803e3d6000fd5b505050506040513d602081101561121f57600080fd5b81019080805190602001909291905050509050600081111561129057611243612af0565b61124b611d2d565b423373ffffffffffffffffffffffffffffffffffffffff167f865390bb5d5b45fc22d8882e7465202e4ddb75def64919391d59bde6faaffadf60405160405180910390a35b50565b61129b61197b565b73ffffffffffffffffffffffffffffffffffffffff163373ffffffffffffffffffffffffffffffffffffffff1614806113215750600160009054906101000a900473ffffffffffffffffffffffffffffffffffffffff1673ffffffffffffffffffffffffffffffffffffffff163373ffffffffffffffffffffffffffffffffffffffff16145b611393576040517f08c379a00000000000000000000000000000000000000000000000000000000081526004018080602001828103825260088152602001807f216d616e6167657200000000000000000000000000000000000000000000000081525060200191505060405180910390fd5b61139b611863565b7373feaa1ee314f8c655e354234017be2193c9e24e73ffffffffffffffffffffffffffffffffffffffff16635312ea8e60006040518263ffffffff1660e01b815260040180828152602001915050600060405180830381600087803b15801561140357600080fd5b505af1158015611417573d6000803e3d6000fd5b50505050565b73bb4cdb9cbd36b01bd1cbaebf2de08d9173bc095c81565b61271081565b611443610f84565b565b60008060149054906101000a900460ff16905090565b6008818154811061146857fe5b906000526020600020016000915054906101000a900473ffffffffffffffffffffffffffffffffffffffff1681565b61149f612f82565b73ffffffffffffffffffffffffffffffffffffffff166114bd61197b565b73ffffffffffffffffffffffffffffffffffffffff1614611546576040517f08c379a00000000000000000000000000000000000000000000000000000000081526004018080602001828103825260208152602001807f4f776e61626c653a2063616c6c6572206973206e6f7420746865206f776e657281525060200191505060405180910390fd5b80600360006101000a81548173ffffffffffffffffffffffffffffffffffffffff021916908373ffffffffffffffffffffffffffffffffffffffff16021790555050565b611592612f82565b73ffffffffffffffffffffffffffffffffffffffff166115b061197b565b73ffffffffffffffffffffffffffffffffffffffff1614611639576040517f08c379a00000000000000000000000000000000000000000000000000000000081526004018080602001828103825260208152602001807f4f776e61626c653a2063616c6c6572206973206e6f7420746865206f776e657281525060200191505060405180910390fd5b600073ffffffffffffffffffffffffffffffffffffffff1660008054906101000a900473ffffffffffffffffffffffffffffffffffffffff1673ffffffffffffffffffffffffffffffffffffffff167f8be0079c531659141344cd1fd0a4f28419497f9722a3daafe3b4186f6b6457e060405160405180910390a360008060006101000a81548173ffffffffffffffffffffffffffffffffffffffff021916908373ffffffffffffffffffffffffffffffffffffffff160217905550565b600061171a611704610793565b61170c611c70565b612f8a90919063ffffffff16565b905090565b61172761197b565b73ffffffffffffffffffffffffffffffffffffffff163373ffffffffffffffffffffffffffffffffffffffff1614806117ad5750600160009054906101000a900473ffffffffffffffffffffffffffffffffffffffff1673ffffffffffffffffffffffffffffffffffffffff163373ffffffffffffffffffffffffffffffffffffffff16145b61181f576040517f08c379a00000000000000000000000000000000000000000000000000000000081526004018080602001828103825260088152602001807f216d616e6167657200000000000000000000000000000000000000000000000081525060200191505060405180910390fd5b80600160006101000a81548173ffffffffffffffffffffffffffffffffffffffff021916908373ffffffffffffffffffffffffffffffffffffffff16021790555050565b61186b61197b565b73ffffffffffffffffffffffffffffffffffffffff163373ffffffffffffffffffffffffffffffffffffffff1614806118f15750600160009054906101000a900473ffffffffffffffffffffffffffffffffffffffff1673ffffffffffffffffffffffffffffffffffffffff163373ffffffffffffffffffffffffffffffffffffffff16145b611963576040517f08c379a00000000000000000000000000000000000000000000000000000000081526004018080602001828103825260088152602001807f216d616e6167657200000000000000000000000000000000000000000000000081525060200191505060405180910390fd5b61196b613012565b6119736130fe565b565b60055481565b60008060009054906101000a900473ffffffffffffffffffffffffffffffffffffffff16905090565b600460009054906101000a900473ffffffffffffffffffffffffffffffffffffffff1681565b60065481565b6119d8612f82565b73ffffffffffffffffffffffffffffffffffffffff166119f661197b565b73ffffffffffffffffffffffffffffffffffffffff1614611a7f576040517f08c379a00000000000000000000000000000000000000000000000000000000081526004018080602001828103825260208152602001807f4f776e61626c653a2063616c6c6572206973206e6f7420746865206f776e657281525060200191505060405180910390fd5b80600460006101000a81548173ffffffffffffffffffffffffffffffffffffffff021916908373ffffffffffffffffffffffffffffffffffffffff16021790555050565b611acb61197b565b73ffffffffffffffffffffffffffffffffffffffff163373ffffffffffffffffffffffffffffffffffffffff161480611b515750600160009054906101000a900473ffffffffffffffffffffffffffffffffffffffff1673ffffffffffffffffffffffffffffffffffffffff163373ffffffffffffffffffffffffffffffffffffffff16145b611bc3576040517f08c379a00000000000000000000000000000000000000000000000000000000081526004018080602001828103825260088152602001807f216d616e6167657200000000000000000000000000000000000000000000000081525060200191505060405180910390fd5b6032811115611c3a576040517f08c379a00000000000000000000000000000000000000000000000000000000081526004018080602001828103825260048152602001807f216361700000000000000000000000000000000000000000000000000000000081525060200191505060405180910390fd5b8060058190555050565b600160009054906101000a900473ffffffffffffffffffffffffffffffffffffffff1681565b6103e881565b6000730e09fabb73bd3ade0a17ecc321fd13a19e81ce8273ffffffffffffffffffffffffffffffffffffffff166370a08231306040518263ffffffff1660e01b8152600401808273ffffffffffffffffffffffffffffffffffffffff16815260200191505060206040518083038186803b158015611ced57600080fd5b505afa158015611d01573d6000803e3d6000fd5b505050506040513d6020811015611d1757600080fd5b8101908080519060200190929190505050905090565b611d35611445565b15611da8576040517f08c379a00000000000000000000000000000000000000000000000000000000081526004018080602001828103825260108152602001807f5061757361626c653a207061757365640000000000000000000000000000000081525060200191505060405180910390fd5b6000730e09fabb73bd3ade0a17ecc321fd13a19e81ce8273ffffffffffffffffffffffffffffffffffffffff166370a08231306040518263ffffffff1660e01b8152600401808273ffffffffffffffffffffffffffffffffffffffff16815260200191505060206040518083038186803b158015611e2557600080fd5b505afa158015611e39573d6000803e3d6000fd5b505050506040513d6020811015611e4f57600080fd5b810190808051906020019092919050505090506000811115611eeb577373feaa1ee314f8c655e354234017be2193c9e24e73ffffffffffffffffffffffffffffffffffffffff166341441d3b826040518263ffffffff1660e01b815260040180828152602001915050600060405180830381600087803b158015611ed257600080fd5b505af1158015611ee6573d6000803e3d6000fd5b505050505b50565b60075481565b611efc612f82565b73ffffffffffffffffffffffffffffffffffffffff16611f1a61197b565b73ffffffffffffffffffffffffffffffffffffffff1614611fa3576040517f08c379a00000000000000000000000000000000000000000000000000000000081526004018080602001828103825260208152602001807f4f776e61626c653a2063616c6c6572206973206e6f7420746865206f776e657281525060200191505060405180910390fd5b80600260006101000a81548173ffffffffffffffffffffffffffffffffffffffff021916908373ffffffffffffffffffffffffffffffffffffffff16021790555050565b603281565b611ff4612f82565b73ffffffffffffffffffffffffffffffffffffffff1661201261197b565b73ffffffffffffffffffffffffffffffffffffffff161461209b576040517f08c379a00000000000000000000000000000000000000000000000000000000081526004018080602001828103825260208152602001807f4f776e61626c653a2063616c6c6572206973206e6f7420746865206f776e657281525060200191505060405180910390fd5b600073ffffffffffffffffffffffffffffffffffffffff168173ffffffffffffffffffffffffffffffffffffffff161415612121576040517f08c379a000000000000000000000000000000000000000000000000000000000815260040180806020018281038252602681526020018061352e6026913960400191505060405180910390fd5b8073ffffffffffffffffffffffffffffffffffffffff1660008054906101000a900473ffffffffffffffffffffffffffffffffffffffff1673ffffffffffffffffffffffffffffffffffffffff167f8be0079c531659141344cd1fd0a4f28419497f9722a3daafe3b4186f6b6457e060405160405180910390a3806000806101000a81548173ffffffffffffffffffffffffffffffffffffffff021916908373ffffffffffffffffffffffffffffffffffffffff16021790555050565b7373feaa1ee314f8c655e354234017be2193c9e24e81565b600360009054906101000a900473ffffffffffffffffffffffffffffffffffffffff1673ffffffffffffffffffffffffffffffffffffffff163373ffffffffffffffffffffffffffffffffffffffff16146122b9576040517f08c379a00000000000000000000000000000000000000000000000000000000081526004018080602001828103825260068152602001807f217661756c74000000000000000000000000000000000000000000000000000081525060200191505060405180910390fd5b7373feaa1ee314f8c655e354234017be2193c9e24e73ffffffffffffffffffffffffffffffffffffffff16635312ea8e60006040518263ffffffff1660e01b815260040180828152602001915050600060405180830381600087803b15801561232157600080fd5b505af1158015612335573d6000803e3d6000fd5b505050506000730e09fabb73bd3ade0a17ecc321fd13a19e81ce8273ffffffffffffffffffffffffffffffffffffffff166370a08231306040518263ffffffff1660e01b8152600401808273ffffffffffffffffffffffffffffffffffffffff16815260200191505060206040518083038186803b1580156123b657600080fd5b505afa1580156123ca573d6000803e3d6000fd5b505050506040513d60208110156123e057600080fd5b81019080805190602001909291905050509050730e09fabb73bd3ade0a17ecc321fd13a19e81ce8273ffffffffffffffffffffffffffffffffffffffff1663a9059cbb600360009054906101000a900473ffffffffffffffffffffffffffffffffffffffff16836040518363ffffffff1660e01b8152600401808373ffffffffffffffffffffffffffffffffffffffff16815260200182815260200192505050602060405180830381600087803b15801561249a57600080fd5b505af11580156124ae573d6000803e3d6000fd5b505050506040513d60208110156124c457600080fd5b81019080805190602001909291905050505050565b600360009054906101000a900473ffffffffffffffffffffffffffffffffffffffff1681565b60008114806125cd575060008373ffffffffffffffffffffffffffffffffffffffff1663dd62ed3e30856040518363ffffffff1660e01b8152600401808373ffffffffffffffffffffffffffffffffffffffff1681526020018273ffffffffffffffffffffffffffffffffffffffff1681526020019250505060206040518083038186803b15801561259057600080fd5b505afa1580156125a4573d6000803e3d6000fd5b505050506040513d60208110156125ba57600080fd5b8101908080519060200190929190505050145b612622576040517f08c379a00000000000000000000000000000000000000000000000000000000081526004018080602001828103825260368152602001806135c56036913960400191505060405180910390fd5b6126bf8363095ea7b360e01b8484604051602401808373ffffffffffffffffffffffffffffffffffffffff16815260200182815260200192505050604051602081830303815290604052907bffffffffffffffffffffffffffffffffffffffffffffffffffffffff19166020820180517bffffffffffffffffffffffffffffffffffffffffffffffffffffffff83818316178352505050506131b6565b505050565b60606126d384846000856132a5565b90509392505050565b600082821115612754576040517f08c379a000000000000000000000000000000000000000000000000000000000815260040180806020018281038252601e8152602001807f536166654d6174683a207375627472616374696f6e206f766572666c6f77000081525060200191505060405180910390fd5b818303905092915050565b6127fc8363a9059cbb60e01b8484604051602401808373ffffffffffffffffffffffffffffffffffffffff16815260200182815260200192505050604051602081830303815290604052907bffffffffffffffffffffffffffffffffffffffffffffffffffffffff19166020820180517bffffffffffffffffffffffffffffffffffffffffffffffffffffffff83818316178352505050506131b6565b505050565b6000808314156128145760009050612881565b600082840290508284828161282557fe5b041461287c576040517f08c379a000000000000000000000000000000000000000000000000000000000815260040180806020018281038252602181526020018061357a6021913960400191505060405180910390fd5b809150505b92915050565b60008082116128fe576040517f08c379a000000000000000000000000000000000000000000000000000000000815260040180806020018281038252601a8152602001807f536166654d6174683a206469766973696f6e206279207a65726f00000000000081525060200191505060405180910390fd5b81838161290757fe5b04905092915050565b612918611445565b61298a576040517f08c379a00000000000000000000000000000000000000000000000000000000081526004018080602001828103825260148152602001807f5061757361626c653a206e6f742070617573656400000000000000000000000081525060200191505060405180910390fd5b60008060146101000a81548160ff0219169083151502179055507f5db9ee0a495bf2e6ff9c91a7834c1ba4fdd244a5e8aa4e537bd38aeae4b073aa6129cd612f82565b604051808273ffffffffffffffffffffffffffffffffffffffff16815260200191505060405180910390a1565b612a6d7373feaa1ee314f8c655e354234017be2193c9e24e7fffffffffffffffffffffffffffffffffffffffffffffffffffffffffffffffff730e09fabb73bd3ade0a17ecc321fd13a19e81ce8273ffffffffffffffffffffffffffffffffffffffff166124ff9092919063ffffffff16565b612aee600260009054906101000a900473ffffffffffffffffffffffffffffffffffffffff167fffffffffffffffffffffffffffffffffffffffffffffffffffffffffffffffff730e09fabb73bd3ade0a17ecc321fd13a19e81ce8273ffffffffffffffffffffffffffffffffffffffff166124ff9092919063ffffffff16565b565b6000612bcf6103e8612bc1600a730e09fabb73bd3ade0a17ecc321fd13a19e81ce8273ffffffffffffffffffffffffffffffffffffffff166370a08231306040518263ffffffff1660e01b8152600401808273ffffffffffffffffffffffffffffffffffffffff16815260200191505060206040518083038186803b158015612b7857600080fd5b505afa158015612b8c573d6000803e3d6000fd5b505050506040513d6020811015612ba257600080fd5b810190808051906020019092919050505061280190919063ffffffff16565b61288790919063ffffffff16565b9050600260009054906101000a900473ffffffffffffffffffffffffffffffffffffffff1673ffffffffffffffffffffffffffffffffffffffff166338ed1739826000600830426040518663ffffffff1660e01b815260040180868152602001858152602001806020018473ffffffffffffffffffffffffffffffffffffffff1681526020018381526020018281038252858181548152602001915080548015612cce57602002820191906000526020600020905b8160009054906101000a900473ffffffffffffffffffffffffffffffffffffffff1673ffffffffffffffffffffffffffffffffffffffff1681526020019060010190808311612c84575b50509650505050505050600060405180830381600087803b158015612cf257600080fd5b505af1158015612d06573d6000803e3d6000fd5b505050506040513d6000823e3d601f19601f820116820180604052506020811015612d3057600080fd5b8101908080516040519392919084640100000000821115612d5057600080fd5b83820191506020820185811115612d6657600080fd5b8251866020820283011164010000000082111715612d8357600080fd5b8083526020830192505050908051906020019060200280838360005b83811015612dba578082015181840152602081019050612d9f565b5050505090500160405250505050600073bb4cdb9cbd36b01bd1cbaebf2de08d9173bc095c73ffffffffffffffffffffffffffffffffffffffff166370a08231306040518263ffffffff1660e01b8152600401808273ffffffffffffffffffffffffffffffffffffffff16815260200191505060206040518083038186803b158015612e4557600080fd5b505afa158015612e59573d6000803e3d6000fd5b505050506040513d6020811015612e6f57600080fd5b810190808051906020019092919050505090506000612ead6103e8612e9f6006548561280190919063ffffffff16565b61288790919063ffffffff16565b9050612eee328273bb4cdb9cbd36b01bd1cbaebf2de08d9173bc095c73ffffffffffffffffffffffffffffffffffffffff1661275f9092919063ffffffff16565b6000612f196103e8612f0b6007548661280190919063ffffffff16565b61288790919063ffffffff16565b9050612f7c600460009054906101000a900473ffffffffffffffffffffffffffffffffffffffff168273bb4cdb9cbd36b01bd1cbaebf2de08d9173bc095c73ffffffffffffffffffffffffffffffffffffffff1661275f9092919063ffffffff16565b50505050565b600033905090565b600080828401905083811015613008576040517f08c379a000000000000000000000000000000000000000000000000000000000815260040180806020018281038252601b8152602001807f536166654d6174683a206164646974696f6e206f766572666c6f77000000000081525060200191505060405180910390fd5b8091505092915050565b61301a611445565b1561308d576040517f08c379a00000000000000000000000000000000000000000000000000000000081526004018080602001828103825260108152602001807f5061757361626c653a207061757365640000000000000000000000000000000081525060200191505060405180910390fd5b6001600060146101000a81548160ff0219169083151502179055507f62e78cea01bee320cd4e420270b5ea74000d11b0c9f74754ebdbfc544b05a2586130d1612f82565b604051808273ffffffffffffffffffffffffffffffffffffffff16815260200191505060405180910390a1565b6131527373feaa1ee314f8c655e354234017be2193c9e24e6000730e09fabb73bd3ade0a17ecc321fd13a19e81ce8273ffffffffffffffffffffffffffffffffffffffff166124ff9092919063ffffffff16565b6131b4600260009054906101000a900473ffffffffffffffffffffffffffffffffffffffff166000730e09fabb73bd3ade0a17ecc321fd13a19e81ce8273ffffffffffffffffffffffffffffffffffffffff166124ff9092919063ffffffff16565b565b6060613218826040518060400160405280602081526020017f5361666545524332303a206c6f772d6c6576656c2063616c6c206661696c65648152508573ffffffffffffffffffffffffffffffffffffffff166126c49092919063ffffffff16565b90506000815111156132a05780806020019051602081101561323957600080fd5b810190808051906020019092919050505061329f576040517f08c379a000000000000000000000000000000000000000000000000000000000815260040180806020018281038252602a81526020018061359b602a913960400191505060405180910390fd5b5b505050565b606082471015613300576040517f08c379a00000000000000000000000000000000000000000000000000000000081526004018080602001828103825260268152602001806135546026913960400191505060405180910390fd5b6133098561344e565b61337b576040517f08c379a000000000000000000000000000000000000000000000000000000000815260040180806020018281038252601d8152602001807f416464726573733a2063616c6c20746f206e6f6e2d636f6e747261637400000081525060200191505060405180910390fd5b600060608673ffffffffffffffffffffffffffffffffffffffff1685876040518082805190602001908083835b602083106133cb57805182526020820191506020810190506020830392506133a8565b6001836020036101000a03801982511681845116808217855250505050505090500191505060006040518083038185875af1925050503d806000811461342d576040519150601f19603f3d011682016040523d82523d6000602084013e613432565b606091505b5091509150613442828286613461565b92505050949350505050565b600080823b905060008111915050919050565b6060831561347157829050613526565b6000835111156134845782518084602001fd5b816040517f08c379a00000000000000000000000000000000000000000000000000000000081526004018080602001828103825283818151815260200191508051906020019080838360005b838110156134eb5780820151818401526020810190506134d0565b50505050905090810190601f1680156135185780820380516001836020036101000a031916815260200191505b509250505060405180910390fd5b939250505056fe4f776e61626c653a206e6577206f776e657220697320746865207a65726f2061646472657373416464726573733a20696e73756666696369656e742062616c616e636520666f722063616c6c536166654d6174683a206d756c7469706c69636174696f6e206f766572666c6f775361666545524332303a204552433230206f7065726174696f6e20646964206e6f7420737563636565645361666545524332303a20617070726f76652066726f6d206e6f6e2d7a65726f20746f206e6f6e2d7a65726f20616c6c6f77616e6365a26469706673582212200873ddd8367214c62426017dbf18dec07ae56532b59d00f3fb3d4ad46747ffe364736f6c634300060c0033416464726573733a20696e73756666696369656e742062616c616e636520666f722063616c6c5361666545524332303a204552433230206f7065726174696f6e20646964206e6f7420737563636565645361666545524332303a20617070726f76652066726f6d206e6f6e2d7a65726f20746f206e6f6e2d7a65726f20616c6c6f77616e6365",
  "immutableReferences": {},
  "source": "pragma solidity ^0.6.12;\r\n\r\nimport \"@openzeppelin/contracts/token/ERC20/ERC20.sol\";\r\nimport \"@openzeppelin/contracts/token/ERC20/SafeERC20.sol\";\r\nimport \"@openzeppelin/contracts/math/SafeMath.sol\";\r\n\r\nimport \"../../interfaces/common/IUniswapRouter.sol\";\r\nimport \"../../interfaces/common/IUniswapV2Pair.sol\";\r\nimport \"../../interfaces/pancake/IMasterChef.sol\";\r\nimport \"./Common/FeeManagerCake.sol\";\r\nimport \"./Common/StratManagerCake.sol\";\r\n\r\ncontract StrategyCakeV2 is StratManagerCake, FeeManagerCake {\r\n    using SafeERC20 for IERC20;\r\n    using SafeMath for uint256;\r\n\r\n    // Tokens used\r\n    address constant public wrapped = address(0xbb4CdB9CBd36B01bD1cBaEBF2De08d9173bc095c);\r\n    address constant public want = address(0x0E09FaBB73Bd3Ade0a17ECC321fD13a19e81cE82);\r\n\r\n    // Third party contracts\r\n    address constant public masterchef = address(0x73feaa1eE314F8c655E354234017bE2193C9E24E);\r\n\r\n    // Routes\r\n    address[] public wantToWrappedRoute = [want, wrapped];\r\n\r\n    /**\r\n     * @dev Event that is fired each time someone harvests the strat.\r\n     */\r\n    event StratHarvest(address indexed harvester, uint256 indexed timestamp);\r\n\r\n    constructor(\r\n        address _vault,\r\n        address _unirouter,\r\n        address _keeper,\r\n        address _beefyFeeRecipient\r\n    ) StratManagerCake(_keeper, _unirouter, _vault, _beefyFeeRecipient) public {\r\n        _giveAllowances();\r\n    }\r\n\r\n    // puts the funds to work\r\n    function deposit() public whenNotPaused {\r\n        uint256 wantBal = IERC20(want).balanceOf(address(this));\r\n\r\n        if (wantBal > 0) {\r\n            IMasterChef(masterchef).enterStaking(wantBal);\r\n        }\r\n    }\r\n\r\n    function withdraw(uint256 _amount) external {\r\n        require(msg.sender == vault, \"!vault\");\r\n\r\n        uint256 wantBal = IERC20(want).balanceOf(address(this));\r\n\r\n        if (wantBal < _amount) {\r\n            IMasterChef(masterchef).leaveStaking(_amount.sub(wantBal));\r\n            wantBal = IERC20(want).balanceOf(address(this));\r\n        }\r\n\r\n        if (wantBal > _amount) {\r\n            wantBal = _amount;\r\n        }\r\n\r\n        if (tx.origin == owner() || paused()) {\r\n            IERC20(want).safeTransfer(vault, wantBal);\r\n        } else {\r\n            uint256 withdrawalFeeAmount = wantBal.mul(withdrawalFee).div(WITHDRAWAL_MAX);\r\n            IERC20(want).safeTransfer(vault, wantBal.sub(withdrawalFeeAmount));\r\n        }\r\n    }\r\n\r\n    function beforeDeposit() external override {\r\n        harvest();\r\n    }\r\n\r\n    // compounds earnings and charges performance fee\r\n    function harvest() public whenNotPaused {\r\n        require(tx.origin == msg.sender || msg.sender == vault, \"!contract\");\r\n        IMasterChef(masterchef).leaveStaking(0);\r\n        uint256 wantBal = IERC20(want).balanceOf(address(this));\r\n        if (wantBal > 0) {\r\n            chargeFees();\r\n            deposit();\r\n            emit StratHarvest(msg.sender, block.timestamp);\r\n        }\r\n    }\r\n\r\n    // performance fees\r\n    function chargeFees() internal {\r\n        uint256 toWrapped = IERC20(want).balanceOf(address(this)).mul(10).div(1000);\r\n        IUniswapRouter(unirouter).swapExactTokensForTokens(toWrapped, 0, wantToWrappedRoute, address(this), now);\r\n\r\n        uint256 wrappedBal = IERC20(wrapped).balanceOf(address(this));\r\n\r\n        uint256 callFeeAmount = wrappedBal.mul(callFee).div(MAX_FEE);\r\n        IERC20(wrapped).safeTransfer(tx.origin, callFeeAmount);\r\n\r\n        uint256 beefyFeeAmount = wrappedBal.mul(beefyFee).div(MAX_FEE);\r\n        IERC20(wrapped).safeTransfer(beefyFeeRecipient, beefyFeeAmount);\r\n    }\r\n\r\n    // calculate the total underlaying 'want' held by the strat.\r\n    function balanceOf() public view returns (uint256) {\r\n        return balanceOfWant().add(balanceOfPool());\r\n    }\r\n\r\n    // it calculates how much 'want' this contract holds.\r\n    function balanceOfWant() public view returns (uint256) {\r\n        return IERC20(want).balanceOf(address(this));\r\n    }\r\n\r\n    // it calculates how much 'want' the strategy has working in the farm.\r\n    function balanceOfPool() public view returns (uint256) {\r\n        (uint256 _amount, ) = IMasterChef(masterchef).userInfo(0, address(this));\r\n        return _amount;\r\n    }\r\n\r\n    // called as part of strat migration. Sends all the available funds back to the vault.\r\n    function retireStrat() external {\r\n        require(msg.sender == vault, \"!vault\");\r\n\r\n        IMasterChef(masterchef).emergencyWithdraw(0);\r\n\r\n        uint256 wantBal = IERC20(want).balanceOf(address(this));\r\n        IERC20(want).transfer(vault, wantBal);\r\n    }\r\n\r\n    // pauses deposits and withdraws all funds from third party systems.\r\n    function panic() public onlyManager {\r\n        pause();\r\n        IMasterChef(masterchef).emergencyWithdraw(0);\r\n    }\r\n\r\n    function pause() public onlyManager {\r\n        _pause();\r\n\r\n        _removeAllowances();\r\n    }\r\n\r\n    function unpause() external onlyManager {\r\n        _unpause();\r\n\r\n        _giveAllowances();\r\n\r\n        deposit();\r\n    }\r\n\r\n    function _giveAllowances() internal {\r\n        IERC20(want).safeApprove(masterchef, uint256(-1));\r\n        IERC20(want).safeApprove(unirouter, uint256(-1));\r\n    }\r\n\r\n    function _removeAllowances() internal {\r\n        IERC20(want).safeApprove(masterchef, 0);\r\n        IERC20(want).safeApprove(unirouter, 0);\r\n    }\r\n}",
  "sourcePath": "I:/13-GithubWork/Vaults-Protocol/contracts/pools/Cake/StrategyCakeV2.sol",
  "compiler": {
    "name": "solc",
    "version": "0.6.12+commit.27d51765.Emscripten.clang"
  },
  "schemaVersion": "3.4.1",
  "updatedAt": "2021-07-16T14:46:42.984Z",
  "devdoc": {
    "events": {
      "StratHarvest(address,uint256)": {
        "details": "Event that is fired each time someone harvests the strat."
      }
    },
    "kind": "dev",
    "methods": {
      "beforeDeposit()": {
        "details": "Function to synchronize balances before new user deposit. Can be overridden in the strategy."
      },
      "owner()": {
        "details": "Returns the address of the current owner."
      },
      "paused()": {
        "details": "Returns true if the contract is paused, and false otherwise."
      },
      "renounceOwnership()": {
        "details": "Leaves the contract without owner. It will not be possible to call `onlyOwner` functions anymore. Can only be called by the current owner. NOTE: Renouncing ownership will leave the contract without an owner, thereby removing any functionality that is only available to the owner."
      },
      "setBeefyFeeRecipient(address)": {
        "details": "Updates beefy fee recipient.",
        "params": {
          "_beefyFeeRecipient": "new beefy fee recipient address."
        }
      },
      "setKeeper(address)": {
        "details": "Updates address of the strat keeper.",
        "params": {
          "_keeper": "new keeper address."
        }
      },
      "setUnirouter(address)": {
        "details": "Updates router that will be used for swaps.",
        "params": {
          "_unirouter": "new unirouter address."
        }
      },
      "setVault(address)": {
        "details": "Updates parent vault.",
        "params": {
          "_vault": "new vault address."
        }
      },
      "transferOwnership(address)": {
        "details": "Transfers ownership of the contract to a new account (`newOwner`). Can only be called by the current owner."
      }
    },
    "version": 1
  },
  "userdoc": {
    "kind": "user",
    "methods": {},
    "version": 1
  }
}